:020000040001F9
:10600000103F0020216201003B6201003D6201005F
:106010000000000000000000000000000000000080
:106020000000000000000000000000003F620100CE
:106030000000000000000000416201004362010016
:106040004562010045620100798B01001D89010054
:106050004562010000000000018701004562010067
:106060004562010045620100456201004562010090
:106070004562010045620100456201004562010080
:1060800045620100CD8801004562010045620100C2
:106090004989010091890100A98901004562010037
:1060A00045620100456201000000000000000000A0
:1060B00000000000000000000000000000000000E0
:1060C00000F002F800F040F80CA030C8083824189E
:1060D0002D18A246671EAB4654465D46AC4201D120
:1060E00000F032F87E460F3E0FCCB6460126334212
:1060F00000D0FB1AA246AB4633431847A46B0000FE
:10610000C46B0000103A02D378C878C1FAD852079D
:1061100001D330C830C101D504680C60704700005D
:106120000023002400250026103A01D378C1FBD8B3
:10613000520700D330C100D50B6070471FB5C04671
:10614000C0461FBD10B510BD01F058F81146FFF74D
:10615000F5FF04F08FFF01F070F803B4FFF7F2FFD2
:1061600003BC01F09FF80000401E00BF00BF00BF4D
:1061700000BF00BF00BF00BF00BF00BF00BF00BF27
:1061800000BFF1D170470000401E00BF00BF00BF3C
:1061900000BF00BF00BF00BF00BF00BF00BF00BF07
:1061A00000BFF1D170470000401E00BF00BF00BF1C
:1061B00000BF00BF00BF00BF00BF00BF00BF00BFE7
:1061C00000BFF1D170470000401E00BF00BF00BFFC
:1061D00000BF00BF00BF00BF00BF00BF00BF00BFC7
:1061E00000BFF1D17047000070B505460C46164659
:1061F00002E00FCC0FC5103E102EFAD2082E02D3AB
:1062000003CC03C5083E042E07D301CC01C5361FBD
:1062100003E021782970641C6D1C761EF9D270BDD4
:1062200003210C4802680A4302600B4802680A43D3
:1062300002600A4880470A480047FEE7FEE7FEE79B
:10624000FEE7FEE7FEE7000006480749054A074B60
:10625000704700002405004054050040258B0100D4
:10626000C1600100102F0020103F0020102F0020DF
:10627000034610B50B439B070FD1042A0DD308C862
:1062800010C9121FA342F8D018BA21BA884201D906
:10629000012010BD0020C04310BD002A03D0D30749
:1062A00003D0521C07E0002010BD03780C78401C7E
:1062B000491C1B1B07D103780C78401C491C1B1B75
:1062C00001D1921EF1D1184610BDF8B5042A2CD385
:1062D000830712D00B78491C0370401C521E8307A1
:1062E0000BD00B78491C0370401C521E830704D04E
:1062F0000B78491C0370401C521E8B079B0F05D066
:10630000C91ADF002023DE1B08C90AE0FFF76CFF73
:10631000F8BD1D4608C9FD401C46B4402C4310C0C2
:10632000121F042AF5D2F308C91A521EF0D40B78B2
:10633000491C0370401C521EEAD40B78491C0370A0
:10634000401C521EE4D409780170F8BD01E004C07D
:10635000091F0429FBD28B0701D50280801CC907C5
:1063600000D00270704700290BD0C30702D0027022
:10637000401C491E022904D3830702D50280801CD9
:10638000891EE3E70022EEE70022DFE70378C27808
:106390001946437812061B0219438378C0781B0400
:1063A000194311430902090A0006084370470022F5
:1063B00003098B422CD3030A8B4211D300239C4642
:1063C0004EE003460B433CD4002243088B4231D3BA
:1063D00003098B421CD3030A8B4201D394463FE04E
:1063E000C3098B4201D3CB01C01A524183098B42AE
:1063F00001D38B01C01A524143098B4201D34B0197
:10640000C01A524103098B4201D30B01C01A5241F9
:10641000C3088B4201D3CB00C01A524183088B4280
:1064200001D38B00C01A524143088B4201D34B0069
:10643000C01A5241411A00D20146524110467047DB
:106440005DE0CA0F00D04942031000D340425340E0
:1064500000229C4603098B422DD3030A8B4212D3A0
:10646000FC22890112BA030A8B420CD389019211D2
:106470008B4208D3890192118B4204D389013AD00F
:10648000921100E08909C3098B4201D3CB01C01AE4
:10649000524183098B4201D38B01C01A52414309F7
:1064A0008B4201D34B01C01A524103098B4201D3E5
:1064B0000B01C01A5241C3088B4201D3CB00C01A52
:1064C000524183088B4201D38B00C01A5241D9D26A
:1064D00043088B4201D34B00C01A5241411A00D2EB
:1064E0000146634652415B10104601D34042002BE7
:1064F00000D54942704763465B1000D3404201B566
:106500000020C046C04602BD70477047704700007B
:10651000F0B50C46871A9C410D46861A9D4103D260
:10652000C01BA141D21963410D0D1F0DC64EEC1BBE
:10653000AE435BD07F057F0D0026002F50D02D0588
:10654000AC46A943DD020123ED0A1B051D432023B0
:106550001B1B23D41746E740381871412F46E740EC
:10656000CC199D402818314661410C0D26D161445B
:106570009A4012D50023401C594152000DD14008C9
:106580004000B24A4B00934207D305204007081849
:1065900001D5511000E0AE493046F0BD6B00002A35
:1065A00000D001229A18203C1F231B1B01D5002379
:1065B00002E0E540281871410C0DD8D001242405D3
:1065C0000919C407CD0740084908E40F284361446E
:1065D000002CD6D00024401C61419A40D1D1CEE796
:1065E0006A05520DD9D1C90FC907D5E7974D4E009D
:1065F000002801D0012400E0002434195F00002AA3
:1066000001D0012600E00026BE19924FAC420BD803
:10661000AE4209D8B44205D0BD00AC42BDD0104650
:106620001946F0BD9942FCD000203946F0BDF0B5C6
:106630001FB40C460F46811A9F412546861A9D417C
:1066400006D20125ED076F40401ABC4152187B412C
:10665000210D1E0D8D1BAC467B4D8D437ED07505E7
:106660006D0D7CD00D05AE46AC431B031B0B7A4D64
:1066700052429D41202366469B1B14D31746F74088
:10668000381800260090744160462F460741E419EF
:1066900000989D402818664116D4714671189A409A
:1066A00025D5012320E093182A466A415200002B89
:1066B00000D0521C203E1E239B1B002B61DD354168
:1066C000EE1728186641E8D5001876415B1C9A4001
:1066D00000D3401C4B05F3181524E34010D3002BC6
:1066E00052D071467118D30FC01802D3491C05B09F
:1066F000F0BD0123DB079A42F9D140084000F6E7DC
:1067000001225205B21801D1002853D00123CC0A2E
:10671000DB029943891E002A08D1020C03D0020C27
:106720000004103902E00246002020390023550BF6
:1067300005D112020823550B01D152010D23550C2E
:1067400001D112011B1DD50C01D192009B1C150D0E
:1067500001D152005B1C2025EE1A01E02CE022E062
:106760000546F54015439840CA1AE1076918130514
:10677000C918002ABBDA032040070818C10FC9074F
:106780000FE071466118B2E7F10740080843711045
:1067900071444A000CD001235B059A42A7D2C90F6D
:1067A000C9070020A3E74905490D25D1002001E0D4
:1067B0000028F4D100219AE7244D6600002801D07A
:1067C000012100E0002171185F00002A01D001269C
:1067D00000E00026BE191F4FA9420FD8AE420DD8C7
:1067E000B14207D0BD00A94206D01946A8024140D7
:1067F00010467CE79C4201D0214678E700203946CC
:1068000075E730B40C465C4004D50124E4076340CE
:1068100030BC0CE730BC7BE630B40C465C4004D5A1
:106820000124E407634030BC72E630BCFFE630B4BC
:106830000124E40761400D465D4001D430BC67E6A9
:10684000634030BCF3E60000FF0700000000E0FFFB
:106850000000F07F0000F87F0000F0FFF0B51FB4EB
:10686000FA4F0E091D09BC463E403D400C46B74359
:106870005C408CB0002F7DD06746AF43FBD0002D2D
:1068800079D0002EFCD0E20F3243521BFF24A40427
:1068900012190892420DCD02C7020E981543420DFF
:1068A000D9021143C202600305430143080C01955C
:1068B000150CAC4605040B46AB430A9565462D0402
:1068C000AA430995E24D040A7D446419803C257869
:1068D00006466E4301247619E405A61B7543ED0CAC
:1068E000AD1C490B69434919A401611A0E0CB64647
:1068F0003604B143694376466E43090C7118890921
:106900000591F90700D0A100049101997F08CC07F7
:1069100027434C08059DE10B4D432D0C2946664647
:10692000754302950D4645432E46029D7D1BB4419D
:1069300000950D465D4301942C0C2F040D465543E4
:10694000AE462D0C3D43029503947546049C2D04E0
:10695000641B049406D2029C039D641C00267541AE
:106960000395029401AC70CC009F7D1BB4410904D7
:10697000009501E03BE15FE1079101940599A408CE
:106980006143090C0C464443650BE70464464C43E1
:10699000A646640B3C43039502947446049DE404AC
:1069A0002C1B049406D2029C039D641C0026754196
:1069B0000395029401AC70CC009F7D1BB4410194FF
:1069C0000C465C430095650FE7000C465443A64611
:1069D000640F3C43039502947446049DE4002C1B11
:1069E000049406D2029C039D641C00267541039505
:1069F000029401AC70CC009F7D1BB441AE09AF0680
:106A0000049DC900AD092F43049DA406AD0604955D
:106A1000079D344369180791059DE10B4D432D0CEB
:106A200029466646754302950D4645432E46029D0E
:106A30007D1BB44100950D465D4301942C0C2F0441
:106A40000D465543AE462D0C3D43029503947546C5
:106A5000049C2D04641B049406D2029C039D641CB8
:106A6000002675410395029401AC70CC009F7D1BFC
:106A7000B44101948C050694079C890A611800951D
:106A80000791019C0599A4086143090C0D464543F3
:106A9000680BEF040D46644665436C0B3C43049F52
:106AA000ED047D1BAC4602D20025641C6841009EAB
:106AB000019D371B85410846584301950C46460FFA
:106AC000C5005443600F28436546E4002C1B02D2E6
:106AD0000025401C6E41019D3F1AB5412846BD0965
:106AE000800628438446A009BF064E020699A406E4
:106AF00076180743079D002068410A9907901943BB
:106B00000020099B00906046FF1913434041E20FAB
:106B100064003A43A4460446D71A8C41A04203D9E4
:106B20000120009020463A46C70F94184041624623
:106B3000D20F2243644664000494009CBE46640065
:106B4000D71AA446044602978C417746002F01D1FC
:106B5000A04204D96046401C8446029A2046C40FD5
:106B6000A64694184041049A0546D20F2243644633
:106B70006400D31A8D417146002901D1A84202D97F
:106B8000641C28461A4610430122002800D01643F0
:106B900061020020079B044689195C410223002CF6
:106BA00002DB491813466441089DCE0A2D145D1975
:106BB0004B056705E10A2C050C1908993E43C907E6
:106BC0006140002B08D0934006D30022761C51412F
:106BD000002B01D1760876001E4A002C45DB2346A7
:106BE000134242D0A24340D0304611B0F0BD0E4611
:106BF00007184E41184D7A42B5411AD30E9A1D46D8
:106C000096185D41144A7642AA4112D301225205D8
:106C10004D00D5420AD15C00D4420AD04B4002D587
:106C200092021143E1E749004908DEE7E10FC90795
:106C30000AE000200949D8E70648014212D0084876
:106C400021460143C01241400020CEE70000FF076B
:106C5000546300000000F07F0000E0FF0000F87FB8
:106C6000FFFFFF7F0342E4D0E0E70123089A9B0681
:106C70009A4205DC032252078918C90FC907B4E7F5
:106C8000052252078918074A1143D2125140ACE736
:106C90005940504010B54B40424059405040FFF7DA
:106CA000DDFD10BDFFFFFF7FCB02420D10B51A4383
:106CB0000B1504D00124E4072243002B06DB0A4C09
:106CC000E31A05D41046D840FF2B00DD002010BD8C
:106CD0004A00002800D001201018044A9042F5D83C
:106CE000C817C04310BD00001E0400000000E0FFF4
:106CF0001F22030C02D10F22000402D0030E03D086
:106D000004E0002001467047083A0002030F01D159
:106D1000121F0001830F01D1921E8000002801DBA9
:106D2000521E4000120551184205C012411810466B
:106D30007047C10FC90700D040420122920711439A
:106D4000D6E701218907D3E7F0B5904C0D09264617
:106D5000AC46AE430D465D4087B0002E7ED01E0986
:106D60002746B743FAD067462740ED0F3D432640FC
:106D700075D024012142FBD07419FF25AD04641B9A
:106D80000494CC02D90201231B05C90A1943E40A61
:106D90001C430F012401030F110F1C430F43050176
:106DA000A10B88032D0916018443A80B8203954388
:106DB000BB0B9A0397433609BC46B20B9703BE43FD
:106DC0000746574303972F4677430296BE46029FD6
:106DD0004619D71906967E430597039FF71B7646FB
:106DE000BE1B77463F0100970196039FB60BF6192D
:106DF000B646019E009FB604BF1902D37646761CA4
:106E0000B64676467600002F01D001273E436746FE
:106E10007D43AE46029F25467D4300956D00AE1929
:106E200075466D00AF1965465D19069E03956E4364
:106E30007546751BAE460D19059E02956E43009D65
:106E40005843761B75462D1A4A439646B21A00924D
:106E50000195FA0606D07D09012201E076E072E094
:106E6000154300E07D09020A0006002745197A4112
:106E70007646300A360676195041019A950D9202EF
:106E8000961945410098820D800280196A41594344
:106E900063465C43039D029B6B435B1A1E1BB30E50
:106EA000B601B6187B410A0B090589195A41230A14
:106EB000240624184B418B4200D2521C0120400270
:106EC000824203D315210226F64302E01421032651
:106ED000F6432020451AAA401F46AF40CB4020462B
:106EE000C840049913430914711809055A180499E4
:106EF0003843C9075140AC4009D001239C4006D318
:106F00000023401C5941002C01D140084000204B77
:106F1000002A03DB1A4201D08B4312D101220498CC
:106F20009206904207DB05204007091819480143E3
:106F3000C012414004E0032040070818C10FC907F0
:106F4000002007B0F0BD0020E907FAE706180C465C
:106F50004C4111487642A04114D394181A465A4124
:106F60000D48644290410DD3012049004005814203
:106F700008D35900814205D3E90F054AC90700200B
:106F80001143DEE700200549DBE700000000FF07B2
:106F90000000F07FFFFFFF7F0000E0FF0000F87FB0
:106FA00070B506464800440D114B0020002C0AD055
:106FB000634008D09A4206DA6542AA4203DD120510
:106FC0008019514170BDCD0FED07002C05D0002B6D
:106FD00005D0002A01DB07490D43294670BD304624
:106FE0000A03104302D00020034970BD304670BD33
:106FF000FF0700000000F07F0000F87F10B500F0F0
:10700000D3F8006810BD10B5044600F0CDF8046058
:1070100010BD0000F8B5224C4E00069DA6420AD8CD
:10702000A64201D1002806D15E00A64203D8A6429E
:107030000AD1002A08D00D24240425422CD0294648
:10704000002000F0B5F8F8BD0C461C430CD4994262
:1070500002D0EFF30080F8BD904202D0EFF3008041
:10706000F8BDEFF30080F8BD09242407E5008B424A
:1070700006D0EFF30080A043591A06D2284304E05B
:10708000101A05D3EFF30080A04380F30088F8BD09
:10709000EFF30080A043F1E7009500F0A1F8F8BD00
:1070A0000000E0FFF0B502463D4C080313460D46D4
:1070B000034325400020002D63D03A4D8C4365D01A
:1070C000002969DB0B0D1D05A94301252D05294369
:1070D000FD330124E34001D392184941FF3381334A
:1070E0009C468B02940D0121234389074C42920256
:1070F00000271B198C105D1A04D42D1B02D42B46BB
:107100006500491992185B416408F4D15C1A08D4EF
:107110000125ED07EE175519744102D42A4623467E
:10712000491C94185B41012292071D46E61B8D41C4
:1071300006D4B61A854103D42B46550034467F1930
:1071400024195B415208802AEFD1234300D0022347
:1071500038460A22D04001D3012213438A05104346
:107160006246890A12058918002B09D00122D340F2
:1071700002D30022401C5141002B01D140084000A5
:10718000F0BD002B06D0C90FC907F0BD002B03D1FD
:10719000002901DB1046F0BD00202946F0BD0000AB
:1071A0000000F07F0000F87F00487047AC2E002000
:1071B000CA0210D54A03520F04D0C803C0430121AC
:1071C00088407047054AEFF3008108010009104329
:1071D00080F30088704700207047000000000030F6
:1071E00010B500200249029A00F02DF810BD0000F1
:1071F0000000F87F00487047AC2E00207546FFF76E
:10720000F9FFAE46050069465346C008C0008546F2
:1072100018B020B5FFF718F860BC00274908B6463B
:107220000026C0C5C0C5C0C5C0C5C0C5C0C5C0C595
:10723000C0C5403D49008D4670470446C046C04623
:107240002046FEF78AFF10B50C461107090F0929E1
:1072500004D00A290AD008290CD104E011460820DC
:10726000FFF7A6FF06E0510606D501E0510601D55D
:107270000120C007214610BDD10607D5010109092B
:10728000CC084907000E0006044309E0410F200224
:107290004907000A0143200E00061D22D141014387
:1072A0000846E7E701491820ABBEFEE726000200CA
:1072B00070470000F8B5642416490125CD631649CE
:1072C0008D600002154E0A3070603560144F3D60CD
:1072D0002846FEF779FF06E00120FEF775FF641EE1
:1072E0002404240C0FD00F4800680028F4D1B068A3
:1072F000002131607D60074AD16312214843052196
:10730000FFF755F8F8BD002030607D600149C86383
:10731000F8BD0000C07F00400073004000750040D1
:107320000070004000740040F0B50546002087B0B2
:10733000074604900290284620300090007B2C469F
:10734000803401287ED1E08900287BD070483C2120
:107350000068FFF72CF82D214901FFF728F8009865
:10736000807F05E0C2005219403252888A4203D918
:10737000401E40B20028F5DCC0004019A68940300C
:107380000190C0880590864208D3687FC7210840D5
:10739000083068770127384627700BE0019880880D
:1073A00086420AD8687FC7210840103068770127D5
:1073B00027700220607066804EE00098807D012872
:1073C00021D10A20205E0390298F48436421FEF7D3
:1073D000F8FF301800B2002800DA00200599814239
:1073E00011DC687FC72108401830687701272770B3
:1073F0000320607001986421C088801B4843039972
:10740000FEF7DFFF60800098807E012824D10A20EB
:10741000205E0390A98F48436421FEF7D2FF301805
:1074200000B2002800DA002001998988814213DB2C
:10743000687FC72108402030687701272770042023
:10744000607000E052E0019864218088801B48430E
:107450000399FEF7B6FF60800098807B002811D06A
:107460000A20205E00280DDDA98E81420ADA697F9C
:107470008906890E40316977012102912171052128
:107480006171E0800098807C002812D00A20205E84
:1074900000280EDAA98E404281420ADA697F890605
:1074A000890E803169770121029121710621617174
:1074B000E080002F07D1687FC7210840687700204F
:1074C0002070607060800298002807D1687F800675
:1074D000800E6877002020716071E0800298074379
:1074E00013D1687F0421084368770EE0687FC721C5
:1074F00008408006800EFB2108406877002020703D
:107500006070608020716071E080049807B0F0BD09
:10751000E8200020F8B50020694608702249486834
:10752000C005C00D14D0103807D50207120F083A55
:10753000920892005118C96904E081081B4A890029
:10754000891809688007C00EC1400806860F00E050
:107550000426012E09D068462EDF022822D00028FA
:1075600003D013A2422101F0BDFD0127174DBC033A
:10757000EC600A2003F09EFEAC607D20C00003F0AA
:1075800099FE002FF4D1012E0BD062B66846007828
:107590002FDF022805D0002803D005A25A2101F0D0
:1075A000A1FDF8BD72B6E0E700ED00E000E400E008
:1075B0002E2E5C4D65647472756D7573655C4170DB
:1075C000704173736572742E6300000000050050F3
:1075D00010B50F4A01210F4801F0AAFE002804D07F
:1075E000FF210DA2323101F07DFD0A4C0521241F3F
:1075F00000220904606801F01BFF002804D0FF216D
:1076000005A2363101F06EFD0020206010BD0000A3
:10761000717E0100F02000202E2E5C4D6564747296
:10762000756D7573655C41707042726F6164636102
:1076300073742E630000000010B50248C08901F089
:10764000E1FA10BD702C0020F0B50023154E1F4646
:10765000002001467A0008E04D00B45A755BAC4248
:1076600001D3401CC0B2491CC9B2B942F4D37F1C3B
:10767000F9B208E04D00B45A755BAC4201D9401C28
:10768000C0B2491CC9B20829F4D3801E042801D213
:10769000B05AC318FFB2082FDAD39B1C9803000C12
:1076A000F0BD0000922E002070B500283CD01F498C
:1076B000884200D90846FFF744FB1D4C1D4D224669
:1076C0002B46FFF741FB1C4A1C4BFFF73DFB0222F8
:1076D000FFF766FC00221A4BFFF7C0F802460B4684
:1076E00018481949FFF798F804F064FF22462B4622
:1076F000FFF79DF80022D243FFF752FC0022134B04
:10770000FFF722FB124A134BFFF7A8F804460D4679
:107710000022114B05F0F4F901D2104D002420464F
:107720002946FFF7C1FA80B270BD00003075000035
:1077300061969403E2AD9B4014AE47E17A14DE3FBC
:1077400000005E40F1C60D401EF147410000594067
:107750001CEBE2361AC0EF3F007CB54000E0B540BC
:10776000FEB5044600200190267FA5893007FB273F
:1077700000283BDA208B001D854237D3F7200640D6
:107780002677607FC00703D1E08A0090272803D2C4
:1077900010200643DF2015E0208C7D21C9004843DE
:1077A0000099FEF704FE1849884208D8208C7D21F4
:1077B000C90048430099FEF7FAFDDE2809D22020CF
:1077C0000643EF200640F72006403E4026772583FB
:1077D0000CE0208C7D21C90048430099FEF7E7FDAD
:1077E0008E210853C72006403E402677608BA84272
:1077F00005D8F0B204210843CF21084001E0F0B2DF
:10780000384020770198FEBD41360000F8B5164C8F
:10781000164E60680025002804D0012813D00228E5
:1078200020D110E03560124800698006C00F09D1F0
:1078300001206060032000F0D6FF042003F03AFD31
:1078400000F0C6FFF8BD022737604020FFF732FD89
:10785000356005214902884204D839028842E7D3BD
:107860006760F8BD6560F8BDDC200020140700509B
:10787000000500503EB510480E4C057801AA02A93B
:10788000002002F04FF80428F8D0002811D16946F2
:1078900088886D1E801E888001A80090AAB220787A
:1078A000611C029B03F0A8FE69468988029802F0D9
:1078B00025F83EBD882D0020AD20002038B500F011
:1078C000EBFE092109031B4800F08AF81A4C010A53
:1078D000217060700025234610330222214628467D
:1078E000009504F043FD002803D014A2BE2101F04E
:1078F000F9FB012003F0DEFC05214903154800F0E7
:107900006FF8010A217060700B4B022210330A4994
:107910000020009504F02AFD002803D007A2D12101
:1079200001F0E0FB012003F0C5FC002004F06EFB39
:1079300038BD0000C3060000C92D00202E2E5C4D6E
:1079400065647472756D7573655C6170705F4441D8
:107950002E630000AC04000008B500F09DFE072176
:107960004903002000F03CF80B49020A0A704870F5
:1079700000200B4610330222009004F0F7FC002890
:1079800003D006A2F62101F0ADFB012003F092FC2A
:10799000002004F03BFB08BDC92D00202E2E5C4DBD
:1079A00065647472756D7573655C6170705F444178
:1079B0002E63000010B506490028886004D0012815
:1079C00001D101F06DF810BD01F03CF810BD0000D0
:1079D000C02000200148C06870470000DC20002063
:1079E00010B50C4680020649FEF7E1FC0121401C5F
:1079F0008902884200D3481E8000204380B210BD17
:107A0000C409000070B50E4A01210E4801F090FC37
:107A1000050003D00CA2144901F064FB09490024BD
:107A2000091FCC6011480C61848184608C6001F076
:107A3000DFF80F480460FFF78FFF284670BD000095
:107A400055880100C42000202E2E5C4D65647472A0
:107A5000756D7573655C4170704D656173757265A8
:107A600043676D732E630000F6030000EC2D0020C9
:107A700000250040F8B55E4C206802265D4D0028C8
:107A800008D101F05DF920602068002802D0687FED
:107A900030436877684600F003F9564CA634002856
:107AA0000AD168460388002041000A195288401C08
:107AB00062520728F8DBE381A8680521401CA86012
:107AC000FEF775FC00297DD10027FFF7BDFD0022E0
:107AD000430848495400A631095B4C08844207D842
:107AE0004B246401A14203D2994201D30D2900D253
:107AF0000146521C7F18D2B2082AEAD3052040035F
:107B00004743AC683F0C05212046FEF750FCA88196
:107B10003848FF212D310322203080238C4203D9A5
:107B20008272287F184306E08C4206D18272287F39
:107B3000042118430843287707E00A2C01D38672F2
:107B400003E0052C01D30121817238462A491838F7
:107B50008842687F0BD3012108436877E98B491C71
:107B600089B2E9830F2907D93043687704E04008D8
:107B7000400068770020E883384600F051F91D483E
:107B8000FFF7EEFD698C288C420080184018A98C04
:107B9000411AE88C174C42008018081AC10F0818C7
:107BA000401006B280342681E18900290FD0288C4C
:107BB0007D22D2005043FEF7FAFBA0810E21615EC8
:107BC0000E4800E012E07043FEF7FBFB608100F01E
:107BD000A9F90B480B49C089884204D000210A4A00
:107BE000084601F0EBFA0348FFF79EFBF8BD0000E2
:107BF000A8200020EC2D0020C92E00001027000036
:107C0000702C0020FFFF0000A97D010070B5002648
:107C100000F030FE20498C28087103D2087F4022F2
:107C2000104308771D4C0025A168002906D00129C2
:107C300014D0022900D00526304670BD03F020F98B
:107C4000002809D0E068401CE0600528F4D301203A
:107C5000FFF7B0FE2561EFE7E560EDE703F010F90F
:107C600000280ED02561E068401CE0600C28E3D8B5
:107C7000102003F09BFBE0680C28DDD100F0A8FD8C
:107C8000DAE72069401C20610528D5D300F0A0FD6B
:107C90000020FFF78FFEDFE7EC2D0020C020002042
:107CA000F8B507460B241C2003F070FB152003F0E9
:107CB0007DFB184D0020287000F09AFF0120164926
:107CC0000007C8602E4614360BE031180A2004F075
:107CD000D7F800280FD01C2003F068FB2878401C40
:107CE000287028780328F0D31C2003F04FFB30784D
:107CF0005A2802D008E00B24F6E77078000238809A
:107D0000B1784018388000240449002008602046DB
:107D1000F8BD0000C02000200005005000250040F4
:107D200010B5FFF773FF06480068002807D006204B
:107D300000F059FD042003F0BDFA00F049FD10BD2C
:107D4000A820002070B50F4A01210F4801F0F0FA79
:107D5000002803D00DA2952101F0C4F90A4D01219C
:107D6000083D0022C903A86801F062FB040003D0AB
:107D700006A2992101F0B6F90020E860287020469B
:107D800070BD0000FD890100E42000202E2E5C4D16
:107D900065647472756D7573655C4170705365636D
:107DA0005469636B2E63000010B505480549C0890E
:107DB000884203D00449024801F042FC10BD000093
:107DC000702C0020FFFF00007C2E00201CB501203D
:107DD0008002694688800120C8800F4800900F49C2
:107DE000684603F07BFD002815D10C4908220023CA
:107DF000881A03F01FFD00280DD1084808380168D3
:107E0000002908D0002101600B464160014608228C
:107E1000083003F083FE1CBD998701000821002073
:107E200070B5124D04462880FFF73EFC2B46B63B4A
:107E30009989012910D004214A005619203EF68B59
:107E4000AE52D218D68B1684491E0029F4DC2C8041
:107E50004900C918088470BD04214A00AC52D218E8
:107E60001084491E0029F8DCF1E70000A22E002052
:107E700010B505480068002804D10021034A0846CF
:107E800001F09CF910BD0000EC20002039760100C3
:107E9000F3B5234D0446014681B00026286804F05E
:107EA00044FDA5212154401CC0B26921215429461A
:107EB00020318A7A497B401C8900C0B20A4322548F
:107EC000401CC7B2E119A88B04F007FDC019C0B26D
:107ED00029792154401CC7B2E119A88904F0FDFC9E
:107EE000C019C7B2E119E88904F0F7FCC019C7B29C
:107EF000E119288C04F0F1FCC019094FC5B2803794
:107F00006119388904F0E9FC4019C5B26119F88992
:107F100004F0E3FC0299401908703046FEBD0000F1
:107F2000EC2D0020F8B52148204D817A407B70353A
:107F3000800001436970A91C0E46923EB08B04F08C
:107F4000C7FC401CC0B22A183179401C5170C4B221
:107F50002919491CB08904F0BBFC0019C4B22919C5
:107F6000491CF08904F0B4FC0019C7B20024600079
:107F7000E9198019491C008C04F0AAFCC019641C82
:107F8000E4B2C7B2042CF2D3084EE9196036491C9A
:107F9000308904F09DFCC019C4B22919491C3089EC
:107FA00004F096FC00192870F8BD00000C2E00208B
:107FB000F0B585B004461E4600206B46039018704D
:107FC00082203070402070704878097800020843A1
:107FD0000290062A01D1272809D2B11C012004F001
:107FE00081FC0A99801C0880012005B0F0BDB11CFD
:107FF000002004F077FC801C0190257FE80601D466
:10800000A80604D5F32005402577122018E0E809DA
:1080100012D0607F0227C007002814D00420074335
:10802000F720054010200543DB2005402577A08977
:1080300008306083303726E0F7200540257722207E
:108040006946087031E0208C7D21C90048430299BF
:10805000FEF7ADF91F49884208D8208C7D21C90060
:1080600048430299FEF7A3F9DE280FD20820074300
:10807000E720054020200543FB2005402577A08907
:108080001E3060834037684607700EE00120694665
:10809000087008200543FB2005402577A089208330
:1080A0000299FF30E1826930608368460199007867
:1080B0007054019D6D1C002802D07119002002E04F
:1080C00080347119E08904F00DFC0A994019088088
:1080D00003988AE74136000010B590210648FEF764
:1080E00053F90548542205492C30FEF7EEF80448B0
:1080F0000149C06B086010BDEC2D0020CCCB010005
:10810000C0100010F8B505460020009083201870BC
:10811000412058701C46991C002004F0E3FB801C91
:1081200069212154294620318A7A497B401C8900E3
:108130000A43461C2254A119A88B04F0D3FB8619CC
:108140002879A055761CA119E88904F0CBFB861983
:10815000A119A88904F0C6FB86190027A119288C4B
:1081600004F0C0FB80197F1CFFB286B2042FF5D348
:108170008820A119405B04F0B5FB801986B2A119D3
:10818000A88A04F0AFFB801986B20848A1190068DC
:1081900004F0D4FB801986B2A119286904F0CEFB43
:1081A0000699801908800098F8BD0000E82000209A
:1081B000F8B506460020044600908C201870562022
:1081C00058701D46991C002004F08CFB801C002276
:1081D0009100891980310978012901D1641CE4B228
:1081E000521CD2B2022AF3D32C54401C0024A1000A
:1081F000891980310A78012A0AD14A782A54401C08
:1082000087B2EA194888114604F06CFBC01980B2A5
:10821000641CE4B2022CEAD3069908800098F8BDE9
:10822000FFB583B0002001908B2018705520587046
:108230001C46991C002004F055FB039D801C203532
:10824000697B2154401C297B2154401CA97B21546B
:10825000461C0398A119008E04F044FB8619A87CE3
:10826000A0550398761CA119808E04F03BFB86195B
:10827000A87DA0550398761CA119008F04F032FB4D
:10828000801980B2A97E2154401C86B20398A1199E
:10829000808F04F027FB801980B2A97F2154401CF5
:1082A00087B200261AE00398F200101840300090C0
:1082B000E119408804F016FBC01987B20098E11953
:1082C000808804F00FFBC01987B20098E119C088BC
:1082D00004F008FBC019761C87B2F6B2A87FB04242
:1082E000E1D80C980780019807B0F0BDFFB599B0B0
:1082F0000C460146002215922C31542268461791F3
:10830000FDF772FF1C988A2101701C98542141705E
:1083100002201690207869464870C01E3D2801D37F
:108320000120159066780225B00601D10120159034
:10833000F00702D0A07808700325B00708D5605D6B
:1083400088706D1C601904F0B9FA69468880AD1C0C
:10835000700708D5605D88716D1C601904F0AEFA75
:1083600069460881AD1C300708D5605D88726D1CB8
:10837000601904F0A3FA69468881AD1CF00608D59F
:10838000605D88736D1C601904F098FA6946088274
:10839000AD1CB00626D5605D6D1C8874082802D916
:1083A0000120159026E0002618E0F2006946012021
:1083B00057183875601904F081FAAD1CF882ADB217
:1083C000601904F07BFAAD1C3883ADB2601904F07B
:1083D00075FAAD1C761C7883ADB2F6B26846807C27
:1083E000B042E2D81598002804D154226946179863
:1083F000FDF7FAFE16991C984118159804F072FAC8
:10840000169940182299088015981DB0F0BDF0B556
:108410000C4697B001462C311E46002554221C9F65
:1084200068461591FDF7E0FE88203070522070708C
:10843000207869464870C01E3D2800D30125607829
:108440008872A01C04F03AFA694688812079887302
:10845000601D04F033FA69460882002D03D15422CE
:108460001598FDF7C1FEB11C284604F03BFA801CAC
:108470003880284617B0F0BDFFB599B00D460146CB
:10848000002215922C31542268461791FDF7ACFE5C
:108490001C98862101701C98502141700220169072
:1084A000287869464870C01E3D2801D301201590E8
:1084B000687802278874082802D90120159026E0E0
:1084C000002418E0E2006946012056183075E819CA
:1084D00004F0F4F9BF1CF082BFB2E81904F0EEF921
:1084E000BF1C3083BFB2E81904F0E8F9BF1C641C5C
:1084F0007083BFB2E4B26846807CA042E2D815988F
:10850000002804D1542269461798FDF76DFE16998C
:108510001C984118159804F0E5F91699401822990D
:10852000088015981DB0F0BDF0B50C4697B0014617
:108530002C311E46002554221C9F68461591FDF7DC
:1085400053FE89203070532070702078694648703F
:10855000C01E3D2800D301256078800600D101258A
:10856000A0780870E07888702079887160798872C6
:10857000A0798873002D03D154221598FDF734FE9D
:10858000B11C284604F0AEF9801C3880284617B08C
:10859000F0BDF0B50C4697B001462C311E460025C3
:1085A00054221C9F68461591FDF71EFE87203070EF
:1085B00051207070207869464870C01E3D2800D355
:1085C000012560788870A01C04F078F969468880DD
:1085D00020798871601D04F071F969460881002DC9
:1085E00003D154221598FDF7FFFDB11C284604F075
:1085F00079F9801C3880284617B0F0BDFEB50546D5
:10860000002001908D201870572058704F1C1C4678
:108610000E783846FDF7BAFEF9780002000A09061E
:1086200008430121C9070090884218D8022E16D8A5
:10863000002E14D0A11C002004F054F9871C0898C7
:108640000780287F8007800FB04211D9E1190220EE
:1086500004F048F90899C01908800220FEBDA11C49
:10866000012004F03FF90899801C08800120FEBD1C
:10867000FFF7B0F90099074A081A1160296908182C
:108680002861287FB10780088000890F0843287778
:108690000198FEBDE820002010B588B01C221049CA
:1086A0006846FDF7A1FD0020694608761320019079
:1086B0000020C04302901220039014200490002058
:1086C00003F066FD040003D006A26F2100F00AFD4E
:1086D0000A49002003F0FAFC204608B010BD000053
:1086E000B0CB01002E2E5C4D65647472756D757390
:1086F000655C6170705F44412E630000B1C0010091
:10870000F8B51F4805691F490020C863064631E0D7
:108710001421426871438C1801218068B1400142E4
:1087200026D0E068C74320686F400740394620469E
:1087300003F05EFA1248006968400CD00543E06817
:108740002168C0436840084001460090204603F07D
:108750004FFA009807433846A168A84301402A46CB
:1087600060683A40104002460A4301D022699047AF
:10877000761CF6B2044841788E42C9D3F8BD000099
:10878000000500504061004098200020014880888A
:1087900080B2704700210020704700000B4910B5DF
:1087A00008220023881A03F045F800280CD1074856
:1087B00000210838016041680023491C41600146DE
:1087C0000822083003F0AAF910BD0000082100209B
:1087D00010B50E2002F0E2FD102002F0DFFD0F20A8
:1087E00002F0DCFD10BD10B5030000F0C5FA072F44
:1087F000050C10141B252F000E2002F0CFFD1020B9
:1088000002F0B4FD14E00E2002F0C8FD0DE00E20D1
:1088100002F0C4FD02E00E2002F0A8FD102002F0DC
:10882000A5FD0FE00E2002F0A1FD102002F0B6FD24
:108830000F2002F09BFD10BD0E2002F097FD1020CE
:1088400002F0ACFD0F2002F0A9FD10BD0E2002F0D9
:10885000A5FDF4E71CB5FFF7BDF8009002F010FB92
:1088600069460871024A0821684600F0A7FC1CBD51
:10887000757A010010B50420FEF71CFD8100401838
:108880008004000E10BD00008307FF22DB0E9A401B
:108890008907090E994000280BDA0007000F0838F5
:1088A000830808489B001818C36993430B43C361AE
:1088B0007047830804489B001818036893430B43D0
:1088C0000360704700ED00E000E400E010B50649E9
:1088D0000020086048608860C8600349403908602B
:1088E000486003F097FF10BD4011014010B5094CDE
:1088F00003202060182002F049FD012006490006EF
:10890000C860012002F0D6FC182002F03FFD0C20C8
:10891000206010BD600700500005005010B50848E9
:10892000816801290AD107494968490706D500210C
:108930008160084603F0EEFB03F09AFD10BD0000D5
:108940000031004000330040FEB50020C0430090DD
:108950000E484669056901A802F0BEF8074602F014
:10896000CFFA0446002F05D06A463146019802F03E
:1089700033F90124009802F00DFB002801D1002CEE
:1089800002D0284601F0CAF9FEBD00007420002084
:10899000044901220878504008704968002900D035
:1089A000084770470420002010B508484068002898
:1089B00008D08047002804D0FF2105A2333100F001
:1089C00091FB10BD02F006FA10BD00003C20002013
:1089D0002E2E5C536F757263655C73645F636F6D9D
:1089E0006D6F6E5C736F66746465766963655F68EE
:1089F000616E646C65722E63000000001CB50E4A47
:108A0000D068401CD0601178491CC9B211703C2953
:108A100001D300211170009002F032FA694608710A
:108A2000064A0821684600F0C9FB054A0821684645
:108A300000F0C4FB1CBD0000DC200020217D0100F3
:108A40000D78010010B5FEF787FF0A4C606800F052
:108A500031FD002803D008A20F4900F043FBFFF7C7
:108A600045FF00200D49E0608860888188832031BF
:108A7000887210BDC02000202E2E5C4D656474727B
:108A8000756D7573655C4170704D65617375726568
:108A900043676D732E6300006C040000EC2D002012
:108AA00010B5FEF70BFFFFF721FF124C0321002248
:108AB0008904606800F0BCFC002803D00EA21649AF
:108AC00000F010FB00201549E060154C0968216199
:108AD000FF211431A160A0813C216183A083FFF7B5
:108AE0005DFEFFF753FEE0810121204620308172B8
:108AF00010BD0000C02000202E2E5C4D65647472F5
:108B0000756D7573655C4170704D656173757265E7
:108B100043676D732E63000042040000E8200020CC
:108B2000EC2D002010B502F0C1F9002805D00E4947
:108B30000C4848600D48C91381610D48018CC9B2C9
:108B400001290ED1818C09070BD1018D0906090F6E
:108B5000042906D1808D0006000F02D105490120AD
:108B6000886010BDDFFF07C000050040006C0040BA
:108B7000C00F00F000060040FEB5194CA068194E69
:108B8000194D002700280ED0686840070BD5A76054
:108B9000164880690421C0B2B0800091694608710E
:108BA000316968468847E069002806D06868000691
:108BB00003D5E761032002F0C3FC606A00280DD0F2
:108BC000686880050AD567620849803908680860C6
:108BD000022100910190316968468847FEBD00007E
:108BE00000210040602000200023004000250040BC
:108BF00008B50020192311221621009003F010F966
:108C000008BD000010B50E490024884216D10D4859
:108C1000006801280ED174DF002803D00AA2CF21FA
:108C200000F060FA00F0D2FD040003D006A2D121CA
:108C300000F058FA00F08CF900F0D4F9204610BD8D
:108C4000FFFF0000EC2000202E2E5C4D6564747246
:108C5000756D7573655C41707042726F61646361BC
:108C600073742E6300000000F8B5002064240090A7
:108C70002C4D0120E8632C4988602D4F2B497960E9
:108C800038602C490860FDF79FFA2B4E06E0012062
:108C9000FDF79AFA641E2404240C0FD030680028D3
:108CA000F5D1B868394600270F60224B01225A607F
:108CB000224BC018292809D3032027E003200021D4
:108CC00039601C4B01225A60E963F8BD18491A202B
:108CD00048600120086017490860FDF775FA06E052
:108CE0000120FDF771FA641E2404240C10D03068B2
:108CF0000028F5D10E4988680F600E4A01215160A5
:108D00000E498E394018292809D30220EF63F8BD97
:108D1000074903200F60074A01215160F6E7EF631E
:108D20000098F8BDC07F0040007300400A8000003A
:108D30000075004000700040007400404DFDFFFFD2
:108D400010B500241020FEF7B5FA0A494018C928CA
:108D500001D3042010BD2020FEF7ACFA0549633191
:108D60004018FF219031884201D2052010BD2046D5
:108D700010BD00009BFBFFFF30B47446641E2578D5
:108D8000641CAB4200D21D46635D5B00E31830BC3F
:108D9000184700001CB505490120C86004498860D7
:108DA000032000900969684688471CBD00200040E8
:108DB0006020002004480021816004480122C26034
:108DC000426003480160704760200020002000409E
:108DD00000250040F7B5044682B0002010702168DD
:108DE00015460746002905D02046039902F01BFAD4
:108DF00000287CD16179002920D02878039E001DAD
:108E00001F2801D90C2017E0684679DF002813D10C
:108E100028780321421C2A70315428781921421CD9
:108E20002A703154287881196846008803F04BFD78
:108E30002978401828703846002858D121890029FF
:108E400022D0E26801270398002A06D02B785A180E
:108E5000921C1F2A03D90C2014E0072012E05A1C90
:108E6000491C2A70C15429784A1C2A7047542B780F
:108E700022891818E168FDF728FA2878217A401825
:108E800028700020002861D12169002918D000270E
:108E90002A78CF57D11C03981F2901D90C200DE047
:108EA000511C02232970835429780A234A1C2A70F2
:108EB000435429784A1C2A7047540020002845D181
:108EC000A18A002909D020460095062202211430EB
:108ED000039B03F0B3FD002838D1A18B00290BD0F0
:108EE00007220321204600951C30039B00E02DE063
:108EF00003F0A4FD002829D1A18C002909D0204627
:108F00000095152214212430039B03F097FD0028BF
:108F10001CD1E36A002B06D02A461846039900F0BC
:108F20004FFF002812D1236B002B06D02A4618468B
:108F3000039902F047F9002808D13821095D00297A
:108F400004D02A462046039902F076FE05B0F0BD13
:108F500030B59DB0062010A9087213A914A8FEF719
:108F600097FF18486946888710A9087B088014A8CD
:108F700011903C216846FDF707FA0220009000247A
:108F800069464C7101250D8112A803900FA80C9021
:108F90002146684600F0BCFA002804D0FF210AA24E
:108FA000743100F09FF814210D48FDF7EDF90C48DD
:108FB000FF210470446004724131018245821DB07A
:108FC00030BD0000814700002E2E5C4D6564747238
:108FD000756D7573655C6D61696E2E6300000000D0
:108FE0005C2C002038B5684602F06AFB002803D0EC
:108FF0000BA2114900F076F800980124002802D055
:109000000E48047038BD0E4873DF002804D00A49AA
:1090100003A20A3100F066F80A48046038BD000077
:109020002E2E5C4D65647472756D7573655C6D6133
:10903000696E2E630000000025020000A4200020BD
:109040005C2C0020EC20002010B50449044A086084
:1090500002480121001D00F06BF910BDF420002032
:10906000C5900100F8B5044640691D4617460E46F6
:10907000002801D01120F8BD002E18D0002D16D0E8
:1090800068462EDF6760266006986081258121464C
:10909000084801F041FD074800220838016840688F
:1090A00000F0C6F9684600782FDF0020F8BD0720E1
:1090B000F8BD0000FC20002010B51821FDF764F970
:1090C000002010BD10B5064801F039FD04480838ED
:1090D0008168002902D1406800F0ECF910BD000061
:1090E000FC20002038B50020694608701D494868FA
:1090F000C005C00D14D0103807D50207120F083A6A
:10910000920892005118C96904E08108164A890042
:10911000891809688007C00EC1400806840F00E066
:109120000424012C09D068462EDF022817D000281D
:1091300003D00EA2B021FFF7D5FF01200028FDD1FA
:10914000012C0BD062B6684600782FDF022805D0CC
:10915000002803D005A2C121FFF7C4FF38BD72B6B5
:10916000EBE7000000ED00E000E400E02E2E5C4D97
:1091700065647472756D7573655C6D61696E2E637F
:1091800000000000014B1B68184700002C22002043
:1091900038B50246074814230178074C594308188C
:1091A000C36801791B01E458C388009343690C30FC
:1091B000A04738BD64220020F8230020F7B5364EC2
:1091C00082B070880D46814264D8002069460870DC
:1091D0003349324C4868C005C00D14D0103807D54B
:1091E0000207120F083A920892005118C96904E068
:1091F00081082C4A8900891809688007C00EC1407F
:109200000806870F00E00427012F09D068462EDFEB
:10921000022835D0002803D023A25921FFF762FF8E
:10922000707802F035F83178884204D0747870781C
:1092300002F02EF87070012F0BD062B668460078ED
:109240002FDF022805D0002803D017A26121FFF7E5
:1092500049FF124884421BD0B068E7000499C1510D
:10926000029900290ED0002D0CD070882A46444364
:10927000F0682018FDF729F8B0683818858004E0F8
:1092800072B6CDE7002138188180002005B0F0BD0E
:109290000420FBE70920F9E7B0200020FFFF0000D1
:1092A00000ED00E000E400E02E2E5C4D6564747279
:1092B000756D7573655C6170705F73636865647507
:1092C0006C65722E6300000038B50D4C00E09047CD
:1092D00060782178884212D02578207801F0D8FF74
:1092E00020706088E1686843EA00A3684018D118DC
:1092F00089886D4629809A58002AE9D0E7E738BD69
:10930000B020002010B5CB0008339CB2930701D0E9
:10931000072010BD054B9A601219DA6000225A70BE
:109320001A7058809980104610BD0000B0200020AF
:1093300070B5114DAC68002C06D0002A06D000286C
:1093400004D000232D7809E0082070BD072070BDEF
:1093500028265E43A659002E04D05B1CAB42F7DBE7
:10936000042070BD282501265D4366512C19E26159
:1093700061600360002070BD74200020FFB581B0E3
:109380000A9F1C4616460D4698070BD1002C09D0A3
:1093900002F00CFC224900208F610D70234602462A
:1093A0008C6009E0072005B0F0BD2827014679430D
:1093B0005A50C9180A76401CA842F6DB28204543BB
:1093C000174F2B19032078701C46FB6018330021BF
:1093D000354618204543C800001902704270867057
:1093E0004360EB18491C0329F5DB0020C0433861BA
:1093F000BA7001240B48FA7024050460032114207C
:10940000FFF742FA08480460084C0198A060032165
:109410001120FFF739FA606878610020C3E7000087
:109420007420002080E200E000E100E0001501402F
:10943000FEB517461D4A044690680D4600280CD01C
:1094400011788C4201D2052D01D20720FEBD2146A4
:10945000282359434358012B01D00820FEBD08188A
:10946000406801281DD0002603F0AEFAC0000F4965
:109470000190C9684018694603F0CEFA002812D05E
:109480000121446001600A4949680830E2C0074987
:109490000198C96841180098487003F04DF9002000
:1094A000FEBD2E46E0E70420FEBD00007420002033
:1094B00000150140F8B5134D0446A868002809D0EE
:1094C00029788C4201D30720F8BD282161434058F8
:1094D000012801D00820F8BD03F076FAC600E8683C
:1094E0006946301803F098FA002809D0022112C00A
:1094F000E86831180098487003F01EF90020F8BDA4
:109500000420F8BD7420002010B5FEF703F810BD4C
:1095100030B50C4693B000216A46117011710028D5
:1095200018D00189002905D0C168002902D0097826
:10953000490701D4072200E00022002A02D0104689
:1095400013B030BD6A4602A9FFF744FC0028F7D1EA
:1095500002AD00E00025002C0ED02089002800D0AC
:1095600007200028ECD101AA0AA92046FFF732FC07
:109570000028E5D10AAA00E00022684603790178B4
:10958000284672DFDCE7000030B5044689B0086881
:1095900020600020C043E0811C486061C0206082E0
:1095A00000200D4660742074194B0FCB089305AB57
:1095B00007C3184905A863DF002803D016A21D4978
:1095C000FFF790FD0220694688701B480880221D25
:1095D0000120A0DF002816D12946204600F034FAE9
:1095E000002810D1154803940490A0886946C880CB
:1095F000112088720872074800780871204601A976
:10960000183000F095FC09B030BD0000C82C0020D7
:10961000A0CB0100AC2000202E2E5C4D656474723E
:10962000756D7573655C626C655F63676D732E63E2
:10963000000000007E03000002900000E99A010093
:1096400010B5C289104B86B09A421AD00A786B4680
:109650001A82142A01D914221A820022009201923D
:1096600002920392C3886C4623800123A370A280D8
:10967000491C04AA03910292C0896946A6DF06B07C
:1096800010BD0820FBE70000FFFF000038B50546CD
:109690000C46183000F0B0FC2088102818D0112893
:1096A00018D0502819D1A41D21886A8928469142D2
:1096B00013D1218B022910D1016800290DD0E17E40
:1096C000A27E09021143C907C90F07D0002106E095
:1096D000A08801E00020C043E88138BD012100914D
:1096E00002686946904738BD70B5064601461C229F
:1096F0000F48FCF779FD0F4C0025257031680029D3
:1097000007D00822A018FCF7E0FD204608307ADFD9
:1097100002E0084808307BDF002808D1401E608046
:1097200004486570044A0021001DFFF701FE70BD6A
:10973000102100200C20002065C90100F8B5224D41
:10974000028800271F4EEC89102A16D0314649683E
:10975000112A21D0122A2DD0502A1CD1801D028816
:10976000A24218D1028B022A15D1C27E837E10023A
:109770001843C007C00F0CD112E0818871800146E8
:10978000104808220E311030FCF79FFD7770002C36
:1097900001D100F06DFBF8BD0020C04370807770F0
:1097A0000846FFF787FE0028F5D0A9690029F2D006
:1097B0008847F8BD811D034808221030FCF785FD5D
:1097C000E7E700000C2000201021002010B502481F
:1097D0004068FFF76FFE10BD0C20002010B5044656
:1097E00000F048FE21460F48FFF750FF2046FFF7E4
:1097F000A5FF22880B490C48102A09D00023112A02
:109800000BD0192A03D1A179002900D1036010BD22
:10981000A288CA810221016010BD0022D243CA8100
:10982000F4E70000702C0020EC20002008B5002395
:1098300050221649082002F053FB002803D014A23E
:109840001949FFF74FFC00206946009008706846F0
:1098500060DF002804D014490DA20831FFF742FC54
:10986000124802F033FB002804D05F2108A2C9008F
:10987000FFF738FC0E4802F04BFB002804D0BF2154
:1098800003A28900FFF72EFC08BD00001828002065
:109890002E2E5C4D65647472756D7573655C6D61BB
:1098A000696E2E6300000000EB020000DD970100EE
:1098B00011C701001CB5044681786A460C4801F0C6
:1098C00013FF002812D160781821484309491C234E
:1098D00040181822694601F0ADFF064806493C30A1
:1098E000807A80000A582146684690471CBD0000D7
:1098F00034200020F021002078CB01000EB5012299
:109900006B461A8099800290684601F05DFD0EBD9D
:1099100010B50269002A03D0C0689047002010BD2E
:109920000E2010BD3EB514460D4600216A4611803A
:109930009080684601F048FD002805D10298286013
:109940006846C088208000203EBD0EB503226B46CD
:109950001A8001916946FFF7DBFF0EBD0EB50122AB
:109960006B461A8001916946FFF7D2FF0EBD0EB516
:1099700005226B461A8001916946FFF7C9FF0EBDAB
:10998000F8B5002516460F460446002908D0002EDB
:1099900006D068462EDF607C002803D0112511E038
:1099A0000E20F8BD207C002801D004250AE001200B
:1099B000207401462046183000F05EFB6069386074
:1099C000608A3080684600782FDF2846F8BD0000A6
:1099D00010B514460A4A90420FD1412C01D90720F4
:1099E00010BD22460748FCF770FC07480021447070
:1099F000064A0846FFF7E2FB10BD0F2010BD00002D
:109A0000702C0020882D0020AC20002075780100EB
:109A100010B50446002A04D06069884203D01020A3
:109A200010BD072010BD207C012801D0082010BDEA
:109A30002046D2B2183000F09DFB0028F7D102205A
:109A40002074002010BD7047F0B500240646601C4D
:109A500095B000070D46000F08A910300C9408744B
:109A600028794874887CF9273840801C88741C2128
:109A700005A8FCF789FC6946087D10210843694662
:109A800008750CA806940A90089409940B94022077
:109A900008A988761348694608870D94687908A94B
:109AA0000875A8794875887DE7213840801C0840F2
:109AB0000121084308A9887514216846FCF764FC55
:109AC0000EA800900DA801901420694608814C81D1
:109AD00088810FA80490B088B31D6A4605A9A2DF4B
:109AE00015B0F0BD4091000070B50D4609880446E0
:109AF000002618300B00FFF73FF9060C0C04111775
:109B0000290CA888618A884204D8012060746069A1
:109B1000A86070BD02206074AE6070BD012100F0CD
:109B2000ABFA667402210DE0012100F0A5FA66741B
:109B30002A8920466968FFF74BFF0028EDD001F025
:109B4000C7FB0146204600F00AF870BD26740021CC
:109B500000F092FA20466968FFF775FF70BD38B5CE
:109B60000B460446002069460880207C002815D159
:109B7000607C002812D1618A6A46606902F0C7FEE3
:109B800000280CD1684600886169C2B220461830AE
:109B900000F0F0FA002802D102202074002038BD25
:109BA000F8B5374914230A780F205A435418241D56
:109BB000344A21789688E56802291BD001273F079F
:109BC00004292AD005295AD1386981B22846FCF7E0
:109BD000EEFB0146A0883B6942199BB24B43D21A67
:109BE00063889208C018451938694B1C80B25843E5
:109BF000401B33E0B00262882169121A0918A38859
:109C00002818181801239B029A4202D2920821DFD9
:109C100030E0FF22013221DF2CE0A2681A48110156
:109C20000818018943894068A84203D160885943D4
:109C3000814218D0432A16D0386981B22846FCF7F1
:109C4000B6FB0146386980B24843281A8208386951
:109C50004B1C80B2584363885B19C01A83082046A6
:109C600002F0CEFC06E0386981B22846FCF79FFB83
:109C7000801920DF002802D1014901228A70F8BD35
:109C80006422002050200020F823002010B506494F
:109C900000204978002906D0FFF782FF002802D073
:109CA000112800D1002010BD64220020142250434E
:109CB000054A002180180171C18042220161C26001
:109CC000416101817047000064220020F8B5124D07
:109CD000069E6C78142C1DD02F783C19E4B2142CFD
:109CE00001D3143CE4B214277C43641920716261EF
:109CF00003C92161E060E3802681A9780020002962
:109D000004D1FFF74DFF112800D100206978491CCC
:109D10006970F8BD0420F8BD64220020F8B522491E
:109D20000869421C3DD0282250438A688018876801
:109D30001E4844684E69A01B05022D0A0879ED1CD7
:109D4000002814D101201A490004486018494039FC
:109D50004860184940000860174908601749012009
:109D600008602F20FCF720FA0F4901200871BD423E
:109D700000D23D46A81900020C49000A4031086093
:109D80000A494968001B091B0902090A0002C91C8B
:109D9000000A814204D90120064940048039086044
:109DA000F8BD01F003FFF8BD74200020001501404C
:109DB0004013014080E200E000E100E000100140BB
:109DC000F8B50D4611780646881D14461F2801D99E
:109DD0000C20F8BD3088062813D31927FF01194B32
:109DE000B84201D998420CD17288062A09D3BA42E6
:109DF00001D99A4205D1984205D09A4203D09042A7
:109E000001D9072000E000200028E2D1481C0522EB
:109E100020706A5420781222411C21702A54207824
:109E20004119308802F04FFD21784018C0B22070EF
:109E30004119708802F047FD2178401820700020F9
:109E4000F8BD0000FFFF000010B502A20749FFF7B0
:109E500049F910BD2E2E5C4D65647472756D757375
:109E6000655C6D61696E2E630000000051020000A8
:109E7000F8B5154801F00CF8134D0026103D134CB1
:109E8000002806D06169002919D001200090684699
:109E900014E02878002804D0616900290FD00096CA
:109EA000F5E7687800280CD0A16800226868FFF701
:109EB000BFFA002803D0A169002900D088472E707E
:109EC000F8BD6168F1E700001C200020102100208F
:109ED000F0B59446044608200A4A0B4F00230C258F
:109EE0005D43ED19AE7A0E4209D0944202D0288922
:109EF000A04203D1604603600020F0BD05205B1C3A
:109F0000EDD0F0BDFFFF0000202200200C214843CF
:109F1000064910B5012240188272911E0181FF216D
:109F2000C1720721FCF72EFA10BD0000202200208C
:109F3000F0B5044600208FB0C04320804888608080
:109F40008868E060C868206120460E461430FFF73C
:109F5000B3F800284CD1002525876587E563658621
:109F60002586681C65630007E562000F08A91030AC
:109F700008950870307948708878F9273840801C37
:109F800088701C2101A8FCF7FFF96946087928218F
:109F9000084369460871029508A804950595079538
:109FA0000690307808A98871124869468884002094
:109FB00000950870B07948708878F7213840801C87
:109FC0000840112108436946887014210AA8FCF74B
:109FD000DBF909A80A9068460B9069460D861420A3
:109FE0004D8688860E956088231D0AAA01A9A2DFE6
:109FF0000FB0F0BD0191000010B50A88502A14D0AE
:10A0000008DC102A0ED0112A0BD10021C94301808F
:10A01000164924E0512A25D0532A02D1091D01F006
:10A0200015FA10BD8988018010BD891D0A88038931
:10A030009A42F9D10A8B022AF6D1CA7E8B7E11028E
:10A0400019438907C90F08D0002101874187C163DF
:10A05000418601864163C16210BD0449491E00F07A
:10A060006BF810BD091D01F029FA10BD0230000087
:10A0700010B500F0B9F810BDC26A002903D0012163
:10A080000A43C26202E051084900C16200207047E1
:10A09000F7B584B00446002668468681208E1746B0
:10A0A000002819D12346323303AA3946059802F015
:10A0B0001EFC00283ED1618E02226B461A809980D8
:10A0C00020466946FFF724FC002802D1029860630D
:10A0D0003046002800D06663618E208E091A8DB24A
:10A0E000694689897A1AAA4200DA95B2626B002A17
:10A0F00005D01018059A51182A46FCF7E6F8208E6C
:10A10000401980B22086628E904212D1616B002984
:10A1100009D004236D462B80019120462A8169468F
:10A12000FFF7F6FB03E00C212046FFF70EFC6686E6
:10A130002686002007B0F0BD70B50446C06B0D4602
:10A14000002802D02046FFF712FC606B002803D0E5
:10A1500029462046FFF7F9FB002020876087E0634F
:10A16000608620866063E06270BD002101874187C0
:10A17000C1637047F8B50446002906D0002A06D00E
:10A18000E06B002805D01120F8BD0E20F8BD072097
:10A19000F8BD2088114B984201D11148F8BDE16308
:10A1A000228700266687204600F01EF80546112803
:10A1B0000AD12046022322460A4914300096FEF7AF
:10A1C00051FF0546112806D0002D04D02046FFF788
:10A1D000CCFF2846F8BD0020F8BD0000FFFF0000BE
:10A1E0000230000071A00100F0B50446008F618FBD
:10A1F0008BB0421A002597B2022604AA002904D186
:10A2000069460874000A487402251420401BB842AD
:10A2100000DA0746618FE06B411850193A46FCF7A7
:10A2200054F8E91922880E4B04A8C9B29A4202D107
:10A230000C480BB0F0BD6A4691840025009501954D
:10A2400002950395A18811809670958009A90291C5
:10A25000039020886946A6DF0028EAD12846E8E76F
:10A26000FFFF000002300000FEB50E460446817874
:10A270006A46234801F038FA002827D160780C217B
:10A28000204F4843C019807A800620D4022E1ED069
:10A29000012E1ED01C4DA0781C21484319490023D3
:10A2A000F43941181C226846A847002813D0022E12
:10A2B0000CD020780C21484312490C314018807A88
:10A2C000124980000A58214668469047FEBD104D4D
:10A2D000E1E7104DDFE7022EF8D060780C2148430B
:10A2E000C019817ADF2211408172607818214843B9
:10A2F00004491C233039411818226846A847D8E77A
:10A300003420002020220020FDC5010068CB010080
:10A310001DBB0100B5B9010070B505461048114AD2
:10A3200000241C2363439B189B7EFF2B03D0641CDB
:10A33000072CF6D370BD0878022809D01C20604392
:10A340008018FD22827610300722FBF7BEFF04E062
:10A350001C2060438018FE2181762C70002070BD87
:10A36000438000002C210020F7B505260F4D07463D
:10A370000024002F0AD01C2060434019103007220F
:10A380003946FBF775FF002807D00AE01C20604320
:10A390004019018B0298814203D101980026046084
:10A3A00002E0641C072CE4D33046FEBD2C210020C3
:10A3B00010B5100003D003A20849FEF793FE002059
:10A3C00010BD00002E2E5C4D65647472756D757342
:10A3D000655C6D61696E2E63000000000A03000079
:10A3E0001FB501F0EBF9002803D019A21E49FEF7B2
:10A3F00079FE03A800F010FA002804D01A4914A22C
:10A40000891DFEF76FFE01A806210230FBF7BAFF97
:10A410001E206A46D080107A01210843E1221040B4
:10A420000C30DF2210406A46107207205072102054
:10A4300090720E480090117169460D4800F022FBA1
:10A44000002804D0084902A21531FEF74BFE1FBDBB
:10A450002E2E5C4D65647472756D7573655C6D61EF
:10A46000696E2E630000000019030000B1A3010013
:10A47000A5200020F0B5044687B0FF25C948029505
:10A48000007800286BD0C84F3868002867D068462D
:10A4900000F0B4F9002803D0C4A2D349FEF722FE8D
:10A4A000002006460690201D0490342069468882CC
:10A4B000FF208870002008700190BB4D20880C3D63
:10A4C00010280ED0A08801AA0221FFF701FD002864
:10A4D00007D101980C2141434919C97A6A46917004
:10A4E0005070208814287CD02DDC102839D01128F9
:10A4F0007CD0132833D1694608733A1DA088002107
:10A500007FDF00282BD101990C2048434019827A23
:10A5100004231A438272C07AFF2813D016206A4699
:10A52000107318204143A04824380818001D142136
:10A53000FBF72AFF01980C2148434019817A202219
:10A540001143817219E1172874D0A849182872D0D4
:10A55000522804D1B87A800009586846884707B065
:10A56000F0BDA34F01AA01213846FFF7B1FC02223A
:10A5700000281CD004200028F1D11120694608735E
:10A58000019848700C235843A188401901818272B8
:10A590000722A11DFBF799FE607BC1070DD0410882
:10A5A00080480830405CFF280ED002900CE00199F2
:10A5B0000C23594349198A72DDE73A4602A9A01DC6
:10A5C000FFF7D2FE0028BDD101980C22504340195C
:10A5D0000299C172837A082213438372684681709C
:10A5E00001E029E002E0FFF765F9C6E001980C21DF
:10A5F00048434119887AFD2210408872010706D528
:10A6000040060DD500216846FFF72EFE08E068469B
:10A610008078FF2804D000F0D3FFFF2069468870BF
:10A6200001980C2250431021401981721220694672
:10A630000873A2E030E08DE001980C2148434019F6
:10A64000C07AFF281BD1E28902A90020FFF78CFE07
:10A6500000280DD101980C22504340190299C17273
:10A66000827A08231A43827268468170FFF722F9C2
:10A6700001980C2148434019C07AFF2807D001985F
:10A680001821484348493C394018001D0690A088CD
:10A690000022069981DF62E701980C2141434919A4
:10A6A0008A7AFB231A408A7214216A461173A179AF
:10A6B000002901D00E4660E0182148433A4914228F
:10A6C0003C394018E17A8170A17A41702146001D21
:10A6D0000C31FBF7FAFD01980C2148434119887AA7
:10A6E00042064AD5082210438872CA7AFF2A04D04B
:10A6F000202210438872002128E002A8FFF70CFEF8
:10A70000002801D0064638E0694602988870019911
:10A710000C224A435219D0721C23364F5843A28947
:10A72000C0190283E07A40070FD51C204143C819A5
:10A73000214610222031FBF7C8FD01981C21484317
:10A74000C019817E49084900817601216846FFF7DA
:10A750008BFD12E001980C2250434019827A40236D
:10A760001A43827215206A461073B87A800009581D
:10A7700068468847002800D01F4E03A93246684625
:10A78000FEF700FD6846007B122884D101980C2159
:10A7900041434919897A012900D1E0E6FFF7B6FB68
:10A7A000DDE60000242000202C2200202E2E5C5309
:10A7B0006F757263655C626C655C64657669636520
:10A7C0005F6D616E616765725C6465766963655F24
:10A7D0006D616E616765725F7065726970686572E0
:10A7E000616C2E63000000003709000088CB010077
:10A7F000FFFF00002C21002041800000002806D02F
:10A80000FF21017041708170C170002070470148C4
:10A81000704700000E800000F0B585B004003ED007
:10A8200000202D4A05460C214143555089188D7250
:10A83000401CF8D000263046FFF768FB761CFAD0A3
:10A84000254818212438FBF79FFD0026FF273046B6
:10A8500000F0B6FE21488755761C072EF7D350200E
:10A86000694688800720C8801D481C49009008312F
:10A87000684601F033F800280FD1184E0120083E39
:10A880003070207800280CD069468888C9884843F1
:10A8900081B23046103000F051FF05B0F0BD1148D4
:10A8A000FBE7114F00240D48A1B202AA083000F0C6
:10A8B0001BFF002809D11C206043C01900231C2263
:10A8C00002A900F0B7FF002801D03570E5E7641C4D
:10A8D000072CE8D3E1E700002C2200202C200020E8
:10A8E000EDA801000E8000002C210020FFB5524889
:10A8F00089B00068129F1D460E46002863D0502F75
:10A9000061D8012008906846FFF778FF002803D03F
:10A910004AA25949FEF7E6FB002069460870087113
:10A92000044604970595A1B206AA544800F0DCFE3F
:10A93000002806D1082206A90998FBF799FC0028EF
:10A9400015D0641C072CEED368468478FF2C3AD0CF
:10A95000042E0FD04A4F1C21E81BFBF728FD0728C7
:10A960001ED204A802900B9800280BD014E0684671
:10A970008470E9E7502F03D040206946087140E019
:10A980002020FAE701203D49A040103949680840DD
:10A9900000D00120002816D0204601F0D9FFEFE7B3
:10A9A000254818213C38281AFBF701FD00280CD057
:10A9B000214C1821243C281BFBF7F9FC002810D05F
:10A9C0004020694608710DB0F0BD04A80290202017
:10A9D00069460871002048701C204443E019059026
:10A9E0000FE0302069460871002048700120C870CF
:10A9F00011480C38807A800703D420461821FBF7D1
:10AA0000C3FC08980028DED0042E0FD069460879D0
:10AA1000032E0FD0022108436946087104A8029052
:10AA200001A968460B9AFEF7ADFBCCE769460879A9
:10AA30000321F0E70121EEE72C2200202E2E5C53AB
:10AA40006F757263655C626C655C6465766963658D
:10AA50005F6D616E616765725C6465766963655F91
:10AA60006D616E616765725F70657269706865724D
:10AA7000616C2E6300000000C3040000342000203D
:10AA80002C21002070B5064610480C46007800289E
:10AA90000ED00F48002E0AD0002C08D021680029C3
:10AAA00005D00C4D2868002805D009480A3870BD2B
:10AAB0000748801F70BD29600622A11D281DFBF7D5
:10AAC00004FC2079A8720020307070BD2420002082
:10AAD0000E8000002C22002010B50E4A0023917831
:10AAE000D478A14212D0491CC9B29170022900D178
:10AAF00093709178074B89001C3359580160506955
:10AB000008180002000A5061012010BD03600020F7
:10AB100010BD0000742000200268002A09D0D2680D
:10AB2000CA6002680A610268D26811610268D16075
:10AB300002E00160C9600961486100207047F1B519
:10AB400084B000260096019602A803962EDF049892
:10AB50000499006800900E6000282BD0694601AD72
:10AB60004161009C2069A04201D1009605E000905F
:10AB7000E168C160086169464161E460246120893F
:10AB8000401E0004000C20811AD000276561684631
:10AB9000007A2FDF002F01D00398B84702A82EDFDC
:10ABA0006069A84203D121460498FFF7B5FF0098D9
:10ABB0000028D6D16846007A2FDF002005B0F0BD0E
:10ABC0006068039060892768002802D06561208151
:10ABD000DDE76661DBE70000F0B500241BE0282319
:10ABE000BE686B439B199E68864202D9301A9860F2
:10ABF000F0BD801B341900269E601E765E6A3E61A1
:10AC00005E69002E07D00F193F023F0ADF601E6108
:10AC100016685E621560024F3D696B1CDFD1F0BDA6
:10AC2000742000200EB5112069460872022213A17B
:10AC300002A87CDF002803D011A2DD21FEF752FA22
:10AC4000154878DF002803D00DA2E021FEF74AFA6C
:10AC5000002000900190192040016946088048803A
:10AC60000A2088801920C001C88068467ADF002841
:10AC700003D003A2EA21FEF735FA0EBD4D540000C1
:10AC80002E2E5C4D65647472756D7573655C6D61B7
:10AC9000696E2E6300000000410300000020704731
:10ACA0000020704700207047F8B543780D4E1C46D1
:10ACB0001820434337460C250021F05818376C43C1
:10ACC000E4190A46002807D0A57A6F0604D5AD0618
:10ACD00002D49919091D82B22089A9DF002800D069
:10ACE0000148F8BD082200204180000070B50C46E4
:10ACF000014660781822084D50434019342300F073
:10AD000099FD002806D16178182251436A58521CD7
:10AD100000D16A5070BD000008220020F0B587B055
:10AD20000C46074614206946888260780C21484307
:10AD30001F4D05AA401900896946AADF002833D1B2
:10AD40006078182148436E1A80196946001D8A8A66
:10AD5000FBF78EFA0028607806D018214843315856
:10AD600000290DD0134D0CE00C2141434919897A7B
:10AD7000890719D4182148438019FBF705FB13E014
:10AD80000D4D69468A8A32506078182148438019EF
:10AD9000001D6946FBF728FA60781821484381199D
:10ADA000342318223846A847002007B0F0BD000021
:10ADB000202200201DBB0100B5B9010010B5FFF72E
:10ADC00073FF10BD10B5FFF791FF10BD10B5FFF771
:10ADD000A5FF10BDF8B51E4E3078002837D0306979
:10ADE000002807D00025F068002805D00024002D99
:10ADF00004D013E00125F6E70124F8E7684651DFA7
:10AE0000052806D0002806D012A26921FEF76AF9AB
:10AE100004E0012502E0316900988847002C12D136
:10AE2000708869460880B06861DF052806D0002870
:10AE300006D008A28021FEF755F904E0012402E0C3
:10AE4000F168B0688847002DD1D0002CCFD0F8BD74
:10AE50003C2000202E2E5C536F757263655C73641A
:10AE60005F636F6D6D6F6E5C736F6674646576693A
:10AE700063655F68616E646C65722E63000000003C
:10AE800002480069C005C00F70470000000500506F
:10AE9000054940880A88904204D34988884201D8ED
:10AEA0000120704700207047142000201049088CB2
:10AEB000C0B2012817D1888C000714D1088D000674
:10AEC000020F03D18A8D1206120F0ED0000F012837
:10AED00003D18A8D1206120F07D0032803D1888D63
:10AEE0000006000F01D000207047012070470000CD
:10AEF000C00F00F0800701D000207047012070478C
:10AF0000F8B5234801690091467833E02048F10004
:10AF1000C0680D182C782AE0182060436968641C0A
:10AF20000818A978E4B2A14200D1002401680229DE
:10AF300002D003291BD114E0154A406828219268E9
:10AF400041438F18397E002911D001F02FFC0020D9
:10AF500038760CE028225043C0180176406A3861E8
:10AF600003E00B4F0021BB683869421CF2D16878BE
:10AF7000A042D1D13046761EF6B20028C6D1044890
:10AF800001690098814201D00120F8BD0020F8BD80
:10AF900074200020F8B505463448016900914678D0
:10AFA00056E03248F100C2688C184BE0681C07D0AC
:10AFB0002E4A282192686943284689184D6A20E064
:10AFC0002078182141436268401CC0B2521820709A
:10AFD000A178884201D100202070244B506828219C
:10AFE0009B684143C9181368012B2DD10B7E002BA0
:10AFF0002AD19368CB60D3680B6113694B615269A6
:10B000000A621A4BCA685B699446D21A1202184F38
:10B01000120ABA4202D20B69D21809E062469A1AA1
:10B0200012020B69120A934201D99A1A00E0002217
:10B030008A600022CA600A6101220A76921E4A6270
:10B0400001F082FB681CB1D1207861788842ADD1D3
:10B050003046761EF6B20028A3D104480169009854
:10B06000814201D00120F8BD0020F8BD74200020ED
:10B07000FFFF7F0088B01E2000F01CF900F048FEA2
:10B08000FDF72AF8FDF7F0FD00280DD07D24E4003F
:10B090000620FDF7A8FB322000F00CF9FDF798FB25
:10B0A000204600F007F9F3E70024FF25F5350320DB
:10B0B000FDF799FB322000F0FDF8FDF789FB2846EB
:10B0C00000F0F8F8641CE4B2032CF0D32F4A0C21F2
:10B0D0000A20FEF717F9002803D02DA23249FEF707
:10B0E00001F80024294B0522EC3308212046009466
:10B0F000FEF744F9002804D0092125A2C901FDF773
:10B10000F1FF2A48FDF7A0FFFEF790FBFFF768F973
:10B11000FFF788FDFDF71CFF00F0CCFD1C21684601
:10B12000FBF732F90520C00301900F2000040290C4
:10B1300000940320694608731D484089C8810C7437
:10B140001C4805901C4806906846FEF7CDFA00287A
:10B1500003D00FA21949FDF7C5FFFCF737FEFDF735
:10B1600015FB1749C881FCF7EDFDFCF74BFCFCF71C
:10B170002FFA0D4C4D34FEF7A7F840DF0028FAD027
:10B1800003A22146FDF7AEFFF5E700006828002086
:10B190002E2E5C4D65647472756D7573655C6D61A2
:10B1A000696E2E63000000007D040000CD0C0000DD
:10B1B000702C00200DB40100499E01006A020000BD
:10B1C000EC2D002070B5054600790E46801C144613
:10B1D000C0B21178821C8A181F2A01D90C2070BDB8
:10B1E0004A1C401C227070542078FF22411C2170A0
:10B1F000325420788119288801F065FB21784018A5
:10B20000C0B22070AA88002A09D0A968002908D0F5
:10B210008019FBF75AF8207829794018207000200F
:10B2200070BD072070BDF8B514780746A01C154600
:10B230000E461F2803D83879801C1F2801D90C20FE
:10B24000F8BD1D20001B80B2694686460880301973
:10B25000801C7DDF0028F3D13868022805D16846BC
:10B260000088704501D8092107E0387908210028B5
:10B2700001D0704501D968460088421C3255641CD3
:10B28000E2B2B1542978801C081828700020F8BD5B
:10B2900004498988884201D2401C00E00020C0B2E5
:10B2A00070470000B0200020002070470020704749
:10B2B0000020704731B5054C04E0491E204600913E
:10B2C000FAF762FF00990029F7D138BDE7030000C3
:10B2D00000B508281BD007DC0300FDF74DFD081260
:10B2E0000F0F0F141E1C1A0F092812D00C280CD097
:10B2F00001218903401A12D0012812D00320000333
:10B3000000BD002000BD012000BD022000BD0320C3
:10B3100000BD042000BD052000BD062000BD0720A3
:10B3200000BD082000BD0000024A8900800080188E
:10B330000160704700070050890052001143024A23
:10B34000800080180160704700070050024A032106
:10B350008000801801607047000700500121814083
:10B360000148C16070470000000500500121814084
:10B370000148C16070470000000500500121814074
:10B3800001488160704700000005005001218140A4
:10B390000148816070470000000500500121814094
:10B3A000014881607047000000050050054A0121F6
:10B3B00053688140C340D807C00F01D0D1607047A7
:10B3C00091607047000500501CB50446218800209C
:10B3D000002903D0012911D007201CBDA188002914
:10B3E000FBD101AA69460848FEF7CAFA0028F4D141
:10B3F00069468988E1800099A1601CBDA288024845
:10B40000A168FEF705FB1CBD702C002010B500687C
:10B41000002809D105483B21C08976DF002803D0E8
:10B4200003A20949FDF75EFE10BD0000702C00204C
:10B430002E2E5C4D65647472756D7573655C6D61FF
:10B44000696E2E63000000004602000038B5054614
:10B450004888A98888422ED1688F00280FD0002103
:10B460002A8F131A1422511A8B421DDD4018688747
:10B470002846FEF7B9FE0446112802D00DE002214D
:10B48000EEE700200090284602232A460A4914309D
:10B49000FDF7E8FD044611280DD0002C0BD02846FE
:10B4A000FEF763FE214603E02846FEF75EFE00211C
:10B4B0002846FEF75CFA38BD71A0010070B505465C
:10B4C00088788C1C86B0022837D16088A988884289
:10B4D00033D102206946087000268E808882288930
:10B4E00004AB05AA3146A5DF010002D02846FEF7CD
:10B4F00035FA6846008A8007C00F08D0A88DC007BB
:10B5000002D0FF20813004E06846868003E0FF20FF
:10B5100082306946888028886946A8DF010002D009
:10B520002846FEF71BFA68468088002805D1214688
:10B53000628B1C312846FEF7ABFD06B070BD0000E3
:10B5400070B5022401221B4D1B4E1C490300FDF760
:10B5500013FC05040C2619200B008868012818D05C
:10B56000022801D10320886070BD8868002802D0BD
:10B570000328F9D104E00420286032608A6070BD9D
:10B580008C6070BD8868012806D0022804D003288A
:10B59000F7D1FDF70FFC70BDFDF7FCFB70BD8868AF
:10B5A0000128FBD18868022800D0B2604878E861A1
:10B5B000E6E7000000250040002000406020002059
:10B5C00070B505461C200B496843441820461130CD
:10B5D0000621FAF7D7FE20461021FAF7D3FEFF2006
:10B5E0002074A0760020C0432083284601F0B0F9E3
:10B5F00070BD00002C21002038B50C46049953285A
:10B600003DD00CDC502828D004DC402819D041283B
:10B610000DD11CE0512826D0522808D129E0542809
:10B6200033D0552837D056283BD057283FD0042256
:10B630000A8018705870991C062001F053F90620F2
:10B6400038BD009121461D48FCF7B2FC38BD009181
:10B6500021461A48FCF756FD38BD0091214617488F
:10B66000FCF70AFF38BD009121461448FCF791FF12
:10B6700038BD009121461148FCF7C9FE38BD009144
:10B6800021460E48FCF750FF38BD009121460B487B
:10B69000FCF72CFE38BD009121460848FCF7C0FDA0
:10B6A00038BD009121460548FCF782FD38BD009168
:10B6B00021460248FCF7A2FF38BD0000EC2D002017
:10B6C00007490978002906D0002806D0054949789D
:10B6D000016000207047082070470E20704700006E
:10B6E000502000206422002070B5124B1B78002BE4
:10B6F00018D0002818D0002A16D00368422B0FD289
:10B700000D4D1C012E59002E0AD064192589406860
:10B71000694340186189646869430919814205D801
:10B72000072070BD082070BD0E2070BD13605060F2
:10B73000002070BD50200020F8230020F8B50446FA
:10B740001C480E460078002824D0002C24D0206805
:10B7500042281DD2184D00012958002918D040193F
:10B7600041890289406851430918606881420FD9B4
:10B77000FFF7C0FB002811D0206861680001401964
:10B7800042688A1A01891046FAF711FE002907D08B
:10B790000720F8BD0820F8BD0E20F8BD1020F8BD28
:10B7A000002002460090334621460420FEF78EFA20
:10B7B000F8BD000050200020F8230020F8B5002438
:10B7C000194D1A4EAC80EC6034707470B47027461A
:10B7D0003846FEF76BFA7F1C142FF9D301226C80D8
:10B7E00012071069AD2180B24843A860104BAC80AD
:10B7F000002001015C50C9180C818C81401C4C81D7
:10B800004228F6D30820E860106981B21069EF225F
:10B8100080B25043FAF7CBFD20DF002802D101218E
:10B82000B1702970F8BD0000502000206422002073
:10B83000F8230020FFB5274881B000781E46154642
:10B840000C4600281FD0002C1FD0019800281CD0C7
:10B850002068422814D2204F0001395800290FD007
:10B86000C1194A890889496842435118626891425E
:10B8700006D9002D04D0A84202D3A919814206D9C5
:10B88000072005B0F0BD0820FBE70E20F9E701987E
:10B89000FFF730FB00281AD03046FFF72BFB0028BB
:10B8A00015D06068FFF726FB002810D060682A4694
:10B8B00081190198FAF709FD00952068002200011E
:10B8C0003D5803212046019BA8470020D9E71020BE
:10B8D000D7E7000050200020F8230020F8B50F46DD
:10B8E000324904460878002828D0002C28D0002FA0
:10B8F00026D02068002823D001252D07A688286996
:10B9000080B2864220D8102E1ED3E08800281BD09B
:10B9100089687043421800912969EF2389B259431D
:10B920008A4211D8296989B288420BDD28693146DB
:10B9300080B2FAF73CFD002906D103E00820F8BDEB
:10B940000E20F8BDB00701D00720F8BD174E728851
:10B95000422A1AD03A6000997960154F1001C31934
:10B96000596021683950A0881881E0885881A188E1
:10B97000E48800206143401C2C6980B2A4B28C4250
:10B9800005D22C69A4B2091B02E00420F8BD0021F5
:10B990002C69B768A4B2E419B4602C69A4B28C42D3
:10B9A000E9D99881521C72800020F8BD50200020F7
:10B9B000F8230020F8B5044620481E4600781546B6
:10B9C0000F4600281DD0002F1DD0002C1BD0206852
:10B9D000422814D21A4900010A58002A0FD04118EF
:10B9E0004A8908894968424351186268914206D9D8
:10B9F000002D04D0A84202D3A919814205D90720FD
:10BA0000F8BD0820F8BD0E20F8BD3846FFF772FAE1
:10BA1000002811D03046FFF76DFA00280CD060687E
:10BA2000FFF768FA002807D02B463A462146022045
:10BA30000096FEF74BF9F8BD1020F8BD502000200D
:10BA4000F8230020F8B533498A78012A14D100245C
:10BA5000314A8C70D368082B05D002280FD00328F8
:10BA60000AD10D2006E0022807D01470FEF70EF967
:10BA7000002801D0FDF78CFBF8BDD460F6E725481F
:10BA800014250178244A694309189088091D401C2F
:10BA900080B290800A78022A05D14E888502B5428C
:10BAA00001D3012700E00027052A01D1072B03D08D
:10BAB0000025042A02D003E00125FAE7072B03D072
:10BAC0000026042A02D007E00126FAE7498880020E
:10BAD000884201D3002B1AD00020354305433D4353
