:020000040001F9
:10600000B43F0020F9620100136301006B610100DD
:106010000000000000000000000000000000000080
:1060200000000000000000000000000017630100F5
:106030000000000000000000196301001B63010064
:106040001D6301001D6301001D6301001D6301004C
:106050001D630100000000004DFA01001D630100F6
:106060001D6301001D6301001D6301001D6301002C
:106070001D6301001D6301001D6301001D6301001C
:106080001D63010021C201001D6301001D630100A9
:1060900043C2010099930100B5C601001D630100D0
:1060A0001D6301001D6301000000000000000000EE
:1060B00000000000000000000000000000000000E0
:1060C00000F002F800F032F80CA030C808382418AC
:1060D0002D18A246671EAB4654465D46AC4201D120
:1060E00000F024F87E460F3E0FCCB6460126334220
:1060F00000D0FB1AA246AB46334318475CDC0000D5
:106100007CDC00000023002400250026103A01D387
:1061100078C1FBD8520700D330C100D50B6070475F
:106120001FB5C046C0461FBD10B510BD0DF0BEF86E
:106130001146FFF7F5FF02F04EFB0DF0D6F803B461
:10614000FFF7F2FF03BC0DF0D7F80000401E00BFC0
:1061500000BF00BF00BF00BF00BF00BF00BF00BF47
:1061600000BF00BF00BFF1D1704704207146084254
:1061700002D0EFF3098001E0EFF308807146014A95
:1061800010471047BB880100401E00BF00BF00BF82
:1061900000BF00BF00BF00BF00BF00BF00BF00BF07
:1061A00000BFF1D170470000401E00BF00BF00BF1C
:1061B00000BF00BF00BF00BF00BF00BF00BF00BFE7
:1061C00000BFF1D170470000401E00BF00BF00BFFC
:1061D00000BF00BF00BF00BF00BF00BF00BF00BFC7
:1061E00000BFF1D17047000070B505460C46164659
:1061F00002E00FCC0FC5103E102EFAD2082E02D3AB
:1062000003CC03C5083E042E07D301CC01C5361FBD
:1062100003E021782970641C6D1C761EF9D270BDD4
:106220002E482F49086070472E48008CC0B20128C4
:1062300010D12C48808C0007000F0BD12948806AB0
:10624000F0210840402805D12648C06A084201D103
:10625000012070470020FCE72248008CC0B20128D2
:1062600027D12048808C0007000F22D11D48806A6A
:10627000F021084205D11B48C06A084201D1012023
:1062800070471848806AF0210840102805D1154849
:10629000C06A084201D10120F2E71248806AF02169
:1062A0000840302805D10F48C06A084201D10120BA
:1062B000E6E70020E4E710B5FFF7CEFF002805D0A1
:1062C00009480A494860C81309498861FFF7ACFFCB
:1062D000002802D001200749886010BD0024F40086
:1062E00000200020C00F00F0DFFF07C000050040C5
:1062F000006C00400006004003210C4802680A437D
:1063000002600B4802680A4302600A4880470A4854
:106310000047FEE7FEE7FEE7FEE7FEE7FEE70000D8
:1063200006480749054A074B70470000240500400E
:1063300054050040B7620100C1600100283500200B
:10634000B43F002028350020027A0A7042894A8032
:1063500002684A6042688A607047024600BF012AAC
:1063600005D0022A03D0032A01D00720704700BFBE
:10637000012A02D14020087008E0022A02D14120FF
:10638000087003E0032A01D1452008700020EDE7E2
:10639000FE48006802210840022801D10120704710
:1063A000FB480088002801D00120F8E70020F6E72C
:1063B00070B505460E4600243146284607F048FDD4
:1063C0000446002C05D1F248008802210843F04918
:1063D00008803146284607F051FD0446002C05D1BF
:1063E000EB48008804210843E949088070BD01702A
:1063F000E64A126802231A43E44B1A60704770B5EC
:1064000004460D462078202828DB2078212825DC2A
:1064100000260020A0702046083009F0A7FEDC48C6
:10642000008801210843DA49088028463F38C6B26F
:10643000314620463430FFF7BBFF314620468030DE
:1064400007F03DFB29462046FFF7D1FF03200BF064
:1064500081FD08200BF0A7FB002070BD20784028AC
:106460000DDB207845280ADC2078A84205DD294686
:106470002046FFF7BCFF0020EFE70720EDE70820EC
:10648000EBE770B504460D462078202802DB207823
:10649000212805DD2078402810DB207845280DDCF8
:1064A00028465938C6B2314620463430FFF780FFBF
:1064B00031462046803007F002FB00BF207860287C
:1064C00002DB207865280EDD207880280BD0294655
:1064D0002046FFF78CFF04200BF03CFD09200BF059
:1064E00062FB002070BD0820FCE738B5002400BF27
:1064F00000220421684608F036FE0446002CF7D13D
:106500000098411C01D1012001E00098401C00903E
:1065100000BF00220421684608F002FE0446002C59
:10652000F7D100980AF09EF8002038BDFFB58FB073
:1065300016461F4600200E9000250D9031880C91C4
:1065400010A8008C042801DD042018900DA80AF082
:106550005BF8002802D1052013B0F0BD0CAA0D9BFA
:1065600010990F9809F0B4FE0546002D01D0284679
:10657000F2E718AA6946384609F055FF002801D10C
:106580000520E9E710A8008C00283FDD002438E052
:10659000A1006A46881809F0C1FF002812D0A100A6
:1065A0006A46881804A909F0ECFF002800D12CE005
:1065B00004AB0CAA10990F9808F059FA0546002D63
:1065C0001BD022E0A1006A46881809F0C1FF00280C
:1065D00012D0A1006A46881804A909F0E3FF002838
:1065E00000D112E004AB0CAA10990F9808F063F9DF
:1065F0000546002D01D008E007E001200E90601C48
:1066000084B210A8008C8442C2DB00BF6846008EB2
:1066100030800E98002801D105209DE700209BE7DF
:10662000FFB585B005460E460E9F0020049000245D
:1066300002AB04AA3046079907F0E1FE044600BF0A
:10664000002C02D0204609B0F0BD00BF01AA02A96B
:1066500028460C3006F082FF044600BF002C01D013
:106660002046F0E700BF00200490398801AB04AA5F
:10667000089807F0F3FE044600BF002C01D0204626
:10668000E1E700BF6846008A38800020DBE7FEB5FE
:1066900005460E4617460020019000246B4601AACD
:1066A0003946304607F058FF044600BF002C01D0A1
:1066B0002046FEBD00BF694628460C3006F087FF25
:1066C000044600BF002C01D02046F2E700BF0020A6
:1066D00001900021089801800020EAE7FFB585B00D
:1066E00004460E9E00BF012120460C3001F076FBCF
:1066F000002803D10120800309B0F0BD00BF0027AE
:1067000000250020049000210391217868468289A9
:10671000501C83B203930898815468468089049082
:1067200068468089801C81B20391207840280DDB67
:10673000207845280ADC318803AAA368089809F064
:10674000C7FD0746002F01D10120054320782028EE
:106750002BDB2078212828DC31882346343303AA18
:10676000089808F0D9F90746002F01D10220054307
:1067700031882346403303AA089808F0CDF907462C
:10678000002F01D104200543318803E010200020B0
:106790000C2000202346803303AA089808F0E4F96F
:1067A0000746002F01D1082005432078012814DB7B
:1067B0002078072811DC2078032802D020780528CB
:1067C0000BD13188F748037803AA089809F056FDE1
:1067D0000746002F01D110200543F34820184388B5
:1067E000318803AA089809F05BFD0746002F01D104
:1067F000202005432078012802DB207807280ADDC5
:10680000318803AA236A089809F062FD0746002F21
:1068100001D14020054331882346283303AA089834
:1068200008F0F2F90746002F01D1802005432078B7
:10683000012802DB2078072827DD00200290019044
:1068400002A809F01BFF01A809F0DEFE00280AD00B
:106850000198000B029988420AD002980003000BAD
:106860000003019004E002980003000B0003019074
:10687000318803AA019B089809F02AFD0746002FDA
:1068800002D1FF200130054300BF049A0898811807
:10689000284601F09AFA68468089308000202BE76C
:1068A000F8B504460F46069D00BF012120460C3076
:1068B00001F094FA002802D101208003F8BD00BF46
:1068C0000026BA48006801210843B849086000BFA3
:1068D0002E800020F2E7FFB58BB004460E46174627
:1068E00000BF022120460C3001F078FA002803D1C5
:1068F000012080030FB0F0BD00BF00BF2078062844
:1069000001D00820F6E700BF00200A90002504A867
:1069100009F02CFC054600BF002D01D02846E9E710
:1069200000BF08AB0AAA3946304607F03FFE0546CD
:1069300000BF002D01D02846DCE700BF08A9204693
:106940002C3006F087FE054600BF002D01D02846FA
:10695000D0E700BF07AB0AAA3946304607F043FE2E
:10696000054600BF002D01D02846C3E700BF07A998
:106970002046FF30913007F03CFC054600BF002D5B
:1069800001D02846B6E700BF00BF6846008D801CD6
:10699000B84201DD0920ADE700BF6A46128DB0188C
:1069A00009A900BF027843781B021A430A80022219
:1069B0006846008D101881B20A916846818C204685
:1069C000FF30913007F0BBFC054600BF002D01D021
:1069D00028468FE700BF764920461C3007F03FFB72
:1069E000054600BF002D01D0284683E700BF00BF49
:1069F0006846008D801CB84201DD09207AE700BF9F
:106A00006846018D481C82B20A92715C6846017525
:106A1000018D481C82B20A92715C6846417500BFC4
:106A2000407D410041186846008D0818B84201DDDC
:106A300009205FE700BF6846008D3018069005A862
:106A400007F06EF8054600BF002D01D0284651E73B
:106A500000BFFFF74AFD054600BF002D01D02846C4
:106A600048E700BF05A92046803006F0FAFE204620
:106A7000FF30913007F02CFC2046FF30913007F0BA
:106A80004EFC20460C3006F0BFFD20212046FFF7CB
:106A9000AEFC00200A90039003A809F0EFFD1498C3
:106AA00001880AAA039B0E9809F012FC054600BF54
:106AB000002D01D028461DE700BF236A14980188E5
:106AC0000AAA0E9809F004FC054600BF002D01D06B
:106AD00028460FE700BF694620468030FFF734FCA8
:106AE000149801886B460AAA0E9808F0B3F8054678
:106AF00000BF002D01D02846FCE600BF6846018D8E
:106B0000149801800020F5E6FFB589B004460E46D2
:106B1000129F00BF022120460C3001F05FF90028CF
:106B200003D1012080030DB0F0BD00BF00BF20786D
:106B3000202802DB2078212801DD0820F3E700BFB0
:106B400000200890002503AB08AA30460B9907F0F7
:106B500068FD054600BF002D01D02846E3E700BFD1
:106B600001AA03A92046343007F086F8054600BF85
:106B7000002D01D02846D6E700BF002008903988B4
:106B800001AB08AA0C9807F024FE054600BF002DB3
:106B900001D02846C7E700BF6846008C3880002037
:106BA000C1E700000A20002086020000102000201B
:106BB00080F40300FFB581B0044600BF02212046E7
:106BC0000C3001F00BF9002803D10120800305B03F
:106BD000F0BD00BF00BF2078202802DB20782128EC
:106BE00001DD0820F3E700BF0026002700BF03985F
:106BF000012801DA0920EAE700BF3046711C8EB295
:106C000002990D5C012D01D0032D11D1A078022134
:106C10008843A07020212046343007F019F9074638
:106C2000002F05D1F848008802210843F649088062
:106C3000022D01D0032D11D1A07804218843A0702A
:106C400020212046343007F019F90746002F05D1DE
:106C5000ED48008804210843EB49088000260A9883
:106C600006800020B3E7FFB587B004460E461746FE
:106C700000BF022120460C3001F0B0F8002803D1FB
:106C8000012080030BB0F0BD00BF00BF207820289A
:106C900002DB2078212801DD0820F3E700BF002077
:106CA0000690002500BF6846008B801CB84201DDBD
:106CB0000920E7E700BF6846018B481C82B20692B4
:106CC000715C68460174018B481C82B20692715C4B
:106CD0006846417400BF407C410041186846008B03
:106CE0000818B84201DD0920CCE700BF6846008BD8
:106CF0003018059004A806F013FF054600BF002DCC
:106D000001D02846BEE700BF04A92046803006F027
:106D1000A8FD054600BF002D01D02846B2E700BF00
:106D20000020069001A920468030FFF70DFB109847
:106D3000018801AB06AA0A9807F08CFF054600BF40
:106D4000002D01D028469DE700BF6846018B1098B2
:106D50000180002096E7F8B50446069F00BF022197
:106D600020460C3001F03AF8002802D101208003BF
:106D7000F8BD00BF00BF2078202802DB2078212842
:106D800001DD0820F4E700BF002500264021204651
:106D9000803006F094FE064600BF002E01D030463B
:106DA000E6E700BF00253D800020E1E7F0B585B0B3
:106DB00004461E460A9F00BF022120460C3001F007
:106DC0000DF8002803D10120800305B0F0BD00BFFD
:106DD00000BF2078202802DB2078212801DD082050
:106DE000F3E700BF0020039000252046803006F026
:106DF00035FE054600BF002D01D02846E5E700BF5F
:106E000000200390694620468030FFF79DFA3988BC
:106E10006B4603AA304607F01DFF054600BF002D54
:106E200001D02846D1E700BF68468089388000201D
:106E3000CBE7FFB587B004460E46109F00BF022186
:106E400020460C3000F0CAFF002803D10120800347
:106E50000BB0F0BD00BF00BF2078202802DB2078F7
:106E6000212801DD0820F3E700BF0025002006905F
:106E700004AB06AA3046099907F0DCFC054600BFC2
:106E8000002D01D02846E3E700BF04A806F065FE08
:106E9000054600BF002D01D02846D9E700BF04A950
:106EA0002046803006F024FD054600BF002D01D0AD
:106EB0002846CDE700BF0020069001A9204680307B
:106EC000FFF742FA398801AB06AA0A9807F0C2FE1A
:106ED000054600BF002D01D02846B9E700BF68462F
:106EE000008B38800020B3E7F0B585B004461E461D
:106EF0000A9F00BF022120460C3000F06FFF0028DF
:106F000003D10120800305B0F0BD00BF00BF207891
:106F1000202802DB2078212801DD0820F3E700BFCC
:106F20000025002003902046803006F0A5FD054690
:106F300000BF002D01D02846E5E700BF00200390E8
:106F4000694620468030FFF7FFF939886B4603AA6F
:106F5000304607F07FFE054600BF002D01D02846D1
:106F6000D1E700BF6846808938800020CBE7FEB5B6
:106F700004460E46174600BF022120460C3000F0A2
:106F80002DFF002802D101208003FEBD00BF00BFFD
:106F90002078202802DB2078212801DD0820F4E772
:106FA00000BF0020019000256B4601AA39463046FB
:106FB00007F0FCFA054600BF002D01D02846E4E7A3
:106FC00000BF694620462C3006F044FB054600BF52
:106FD000002D01D02846D8E700BF00210191684666
:106FE0008188089801800020CFE7FEB504460E4650
:106FF000174600BF022120460C3000F0EFFE0028AB
:1070000004D101208003FEBD0C20002000BF00BF82
:107010002078202802DB2078212801DD0820F2E7F3
:1070200000BF00200290002501AB02AA394630467D
:1070300007F0D9FA054600BF002D01D02846E2E747
:1070400000BF01A92046FF30913007F0D2F8054675
:1070500000BF002D01D02846D5E700BF2046FF30F5
:10706000913007F05CF969462046FF30913007F017
:10707000CEF805210098084219D00098C007C00F2B
:1070800008D02046FF30913007F003F94321204615
:10709000FFF7B5F904210098084208D02046FF30D8
:1070A000913007F029F944212046FFF7A8F9002183
:1070B000029168460189089801800020A3E7FEB587
:1070C00005460E46174600BF022128460C3000F048
:1070D00085FE002802D101208003FEBD00BF0020F4
:1070E0000190002400BF012F01DA0920F5E700BF5D
:1070F00030786946FFF731F9044600BF002C01D013
:107100002046EAE700BF684601782846FFF777F98E
:10711000044600BF002C01D02046DEE700BF00205F
:1071200001900899019808800020D6E7F0B585B055
:1071300004461D460A9E00BF022120460C3000F086
:107140004DFE002803D10120800305B0F0BD00BF33
:1071500000BF2078402802DB2078452801DD082088
:10716000F3E700BF00210391002720212046FFF70D
:107170003EF92046FF30913007F0AAF820468030D3
:1071800006F06CFC07200AF0E5FE08200AF00BFD73
:1071900000210391694620468030FFF7D5F83188F9
:1071A0006B4603AA284607F055FD074600BF002F8F
:1071B00001D03846C9E700BF68468089308000208A
:1071C000C3E7F8B504460F46069D00BF01212046DF
:1071D0000C3000F003FE002802D101208003F8BD2E
:1071E00000BF002600BF2E800020F8E7FEB5044651
:1071F0001E46089F00BF022120460C3000F0EEFD25
:10720000002802D101208003FEBD00BF00200190B4
:107210000025207820280CDB2078212809DC0D218E
:1072200020463430FFF7C4F80D212046803006F0A8
:1072300046FC2078802803D080212046FFF7D7F82D
:1072400000200190684609F0DFF9398801AA30462C
:10725000009B09F03DF8054600BF002D01D02846EF
:10726000D2E700BF6846808838800020CCE7F8B5B8
:1072700004460F46069D00BF2078012801D0082053
:10728000F8BD00BF002607212046FFF7B0F800BF79
:107290002E800020F4E7FFB585B005460E46174660
:1072A00000BF012128460C3000F098FD002803D1D2
:1072B0000120800309B0F0BD00BF0020049000242D
:1072C00002AB04AA3946304607F0D7FA044600BF9D
:1072D000002C01D02046EDE700BF00210491684654
:1072E000808900900E98018804AA029B0898FFF7F5
:1072F0001DF9044600BF002C01D02046DAE700BF8C
:107300006846018A0E9801800020D3E710B5044634
:1073100000BFFE480068002801D10E2010BD00BF4C
:107320002046FA4909688847F8E7FEB504460D4645
:1073300016460021684601808480FFF7E7FF074674
:1073400000BF002F01D03846FEBD00BF0298286064
:107350006846C08830800020F6E73EB505460C46FA
:1073600002216846018084800295FFF7CFFF3EBD71
:10737000F0B585B0E64F00BF012138460C3000F073
:107380002DFD002803D10120800305B0F0BD00BF12
:107390000020049000210391029100240025DD4883
:1073A000068803AA04A90120FFF7BFFF044600BF17
:1073B000002C01D02046E8E700BF00BF69460889DD
:1073C000C01C8989884201DD0920DEE700BF3978C9
:1073D00068460289501C83B202930498815468461F
:1073E0000089019068460089801C81B20291F007F3
:1073F000C00F0BD002AA68468189BB68049808F0C8
:1074000067FF0446002C01D10120054302200642FB
:107410000CD03B46343302AA68468189049807F0B1
:107420007BFB0446002C01D10220054304200642C8
:107430000CD03B46403302AA68468189049807F085
:107440006BFB0446002C01D10420054308200642B2
:107450000CD03B46803302AA68468189049807F025
:1074600083FB0446002C01D108200543102006426E
:107470000CD0A948037802AA68468189049808F0CC
:10748000FDFE0446002C01D11020054320200642B9
:107490000DD0A2483818438802AA6846818904980A
:1074A00008F0FEFE0446002C01D1202005434020B8
:1074B00006420BD002AA684681893B6A049808F00C
:1074C00007FF0446002C01D14020054380200642DE
:1074D0000CD03B46283302AA68468189049807F0FD
:1074E00093FB0446002C01D180200543FF2001308E
:1074F00006421AD0684609F087F800280DD002AA83
:1075000068468189009B049808F0E2FE0446002C3E
:107510000AD1FF200130054306E07E480088FF21A4
:10752000013188437B49088000BF049A01981118F3
:10753000284600F04AFC6846018903918189049835
:10754000FFF70BFF0446002C0AD172480088A843BD
:1075500070490880724800680221884370490860B9
:10756000204612E7F8B50546694C002000902046F9
:107570001C3006F062FD20461C300178002904D042
:107580008168002901D1012100E00021002903D0F8
:1075900061212046FEF775FF6078002802DD6078E3
:1075A000401E607008F012FE064631462046FF304D
:1075B000913006F0BAFD207820287ADB2078212847
:1075C00077DC20462C3006F072F820462C3001780B
:1075D000002904D04168002901D1012100E00021E7
:1075E000002904D042212046FEF709FF0BE10020CC
:1075F000009069462046FF30913006F008FE0521D4
:10760000009808421AD00098C007C00F08D0204642
:10761000FF30913006F03DFE43212046FEF7EFFE9D
:10762000042100980842E1D02046FF30913006F056
:1076300063FE44212046FEF7E2FEE4E000200090D5
:1076400069462046803006F085F90098C007C00FD3
:1076500003D0A07801210843A070022100980842BD
:1076600005D02C480088082108432A4908800020BA
:10767000009069462046343006F0B7FB0098C007FA
:10768000C00F03D0A07802210843A0700221009807
:10769000084203D0A07804210843A0706078002835
:1076A000A4D1A0780028A1D0A08809F0ABFCAAE062
:1076B000FFE72078402848DB2078452845DC207803
:1076C000432802D02078442890D1002000906946B9
:1076D0002046FF30913006F09AFD0A2100980842BA
:1076E00084D002210098084204D02046FF30913017
:1076F00006F0EEFD08210098084204D02046FF3035
:10770000913006F00CFE212120460BE004200020E1
:10771000F02100200C2000200A200020860200001A
:1077200010200020FEF763FE2046803006F096F918
:10773000F948008808210843F749088007200AF023
:1077400009FC08200AF02FFA5DE02078012836DBDA
:107750002078072833DCF148007800280BDDEF485B
:107760000078401EED49087008460078002802D1D4
:1077700007200AF0EFFB2078012814D1E8482018F0
:1077800009F0BCF8E648201800F030FB00283AD099
:10779000E148008820210843DF4908800221204673
:1077A000FEF725FE2FE0207802282CD100BF012013
:1077B000002828D006212046FEF719FE23E0207875
:1077C000002820D10AF09FFB807D00281BD1D448DF
:1077D000201809F093F8D248201800F007FB002881
:1077E0000AD0CD48008820210843CB4908800221D7
:1077F0002046FEF7FCFD03E001212046FEF7F7FDE1
:107800000A20C6490870C7480078C007C00F10D0CA
:10781000FEF7BEFD002807D1C3480078401E0006D1
:10782000000EC149087004D10820BF490870FFF755
:107830009FFDF8BDF8B50546BC4C2E46317868462C
:10784000017031794170308981B2684641806A4661
:10785000518810780AF04BFD012801D16946487023
:1078600068464078002804D001286DD0022876D1DF
:1078700070E0201D0188002901D1012100E00021D4
:10788000018000BF207820285DDB207821285ADC89
:10789000022060702046FF30913006F097FCA078FF
:1078A000C007C00F0ED0A07840084000A07020464E
:1078B000803006F017F99848008808210843964957
:1078C000088022E0A078022108420DD0A0788843E9
:1078D000A0702046343006F09FF98F4800880221BE
:1078E00008438D49088010E0A078042108420CD09C
:1078F000A0788843A0702046343006F0A4F986486A
:107900000088042108438449088085496018478815
:1079100000BF0846201808F0BFFF81496018418861
:10792000002904D162212046FEF7ABFD0AE07C4924
:1079300060184188B94205D0774800882021084363
:107940007549088000BF0FE060212046FEF799FDD1
:107950000AE004E063212046FEF793FD04E0652180
:107960002046FEF78EFD00BF00BFF8BDFFB583B017
:1079700007460C9C002002906C4D00263846182FBC
:107980007AD018DC13285FD00CDC032837D004DC55
:10799000012824D0022870D129E0042837D01228E9
:1079A000F9D13CE014285BD0152868D0162874D093
:1079B0001728F0D180E01E286ED007DC19380300AC
:1079C0000BF0BEFC05929EB6C2CE5B001F2870D0A5
:1079D00080286FD0F0286ED0F128DCD1F2E000943E
:1079E000284604A90EC9FEF71BFE0290F7E000949A
:1079F000284604A90EC9FEF74AFE0290EFE0009463
:107A0000284604A90EC9FEF769FE0290E7E000943B
:107A1000284604A90EC9FEF743FF0290DFE0009458
:107A2000284604A90EC9FEF756FF029028462C30BE
:107A300005F02AFE09F08AFE142008F073FF38488A
:107A4000281808F039FFCAE00094284604A90EC996
:107A5000FFF75AF8029028462C3005F015FEBEE0DC
:107A60000094284604A90EC9FFF7A4F802902846FE
:107A70002C3005F009FEB2E02AE0ABE0FFE700940D
:107A8000284604A90EC9FFF7EEF8029028462C30CC
:107A900005F0FAFDA3E000E06EE00094284604A99A
:107AA0000EC9FFF758F9029028462C3005F0ECFD7E
:107AB00095E06DE074E07BE00094284604A90EC9CF
:107AC000FFF774F9029028462C3005F0DDFD86E0C2
:107AD0000094284604A90EC9FFF7ABF90290284686
:107AE0002C3005F0D1FD7AE00094284604A90EC997
:107AF000FFF7FAF9029028462C3005F0C5FD6EE03C
:107B00000094284604A90EC9FFF731FA02902846CE
:107B10002C3005F0B9FD62E00C2000200820002088
:107B2000860200001020002009200020F021002003
:107B30000094284604A90EC9FFF757FA0290284678
:107B40002C3005F0A1FD4AE00094284604A90EC996
:107B5000FFF7B5FA029028462C3005F095FD3EE07F
:107B60000094284604A90EC9FFF7E0FA02902846BF
:107B70002C3005F089FD32E00094284604A90EC996
:107B8000FFF71FFB029028462C3005F07DFD26E014
:107B90000094284604A90EC9FFF728FB02901EE0B6
:107BA0000094284604A90EC9FFF775FB029016E061
:107BB00006998819052290A10AF0D2FC701D86B2A0
:107BC00026800CE00094284604A90EC9FFF74FFB5D
:107BD000029004E0002020800620029000BF00BF39
:107BE000029807B0F0BDF0B589B0044608940025AE
:107BF000089C6668089C20880790002006900590E5
:107C000000BF05AA06A90020FFF78FFB0546042D3B
:107C1000F7D0002D2DD16846808A801E81B2059153
:107C200005A800900799491E8AB23078069B9B1CD4
:107C3000711CFFF79BFE0546002D01D0002005902A
:107C4000284605F027FA0746069900F0BEF869466F
:107C5000898A401881B20591069804906846878AFF
:107C60000121818007810498039001A8FFF74EFB52
:107C700000BF09B0F0BD1FB561480090684600F034
:107C800094FF1FBD01B584B05E4800906846007C3B
:107C900001906846417C0291418A039100F085FF82
:107CA00005B000BD70B505460C46204608F09DFBAA
:107CB000002806D054480088FF210131084352496A
:107CC000088070BD70B505460C46204608F09CFB48
:107CD000002806D04C480088FF21013108434A495A
:107CE000088070BD7FB504460D464848009001AE3F
:107CF00035807460684600F058FF04B070BD10B560
:107D0000434805F08BFC4348006840084000414967
:107D1000086010BDFEB506460D463D4C0C3C0027E4
:107D200000212046FEF763FB0020A0803A49304640
:107D300008F020F9394809F02AF9102008F03BFB37
:107D400020460C3005F076FC20462C3005F0C1FCB6
:107D50002046803005F0CCFE00BF20200090304847
:107D600001904820029069462046343006F09EF883
:107D7000074600BF2046FF30913006F008FA09F0B0
:107D8000E5FC142008F0CEFD2648201808F094FDEC
:107D900020461C3006F07FF92046283006F0DCFA39
:107DA0000AF036FA304608F01CF901201E49087026
:107DB0000020184908601D4908701D4908701249C3
:107DC00008801C4805603846FEBD02460A70FF2048
:107DD00000021040001248700220704702461078DE
:107DE000884201DB012070470020FCE7014608784B
:107DF000C007C00F704700006A6E303132000000CB
:107E000065750100357801000C200020E77B01003A
:107E1000FC21002010200020777C0100857C0100DF
:107E2000A821002086020000092000200820002050
:107E30000A20002004200020FEB5044600252088EA
:107E4000002804D0012820D0022827D116E0A088DD
:107E500000280DD16A4601A9FE4805F005FB05463C
:107E6000002D04D168460188E1800199A16004E0F9
:107E70001421E180F849A160002511E0A288F548AD
:107E8000A16805F0CAFA05460AE0A668A7883A463E
:107E90003146F04805F029FB054601E0072500BF03
:107EA00000BF2846FEBD10B504462088012802D038
:107EB000022804D100E000BFFFF721FF00E000BF6F
:107EC00000BF10BD70B506460C461546E148864217
:107ED00004D129462046FFF705FF70BD0F20FCE7BF
:107EE000FEB5044600252088012802D002281BD1B7
:107EF0000DE06A4601A9D94805F054F80546002D61
:107F000004D168460088A0800199A1600EE0A08895
:107F1000002808DDA668A7883A463146CF4805F014
:107F20006BF8054600BF01E0072500BF00BF2846EB
:107F3000FEBD70B506460C461546C848864204D1BB
:107F40002946204600F00FFE70BD0F20FCE770B5FB
:107F500004460D4616462DDF70BD38B5684603F061
:107F600066FD044600BF2546002D07D000BFBCA219
:107F7000FF21D0312846FFF7EAFF00BF00BF00987D
:107F8000002803D00120BB49087038BD1421BA482D
:107F90000AF04EFBB9480088B949884203D0022054
:107FA000B549087002E00020B34908700020B249CA
:107FB0004860087219208001088200204882084623
:107FC00073DF0446002C02D10120AE49087000BFC7
:107FD000DBE710B5AB480078002801D1FFF7BDFF03
:107FE00010BD10B50024A849002007F0C3FF0446C7
:107FF000002007F0F6FF044610BD0146002001E016
:10800000421CD0B20628FBDB70477CB504462088B2
:10801000152802D016280DD103E0A01DFFF7EDFFB3
:1080200009E0002000900190A179A0886A4680DFD5
:10803000054600E000BF00BF7CBD3EB500BF6846FE
:10804000007801090901491C009168460078F02177
:1080500088431030009000BF02228CA168467CDF6C
:10806000044600BF2546002D07D000BF7CA2FF219B
:1080700080312846FFF76BFF00BF00BF0020019052
:108080000290C821684681808900C1800321018156
:10809000FF219131418101A87ADF044600BF2546C6
:1080A000002D07D000BF6EA2FF218C312846FFF7BC
:1080B0004EFF00BF00BF3EBD70B598B006210991CC
:1080C00000247348C06B734908600A46106804AA0C
:1080D00011190870FF2212020240120A4A70FF2290
:1080E00012040240120C8A70020ECA700422141983
:1080F00033222046641C04A90A544B222046641CE7
:108100000A54654A07CA01AB07C36846048104A93B
:10811000039138210AA80AF08BFA022108A80172FB
:108120000021817201216846818509A90C910021F5
:1081300010A8018001A815900AA801F01AFC0546B4
:1081400000BF2E46002E07D000BF45A2FF21BE3142
:108150003046FFF7FCFE00BF00BF18B070BD30B561
:108160009FB04D4B0C330FCB6C460FC404A968462F
:1081700063DF044600BF2546002D06D000BF38A2AD
:1081800046492846FFF7E3FE00BF00BF6846017C72
:1081900008A8017242480B90C021684601864148F8
:1081A0000D9000BF0AA8807C00090001401C0AA9AC
:1081B00088740AA8807CF021884310300AA988744A
:1081C00000BF00BF08A8007E01090901491C08A8DA
:1081D0000176007EF0218843103008A9087600BFA0
:1081E0000AA91C4805F096F8044600BF2546002D54
:1081F00007D000BF1AA24121C9002846FFF7A7FEF9
:1082000000BF00BF6846017C017527480890142113
:10821000684681840020069000BF05A8807A000986
:108220000001401C05A9887205A8807AF0218843C6
:10823000103005A9887200BF00BF6846007F0109A1
:108240000901491C68460177007FF02188431030FE
:1082500069462BE0D82B0020F42C0020082D0020AC
:108260002E2E5C736F757263655C6D61696E2E6333
:108270000000000016200020C42B00201420002045
:10828000FFFF000017200020D37F01004D540000A5
:10829000C010001020200020E0370200FF01000085
:1082A000342C0020A77E01005C2D0020087700BF41
:1082B00005A9FE4804F01CFE044600BF2546002D1B
:1082C00006D000BFFA4AFB492846FFF740FE00BF30
:1082D00000BF40210FA80AF0ABF9F7A10FA800F0EA
:1082E0009BFE00BF18A8007E01090901491C18A8BF
:1082F0000176007EF0218843103018A9087600BF6F
:1083000000BF1EA84078000900011EA948701EA8E1
:108310004078F02188431EA9487000BF0FA800F0E4
:1083200065FD044600BF2546002D07D000BFE04A8A
:10833000E0490A312846FFF70AFE00BF00BF1FB020
:1083400030BD70B505462878002811D13B21DC48A6
:10835000008876DF044600BF2646002E07D000BF07
:10836000D34A8D2189003046FFF7F1FD00BF00BFE1
:1083700070BD10B5044600BFCD4ACE492E3120460F
:10838000FFF7E5FD00BF10BD30B587B01C21684682
:108390000AF04EF900200090142001900520029070
:1083A0000321684601730021C1810174C54805900D
:1083B000C5480690684600F0BBFE044600BF25464F
:1083C000002D07D000BFBA4ABA4945312846FFF709
:1083D000BEFD00BF00BF07B030BD0188102904D02A
:1083E000112909D0192914D10DE00221B74A1170C1
:1083F0008188B34A11800DE00021B44A1170491EF2
:10840000AF4A118006E08179002901D1AF4A11708D
:1084100000E000BF00BF7047022802D0032809D146
:1084200000E000BFAA490978002902D00021A84A2B
:10843000117000E000BF00BF704710B50446204631
:10844000FFF7E3FD204602F0B1F92146A14804F010
:10845000C2FF2146954804F08AFD204600F040FF07
:108460002046FFF7BAFF10BD10B50446204602F0C3
:108470004EFF2046FFF7D0FF10BDF8B500BF002328
:1084800050229549082004F0CEF8054600BF2E463C
:10849000002E07D000BF864A8649AD313046FFF72F
:1084A00056FD00BF00BF00BF00200090009068464E
:1084B00060DF044600BF2546002D07D000BF7C4A80
:1084C0007C49B5312846FFF742FD00BF00BF834815
:1084D00004F0DEF8044600BF2546002D07D000BF9B
:1084E000734A7449BA312846FFF731FD00BF00BF17
:1084F0007B4804F0D6F8044600BF2546002D07D07F
:1085000000BF6B4A6B49BE312846FFF720FD00BF14
:1085100000BFF8BDF8B506460F46144600BF254615
:10852000002D07D000BF624A6249CD312846FFF7CF
:108530000EFD00BF00BF0020F8BD30B587B002F0CF
:1085400089FF044600BF2546002D07D000BF584ACA
:108550005849DD312846FFF7FAFC00BF00BF012073
:10856000069006A801F0C4FC044600BF2546002D75
:1085700007D000BF4E4ABD2189002846FFF7E7FC1F
:1085800000BF00BF062104A802300AF04FF81E21E8
:108590006846418203A8007A40084000401C03A9B5
:1085A000087203A8007A02218843801C03A908727C
:1085B00003A8007A1C21884303A9087203A8007A43
:1085C00020218843203003A90872072103A84172A3
:1085D000102181724348039001216846017403A968
:1085E000414801F0F4FC044600BF2546002D07D0A9
:1085F00000BF2F4A2F49FD312846FFF7A8FC00BFD6
:1086000000BF3A48019001A9212068DF044600BF5D
:108610002546002D06D000BF254A35492846FFF7DC
:1086200096FC00BF00BF07B030BD38B500BF0020CA
:10863000304B09220821009003F007FE044600BFDA
:108640002546002D07D000BF194A29493831284650
:10865000FFF77DFC00BF00BF00BF38BD1FB505E0C0
:108660000098002802D001A800998847684600F0C9
:10867000A3FA0028F4D0002004B010BD10B50021EA
:10868000084600F02EF901220021104600F03DF9C5
:1086900001220021022000F038F90021032000F01F
:1086A00020F90021042000F01CF925E0082D00200D
:1086B00060820100110200004D65647472756D00E6
:1086C0001420002043830100738301001720002041
:1086D00016200020D82B00207C2400203B840100A1
:1086E0006984010015850100242000201820002045
:1086F00016030000CC240020052000F0E9F8052036
:1087000000F0FEF80021062000F0EBF80021072021
:1087100000F0E7F80021082000F0E3F8002109202C
:1087200000F0DFF80A2000F0D3F80A2000F0E3F8A8
:108730000B2000F0CDF80B2000F0E2F80C2000F048
:10874000C7F80C2000F0D7F80D2000F0C1F80D207C
:1087500000F0D1F80E2000F0BBF80E2000F0CBF8AE
:108760000F2000F0B5F80F2000F0C5F8102000F041
:10877000AFF8102000F0BFF8112000F0A9F8112088
:1087800000F0BEF80021122000F0ABF80021132009
:1087900000F0A7F80021142000F0A3F80021152014
:1087A00000F09FF80021162000F09BF80021172010
:1087B00000F097F80021182000F093F8002119200C
:1087C00000F08FF800211E2000F08BF800211F2000
:1087D00000F087F810BD0024FFF74FFEFFF725FFDC
:1087E000FFF7ABFEFFF729FCFFF766FCFFF7B7FCCE
:1087F00000BF012252024B49042000F0CBF904468D
:1088000000BFFFF73BFF00BF474A0C21082008F0DC
:1088100097F8054600BF2E46002E06D000BF434AFB
:1088200043493046FFF793FB00BF00BF00BF09F08C
:10883000A4FC08F020FA08F05AFF09F07DF909F0CD
:10884000F8FB09F06AFB07F005FCFFF79DFD3948CE
:1088500007F0C3FF044606F03BFC07F00FFC0120C5
:1088600007F0F3FC344800F08CF934490220FFF79C
:1088700051FAFFF7B6FB00BFFFF7F0FE044600BF5A
:108880002546002D07D000BF284A29493F312846F8
:10889000FFF75DFB00BF00BF08F013F940DF04469F
:1088A00000BF2546002D07D000BF204A2049433194
:1088B0002846FFF74CFB00BFDEE700BFBFF34F8F3A
:1088C0001F482049C860BFF34F8F00BF00BFFEE7BD
:1088D00003210522120707231B02D2188300D1505F
:1088E000704710B58A0005231B07072424021B19B3
:1088F00084001A5110BD01218140134A91607047D4
:1089000001218140104AD160704730B58B0054007E
:1089100023430524240707252D026419850063518C
:1089200030BD0000F4280020F42A002060820100FD
:108930001C040000CD0C0000E17E0100397E010026
:108940000400FA0500ED00E0000500503EB50546C4
:108950000C4600BF8D480068002801D10E203EBDA6
:1089600000BF02216846018084800295874909681A
:108970008847F4E7FEB504460D4600BF834800680B
:10898000002801D10E20FEBD00BF0026012069464F
:10899000088068467D4909688847064600BF002E62
:1089A00001D03046EFE700BF02982060684680881B
:1089B00028800020E7E7FEB506460F46002001901C
:1089C000002500BF681DB84201DD0920FEBD00BFC3
:1089D0002846691C8DB2345C00BF012C03D0022CE8
:1089E00001D00720F2E700BF701900BF017842787C
:1089F00012021143827812041143C2781206114305
:108A000000910421481985B2012C07D100BF07F05D
:108A100019FC002801D00820D8E700BF009807F013
:108A200090FB019000BF0198002801D00198CDE78C
:108A300000BF0020CAE7F8B506460D46002400270F
:108A400000BF2988201D814201DA0920F8BD00BF3E
:108A5000684607F08BFB074600BF002F01D0384661
:108A6000F4E700BF311900980870FF22120202409B
:108A7000120A4A70FF2212040240120C8A70020E7F
:108A8000CA700422101984B22C800020DEE7FFB5E2
:108A900083B004460D4616460C9F002002900190BC
:108AA000012C02D0022C0ED105E031462846FFF7FA
:108AB00082FF02900AE03888019001A90698FFF72A
:108AC000BAFF029002E00620029000BF00BF684695
:108AD00080883880029807B0F0BDF0B587B00446B2
:108AE00000250694069C60680590069C20880490EA
:108AF00000200390029000BF02A903A8FFF73AFFED
:108B00000546042DF8D0002D2BD168460089801E23
:108B100081B2029102A800900499491E8AB2059977
:108B20000878039B9B1C491CFFF7B1FF0546002DED
:108B300001D000200290284604F022F90646039F47
:108B40003E70FF200002304000127870022168461B
:108B50000089081881B20291684601890398FFF7DD
:108B6000F5FE07B0F0BD7FB504460D460026084867
:108B7000009001AE35807460684600F016F804B0CD
:108B800070BD014601480160002070472820002088
:108B9000DB8A010070B504460D46164633462A4668
:108BA0002146094807F09CF870BD10B504462146DF
:108BB000054807F0DDF810BD10B50446214602480F
:108BC00007F037F910BD0000702D002070B5044685
:108BD0000D4600BF002D01D0012000E00020064618
:108BE000002E05D100BFE6A23321FFF7B0F900BF88
:108BF00000BF00BF002C01D0012000E0002006468D
:108C0000002E05D100BFDEA23421FFF7A0F900BF7E
:108C100000BF2878207029882879FF231B0219407B
:108C200000200206080A1043607028791B02296898
:108C3000194000200204080C1043A07029791B027F
:108C40002868184000210902000E0843E0702879C6
:108C50002071287A6071190CA8680840000AA07178
:108C60000902A8680840000CE07170BDF8B505461F
:108C70000E46002400BF002E01D0012000E000209D
:108C80000746002F05D100BFBDA24B21FFF75FF9BA
:108C900000BF00BF00BF002D01D0012000E0002078
:108CA0000746002F05D100BFB5A24C21FFF74FF9B1
:108CB00000BF00BF32782046611CCCB22A5429196B
:108CC000708800F054F90019C4B22919B08800F076
:108CD0004EF90019C4B22919F08800F048F90019BA
:108CE000C4B200BF072C01D1012000E000200746DC
:108CF000002F05D100BFA2A25421FFF728F900BF21
:108D000000BFF8BDF0B58FB007460D4614461E46AD
:108D100000BF002D01D0012000E00020009000984D
:108D2000002805D100BF96A26D21FFF710F900BF02
:108D300000BF00BF002C01DD012000E000200090FA
:108D40000098002805D100BF8DA26E21FFF7FFF823
:108D500000BF00BF1C2107A809F06AFC6946087F14
:108D600002218843801C69460877002008900A90F9
:108D70000B900C900D9000BF012108A881766846E9
:108D8000078700BF00200190317868460171717833
:108D90004171807906218843811C68468171807900
:108DA00008218843014668468171807910218843F3
:108DB00001466846817180794108490068468171A1
:108DC000142102A809F034FC0EA8029001A8039017
:108DD00068460482002141828482069502AA07A97E
:108DE00072480088149BA2DF0FB0F0BD7FB5044627
:108DF00000BF0121684681736D49818100BF6B4AC4
:108E000003A90120A0DF0546002D02D0284604B0AA
:108E100070BD208800280DDD66480090228823461A
:108E20003C3365486168FFF76DFF0546002D01D0B2
:108E30002846ECE7208900280EDD60480090228952
:108E400023463C335C48401FE168FFF75BFF054663
:108E5000002D01D02846DAE7208A00280EDD584888
:108E60000090228A23463C335348001F6169FFF774
:108E700049FF0546002D01D02846C8E7208B002871
:108E80000EDD50480090228B23463C334A48801E1A
:108E9000E169FFF737FF0546002D01D02846B6E708
:108EA000208C00280EDD48480090228C23463C335D
:108EB0004148C01E616AFFF725FF0546002D01D01D
:108EC0002846A4E7208D00280EDD40480090228D22
:108ED00023463C333848401EE16AFFF713FF05463E
:108EE000002D01D0284692E7206B002813D001A85E
:108EF000216BFFF76BFE364823463C33082201A95D
:108F000000902D48801FFFF7FDFE0546002D01D083
:108F100028467CE700BF606B00280FD02D480090EA
:108F2000606B027923463C3301682348401CFFF7FD
:108F3000E9FE0546002D01D0284668E7A06B002811
:108F400013D001A8A16BFFF791FE234823463C33C1
:108F5000072201A9009018482730FFF7D3FE0546E5
:108F6000002D01D0284652E700BF00204FE70246FF
:108F70000A70FF2000021040001248700220704763
:108F80002E2E5C6E726635315C736F757263655C34
:108F9000626C655C626C655F736572766963655C63
:108FA000626C655F6469732E630000002C200020F2
:108FB0000A1800002E200020292A00003620002058
:108FC0003E200020462000204E2000205620002079
:108FD0005E200020662000206E200020F8B50546A7
:108FE0000E46002432782146641C6A547278214669
:108FF000641C6A5400BF022C01D1012000E0002053
:109000000746002F05D100BF08A22021FEF79FFFD1
:1090100000BF00BF2046F8BD70B504460D46284687
:1090200009F07CFA2080656070BD00002E2E5C6E19
:10903000726635315C736F757263655C626C655C1A
:10904000626C655F736572766963655C626C655FAF
:109050007372765F636F6D6D6F6E2E63000000003C
:10906000704701464888C34A1288904206DB488808
:10907000C04A5288904201DC012070470020FCE782
:1090800038B5BD480088BD49884203D1032006F0A9
:10909000C3FF38BDBA480068002847D0B848006808
:1090A000401EB74908600846006800283ED10320EA
:1090B00006F0B2FFB3480078401CB2490870B248CD
:1090C000007B097888420FDBAA49AB48008875DF2E
:1090D0000446002C07D0AC488069002803D0AA4879
:1090E00081692046884721E00020A6490870A648EB
:1090F000007C00280FD03B219F48008876DF044683
:10910000002C07D0A0488069002803D09E488169C0
:109110002046884700BF9C484069002806D00020B0
:109120000090994841696846884700BF00BFB0E792
:1091300070B505461C2229469348FDF755F80020D6
:1091400092490870286800280BD0082289482968AD
:1091500009F006FA87487ADF0446002C08D020463A
:1091600070BD84487BDF0446002C01D02046F7E721
:109170008048FFF775FF0020C0437F49088000202A
:10918000804908708249032006F0F4FEE8E710B534
:10919000032006F041FF10BD38B57E48FFF761FFA0
:1091A000002828D17948007800280AD076484069FC
:1091B00000281FD000200090734841696846884706
:1091C00018E070480078002802D16F48456801E037
:1091D0006D4885686A480560032006F002FF044672
:1091E000002C07D068488069002803D06648816950
:1091F000204688470AE064484069002806D00120DC
:109200000090614841696846884700BF00205F4977
:10921000087038BD10B50446A08857490880082258
:1092200021460E315B4809F09BF900205549087032
:109230005848FFF715FF5448C089002801D1FFF7AF
:10924000ABFF10BD70B505460020C0434A490880F9
:1092500000204C490870032006F0DEFE0446002C76
:1092600007D049488069002803D0474881692046D3
:10927000884770BD70B50546AC1D20884249C98934
:1092800088421FD1208B02281CD100BF00BFA17EC5
:10929000E27E120211430846C107C90F002902D01D
:1092A000FFF77AFF0EE0032006F0B6FE0646002E1A
:1092B00007D035488069002803D03348816930469B
:1092C000884700BF70BD10B504460822A11D314873
:1092D00009F046F92F48FFF7C3FEFFF75DFF10BD09
:1092E00010B504462088102806D0112808D012286E
:1092F0000ED0502810D107E02046FFF78BFF0CE07E
:109300002046FFF79FFF08E02046FFF7B3FF04E089
:109310002046FFF7D8FF00E000BF00BF10BD38B502
:10932000044608222146134809F01AF911487ADF49
:109330000546002D1CD11748FFF793FE00280BD1DE
:109340000120124908700B490B48008875DF05465B
:1093500001200C4908700BE00B484069002806D03A
:1093600001200090084841696846884700BF0025F1
:10937000284638BD7A20002084200020FFFF00000E
:109380009020002082200020942D002078200020B2
:10939000819001008620002010B518480078012136
:1093A00048401649087016480068002804D008464E
:1093B000007813490968884710BDF8B505460F467F
:1093C00016460F48066015202ADF0446002C01D0FF
:1093D0002046F8BD294615202BDF0446002C01D07D
:1093E0002046F6E7152026DF0446002C01D0204653
:1093F000EFE7394603204CDFEBE700009420002024
:1094000098200020F7B584B004460F4606980678E9
:10941000B01C1F2803DC6078801C1F2802DD0C2094
:1094200007B0F0BD1F20801B801E85B20295B11CC5
:10943000781802A97DDF03900398002801D00398D3
:10944000EEE72078022808D168460089A84204DCAB
:1094500009200190684605890BE00820019060789A
:10946000002804D06078A84201DC657801E06846F5
:109470000589681CC2B23046711CCEB23A543046DF
:10948000721CD6B20199395406980178A81C0818A4
:10949000C1B2069801700020C2E7F8B505460C4637
:1094A0002078001D1F2801DD0C20F8BD684679DFFB
:1094B0000646002E01D03046F7E703212278501CE3
:1094C0002070A95419212278501C2070A9542078AA
:1094D00041196846008800F089FA21784018207008
:1094E0000020E2E7F8B505460F4616461C466868B8
:1094F000002801D10720F8BD2078801C2988401859
:109500001F2801DD0C20F6E72878401CC1B2227824
:10951000501C2070B1542178481C207077542A8840
:1095200023789819696809F01BF820782978401881
:1095300020700020DFE730B503461078C01C1F28DC
:1095400001DD0C2030BD02241578681C10704C55CC
:109550000A241578681C10704C551578681C10701A
:109560004B550020EEE7FFB587B006461D46109C20
:109570000020069020780590002747E0B900706829
:1095800041180A886846028149884181002203A95E
:1095900002A865DF04900498002802D004980BB05C
:1095A000F0BD6846017B099881422ED106980028BB
:1095B00001D0002000E00220019020786946097B5C
:1095C0004118019808181F2801DD0C20E7E70698CC
:1095D000002809D12078401C20702278511C08985E
:1095E0002170A854012006902078421903A902A8EE
:1095F00065DF04900498002801D00498CFE7207814
:109600006946097B4018207000BF7F1C3088B84233
:10961000B4DC0698002806D021780598401C081A6A
:10962000C1B2059829540020B9E7FFB581B00746BB
:1096300015460A9E009602223846049B0299FFF7BF
:1096400092FF0446002C02D0204605B0F0BD0096E3
:10965000102229463846049BFFF785FF0446002C5C
:1096600001D02046F1E70020EFE7014608880628F0
:1096700008DB08881922D201904205DD0888E04AFB
:10968000904201D0072070474888062808DB4888A8
:109690001922D201904205DD4888D94A904201D072
:1096A0000720F0E70888D64A904208D048889042C0
:1096B00005D008884A88904201DD0720E3E70020B2
:1096C000E1E7F8B506460D4614462078801D1F28B0
:1096D00001D90C20F8BD3046FFF7C7FF0746002F21
:1096E00001D03846F6E705212278501C2070A95495
:1096F00012212278501C2070A954227851193088E8
:1097000000F074F92178401820702278511970887F
:1097100000F06CF92178401820700020DAE7F8B5E5
:1097200005460E4614462879801CC7B22078801C56
:10973000C0191F2801DD0C20F8BD781CC1B22278A9
:10974000501C2070B154FF212278501C2070B1545D
:1097500022789119288800F049F921784018207062
:10976000A88800280EDDA868002801D10720E3E7BB
:10977000AA8823789819A96808F0F2FE2078297938
:10978000401820700020D7E7FEB507460E46144665
:10979000386B002801D10720FEBD0020019032E087
:1097A000396B0C22019850430D182879801CC0B2E7
:1097B00000900098401CC1B22278501C2070B15417
:1097C00016212278501C2070B154227891192888D3
:1097D00000F00CF9217840182070A88800280EDDD0
:1097E000A868002801D10720D6E7AA88237898190D
:1097F000A96808F0B5FE20782979401820700198F2
:10980000401CC0B201903420C15D01988142C7DC88
:109810000020C1E7F8B504460F4616460025002093
:1098200030702078002809D0324639462046FFF7AC
:10983000E9FD0546002D01D02846F8BDA078002896
:1098400008D031463846FFF728FE0546002D01D0E6
:109850002846F2E7A08800280ADD33463A4601216F
:10986000201DFFF73FFE0546002D01D02846E4E706
:10987000E06800280BD00020E168085632463946DF
:10988000FFF759FE0546002D01D02846D5E7208A6E
:1098900000280CDD3B4606220221204610300096AF
:1098A000FFF7C3FE0546002D01D02846C5E7208BF3
:1098B00000280CDD3B460722032120461830009685
:1098C000FFF7B3FE0546002D01D02846B5E7208CF2
:1098D00000280CDD3B46152214212046203000963E
:1098E000FFF7A3FE0546002D01D02846A5E7A06A94
:1098F000002809D032463946A06AFFF7E2FE054645
:10990000002D01D0284698E7E06A002809D03246A9
:109910003946E06AFFF703FF0546002D01D02846CF
:109920008BE73420005D002809DD324639462046A9
:10993000FFF72AFF0546002D01D028467DE728467F
:109940007BE701468888002807D08868002804D073
:10995000886800780422104201D107207047002057
:10996000FCE701468888002801DD072070470020B9
:10997000FCE7F3B593B00D460021129111911398B5
:10998000002814D01398FFF7DCFF0446002C02D007
:10999000204615B0F0BD12AA09A91398FFF73AFFA7
:1099A0000446002C01D02046F3E709AE00E0002673
:1099B000002D13D02846FFF7D4FF0446002C01D019
:1099C0002046E6E711AA01A92846FFF723FF04462F
:1099D000002C01D02046DCE701AF00E0002710A8F2
:1099E00003793A46017A304672DFD2E702460A70BE
:1099F000FF20000210400012487002207047000053
:109A0000FFFF000070B503460C460820002114E05B
:109A10000C254D43FE4EAD19AD7A25420CD0FD4DBF
:109A2000AB4205D00C254D43AD192D899D4202D185
:109A30001160002003E00520491C0029E8D000BF88
:109A400070BD10B5044618216143F34A89180846D1
:109A50001130062108F0EAFD18206043EE49401855
:109A60000021016041608160C160FF2118206043D6
:109A7000E94A80180174182060438018C175204697
:109A800001F023F910BD7CB50546A9B26A46E3484A
:109A900001F0F2FD0446002C09D14C21684601F08A
:109AA0006AFF0446002C02D12846FFF7CAFF204671
:109AB0007CBDF8B505460E46052700240FE01821A9
:109AC0006143D54A8918084610300722294608F014
:109AD000F7FC002802D13460002702E0641C072C48
:109AE000EDD300BF3846F8BD10B5044601210C2067
:109AF0006043C74A80188172891E0C206043801819
:109B00000181FF210C2060438018C1720C21614348
:109B10008818072108F08AFD10BD10B50446002002
:109B200010BDF0B587B007460C461420019061784F
:109B30000C225143B64A8918088901AA02A9AADF52
:109B40000646002E46D1617818225143B44A89183E
:109B5000081D69468A8802A908F0B2FC002812D1C3
:109B600060780C214843AA494018807A02210840B5
:109B700002282FD0617818225143A94A8818182149
:109B800008F056FD26E0607818214843A44908589B
:109B9000002801D0A34D00E0A34D69468988607874
:109BA000182250439E4A11506178182251439C4A12
:109BB0008918081D69468A8802A9FCF715FB607898
:109BC00018225043964A8118302318223846A84755
:109BD000064600BF002007B0F0BD024600207047D7
:109BE00070B505460C466178182251438C4A881896
:109BF00030231822294601F04DFE0646002E0CD1D6
:109C000060781821484386490858401C05D1002136
:109C1000607818225043824A1150304670BD024687
:109C200000207047F8B50446002600276078182108
:109C300048437B49085800281FD060780C214843CE
:109C400073494018807A40210840402815D1607837
:109C50000C2148436E494018807A20210840202872
:109C60000BD06078182148436D494018061D607874
:109C7000182148436A49085A87B261780C22514337
:109C8000634A891808893A463146A9DF0546002DFE
:109C900000D0664D2846F8BD0146002070470146B9
:109CA000002902D1614833387047FF20087048709E
:109CB0008870C8700020F7E7FFB58BB00F461D46CF
:109CC00000BF5B480068002801D10FB0F0BD00BFA5
:109CD00014984C2800D9F8E70120029007A8FFF754
:109CE000DEFF064600BF0196019E002E06D000BF93
:109CF00050A260490198FEF72AF900BF00BF002179
:109D00006846017708A80170069514980590002010
:109D1000019017E0019881B203AA404801F0ACFC21
:109D20000646002E0BD1082203A90B9808F0C8FBA9
:109D3000002804D10198C1B26846817705E00198F6
:109D4000401C019001980728E4D300BF6846807F3B
:109D5000FF285BD0042F0AD114984C2803D120206F
:109D600008A90870A0E0402008A908709CE02A49D2
:109D7000681A182108F05EFC0446072C1CD205A8BE
:109D800009900D9800280FD16946887F01218140F4
:109D9000394A1268114201D0012100E00021002956
:109DA00002D1002002907FE06946887F00F08DFF9D
:109DB000202008A9087077E03049681A182108F0B7
:109DC00039FC0446002C0DD105A80990202108A8D3
:109DD000017068464477807F182148430E49401837
:109DE000069061E00E49681A182108F023FC044629
:109DF000002C54D1302108A8017068464477012115
:109E0000C1770C2060430249401839E06EE0000041
:109E1000882E0020FFFF0000B02D0020A020002091
:109E2000702E0020CBB7010001B701004180000077
:109E3000942E00202E2E5C6E726635315C736F7529
:109E40007263655C626C655C6465766963655F6DB1
:109E5000616E616765725C6465766963655F6D619B
:109E60006E616765725F7065726970686572616C5A
:109E70002E630000BC040000A8200020582E002003
:109E8000807A0221084002280ED06946497F1822B4
:109E90005143F94A8818182108F0CAFB04E0002051
:109EA0000290402008A90870029801281ED1042FB2
:109EB00006D108A908780321084308A908700EE014
:109EC000032F06D108A908780121084308A90870C2
:109ED00005E008A908780221084308A9087005A828
:109EE000099008A907A80D9A00F032FF00BFECE620
:109EF0007FB50646002E02D1E04804B070BD0024B4
:109F00000BE000BF00210C206043DD4A11500C2003
:109F100060438018817200BF641C002CF1D00024C3
:109F200003E02046FFF7E0FD641C002CF9D0182167
:109F3000D14808F07DFB002406E02046FFF781FDB4
:109F4000FF20D0490855641C072CF6D34C216846E5
:109F500081810721C181CC480290CC4902A801F03F
:109F6000D9FA0546002D30D10120C9490870307852
:109F7000002821D100241CE0A1B26A46C34801F0A8
:109F80007BFB0546002D0FD118216143C14A88187B
:109F900000231822694601F07DFC0546002D07D0FC
:109FA0000020BB49087006E00020B949087002E0B3
:109FB000641C072CE0D308E06A469089D28950439C
:109FC00081B2B24801F0D7FC0546284695E770B546
:109FD00005460C4600BFAE480078002802D1A748CD
:109FE000801F70BD00BF002D01D1A448F9E7002CEF
:109FF00001D1A248F5E72068002801D19F48F0E789
:10A000009F48006800280FD19D49206808600622FB
:10A01000A11D9B48001D08F0A3FA20799849887279
:10A0200000202870002601E0944E0A3E3046D8E712
:10A0300070B5044600BF96480078002802D18F48CA
:10A04000801F70BD00BF002C01D18C48F9E700BF14
:10A050002078012806DA20780C21484388490858DE
:10A06000002802D18548801FEBE700BF00BF607861
:10A07000012807DA60780C21484387494018807A24
:10A08000012802D17D48801CDBE700BF7B4DAD1F5E
:10A0900060780C21484380494018807A02210840AA
:10A0A000022809D161780C2251437B4A891808891A
:10A0B0007349091D7EDF05462846C2E7024600BFF8
:10A0C00073480078002802D16C48801F704700BF99
:10A0D000002A01D16948F9E7002901D16748F5E76D
:10A0E00000BF1078012806DA10780C235843644B1F
:10A0F0001858002802D16148801FE7E700BF00BF61
:10A100005078012807DA50780C235843624BC01866
:10A11000807A012802D15948801CD7E700BF5078C7
:10A120000C2358435C4BC018807A0423184202D099
:10A13000012008700DE050780C235843564BC0188E
:10A14000807A4023184202D00220087001E00020EB
:10A1500008700020BAE7F0B5044600BF4C4800780C
:10A16000002802D14548801FF0BD00BF002C01D15E
:10A170004248F9E7002901D14048F5E7086800287E
:10A1800001D13E48F0E78868002801D13B48EBE761
:10A1900000BF2078012806DA20780C256843384D66
:10A1A0002858002802D13548801FDDE700BF002372
:10A1B0000022002022E018254543364EAD19ED7DE2
:10A1C000ED07ED0F08D118254543AD1997008E68AE
:10A1D000F5512C4EB054521C182545432D4EAD1947
:10A1E000ED7D0226354208D118254543294EAD198B
:10A1F00010359F000E68F5515B1C401C072805D2E6
:10A200000D799D4202D90D7B9542D4D80B710A730A
:10A210000020A9E7024619488230704770B504460D
:10A2200000BF1B480078002802D11448801F70BD71
:10A2300000BF002C01D11148F9E700BF20780128A8
:10A2400006DA20780C2148430D490858002802D12D
:10A250000A48801FEBE700BF00BFA078072807DA95
:10A26000A078182148430B494018C07DFF2815D11C
:10A270000248801CDBE70000702E00200E800000EA
:10A28000942E0020AC200020B99C0100A0200020CA
:10A290009C200020B02D0020882E002000BFA07838
:10A2A000FFF7F1FB05462846C1E770B5044600BF3D
:10A2B000FE480078002801D1FD4870BD00BF002C89
:10A2C00002D1FB48801DF8E700BF2078012806DA9C
:10A2D00020780C214843F7490858002801D1F44858
:10A2E000EBE700BF002600250BE018206843F24989
:10A2F0004018C07DFF2803D02846FFF7C4FB064660
:10A300006D1C072DF1D33046D7E7FEB504460D4648
:10A3100000BFE6480078002801D1E548FEBD00BF37
:10A32000002C02D1E248801DF8E7002D02D1E04860
:10A33000801DF3E700BF2078012806DA20780C2181
:10A340004843DC490858002801D1D948E6E700BF56
:10A3500000BF6078012807DA60780C214843D749AC
:10A360004018807A012802D1D1480830D6E700BFD2
:10A3700000BFA078072807DAA07818214843CE4903
:10A380004018C07DFF2802D1C9480830C6E700BF89
:10A39000A868002812D0686800280FD068681428C0
:10A3A0000CD22878012809D1637818277B43C44F41
:10A3B000DB19181D6A68A96808F0D2F8A1786A4606
:10A3C000C04801F059F9064628788000BE490A586D
:10A3D000214668469047064630469FE77CB50446CE
:10A3E0000D4600BFB1480078002801D1B0487CBDBF
:10A3F00000BF002C02D1AE48801DF8E7002D02D12D
:10A40000AB48801DF3E700BF2078012806DA2078EA
:10A410000C214843A7490858002801D1A448E6E781
:10A4200000BF00BFA078072807DAA07818214843AA
:10A43000A1494018C07DFF2802D19D480830D6E7C9
:10A4400000BF60780C2148439C494018807A022163
:10A450000840022802D096488930C8E7A86800283A
:10A4600012D1686814280FD2287801280CD160789E
:10A470001821484392494018001DA86060781821AF
:10A4800048438F4908586860A1786A468D4801F0B2
:10A49000F3F80646287880008C490A582146684619
:10A4A000904706463046A2E7014600BF7F48007845
:10A4B000002801D17E48704700BF002902D17C48A6
:10A4C000801DF8E700BF0878012806DA08780C221A
:10A4D0005043784A1058002801D17548EBE700BF77
:10A4E00000BF8878072807DA887818225043724A14
:10A4F0008018C07DFF2802D16D480830DBE700BF1F
:10A500006B488830D7E70246694889307047024671
:10A510006748893070470146654889307047024670
:10A5200000BF62480078002801D16148704700BF31
:10A53000002902D15E48801DF8E7002A02D15C485C
:10A54000801DF3E700BF1078012806DA10780C238D
:10A550005843584B1858002801D15548E6E700BF2A
:10A56000107808700020E1E7FEB504460E46A17899
:10A570006A46544801F080F80546002D49D16078BC
:10A580000C2148434D494018807A2021084020285A
:10A5900001D0022E01D14E4F04E0012E01D14D4FCA
:10A5A00000E04D4FA07818225043434A8118002301
:10A5B00018226846B8470546002D1AD1022E18D039
:10A5C00060780C2148433D494018807A2021884317
:10A5D00061780C225143394A8918887260781822B0
:10A5E00050433E4A811818231A466846B847054624
:10A5F00000BF022E0DD020780C2148432D49401871
:10A60000807A800030490A582146684690470546BE
:10A6100000BFFEBD70B504460D4600BF234800785C
:10A62000002801D1224870BD00BF002C02D1204873
:10A63000801DF8E7002D02D11D48801DF3E700BF03
:10A640002078012806DA20780C2148431949085857
:10A65000002801D11648E6E700BF00BFA078072810
:10A6600007DAA0781821484313494018C07DFF2815
:10A6700002D10F480830D6E700BF6078FF2839D1F3
:10A680002878022836D0A178182251430A4A89181E
:10A69000084610300722294607F062FFA078012102
:10A6A00081400F4A126811430D4A1BE09C20002094
:10A6B00008800000942E0020B02D0020882E00205D
:10A6C000702E0020A0200020FC3702000C38020071
:10A6D000CBB7010001B701001B9B0100582E0020E1
:10A6E000A8200020116000BF02212046FFF73CFF98
:10A6F000002600E0FE4E304695E770B504460E4653
:10A7000000BFFC480078002802D1F948401C70BD09
:10A7100000BF002C02D1F648C01DF8E7002E02D180
:10A72000F348C01DF3E700BF2078012806DA20783F
:10A730000C214843F0490858002802D1EC48401C3D
:10A74000E5E700BFEA4DAD1EA078FF2817D160787D
:10A75000FF2829D060780C214843E8494018807AC6
:10A760000221084002281FD160780C225043E34A9E
:10A7700081180722304607F0F3FE002514E0A07888
:10A7800018214843DE494018C07D022108420BD100
:10A79000A07818225043DA4A801801461031072267
:10A7A000304607F0DDFE00252846B0E7F0B58BB057
:10A7B00004460026FF20049000BFCE480078002801
:10A7C00001D10BB0F0BD00BF00BFCB48006800282E
:10A7D00000D1F6E700BF08A8FFF761FA054600BF01
:10A7E0002F46002F06D000BFC64AC7493846FDF79E
:10A7F000AEFB00BF00BF0020039009900025201D84
:10A800000690342168468183FF2108A881700021C9
:10A81000017000200A902088102813D0A0880AAA6E
:10A820000221FFF7EFF80546002D0BD10C210A9805
:10A830004843B2494018C17A08A881700A98C1B249
:10A8400008A84170208814287ED006DC10280BD080
:10A8500011287AD0132879D1D9E0172877D0182871
:10A8600076D05228F7D10AE20AAF3A460121A7482A
:10A87000FFF7C8F802900298002807D102210C22A5
:10A88000386850439D4A8018817201E0042002908C
:10A8900002980546002D70D10126112168460175E8
:10A8A0000A98C1B208A84170A1880C220A985043A6
:10A8B000924A8018018102210C220A9850438F4A43
:10A8C000801881720C220A9951438C4A88180722F9
:10A8D000A11D07F045FE607B30400AD0607B400838
:10A8E0008B49085CFF2809D0607B4008085C049015
:10A8F00004E004A9A01DFFF7DCF80546002D3CD1BB
:10A900000498C1B20C220A9850437C4A8018C17244
:10A910000C210A98484311464018807A08210843C0
:10A920000C220A995143754A8918887208A904981B
:10A930008870049881B201AA764800F09DFE054611
:10A94000002D19D1182204E04CE017E0A0E19FE0AF
:10A9500074E10A995143704A881818231A4601A9CC
:10A9600000F098FF6448807A80006C490A5808A972
:10A9700001A89047054600BF00BF8AE10C210A9854
:10A9800048435E494018807A022188430C220A9984
:10A9900051435A4A891888720C210A984843114633
:10A9A0004018807A08210840082804D1002108A80E
:10A9B000FFF7DAFD0AE008A88078FF2806D008A98A
:10A9C0008878FFF73EF8FF2008A9887010210C2234
:10A9D0000A985043494A801881720126122069461C
:10A9E000087556E10C210A98484344494018C07A3A
:10A9F000FF2806D018210A98484347494018001DEF
:10AA00000390A0880022039981DF054641E11320CD
:10AA100069460875A088384A121D00217FDF054667
:10AA2000002D02D00995002631E00C210A984843F8
:10AA300032494018807A042108430C220A99514374
:10AA40002E4A8918887201260C210A98484311461B
:10AA50004018C07AFF281AD000BF16206946087532
:10AA600018220A9951432E4A8918081D142107F00B
:10AA7000DFFD0C210A98484320494018807A2021A4
:10AA800008430C220A9951431C4A8918887200E134
:10AA90000C210A98484319494018807A04218843B8
:10AAA0000C220A995143154A891888721420694664
:10AAB00008750126A079002802D0A0790990BCE091
:10AAC00018210A98484314494118E07A88701821DF
:10AAD0000A98484310494118A07A487018220A99E8
:10AAE00051430D4A8918081D142221460C3119E0E2
:10AAF000078000009C200020942E0020882E00203B
:10AB0000B02D0020349E0100F3080000FFFF00007C
:10AB1000AC200020A0200020582E00200C3802007D
:10AB2000702E002007F01CFD0C210A984843A8490C
:10AB30004018807A4021084040287ED10C210A9894
:10AB40004843A3494018807A082108430C220A99F7
:10AB500051439F4A891888720C210A98484311462C
:10AB60004018C07AFF2856D10C220A9850430A4652
:10AB7000811804A800F0B1F80546002D49D108A9B4
:10AB8000049888700498C1B20C220A985043904AE5
:10AB90008018C172E07A4007C00F17D018220A99B6
:10ABA00051438C4A881810222146203107F0D8FCE6
:10ABB00018210A98484387494018C07D4108490038
:10ABC00018220A985043834A8018C175E07A00071A
:10ABD000C00F19D018220A9951437E4A8918084695
:10ABE000103007222146303107F0BAFC18210A98AC
:10ABF000484378494018C07D0221884318220A99A9
:10AC00005143744A8918C875012108A8FFF7ACFCA4
:10AC100013E0099511E00C210A9848436C4940184B
:10AC2000807A202108430C220A995143684A8918E6
:10AC30008872002108A8FFF797FC2AE00C210A98E7
:10AC4000484363494018807A402108430C220A99FE
:10AC500051435F4A8918887215206946087500209B
:10AC6000099001265C48807A80005C4A115808A847
:10AC700088470546002D01D05948099009E05648FB
:10AC8000807A8000554A115808A88847099000E04A
:10AC900000BF00BF002E16D005A908A8099A00F031
:10ACA00057F86846007D12280DD100BF0C210A9884
:10ACB000484347494018807A012802D00A98FEF795
:10ACC00013FF00BF00BF00BF7BE501218140454A63
:10ACD00012688A4343490A607047F8B505460E4634
:10ACE0003F4FBF1C00242EE0182060433949401814
:10ACF000C07DFF2826D13078022814D01820604368
:10AD00004018C07D0221884318216143314A8918C7
:10AD1000C87518216143891808461030072231464A
:10AD200007F01EFC0BE0182060432A494018C07D44
:10AD30004108490018206043264A8018C1752C70CC
:10AD4000002702E0641C072CCED300BF3846F8BDB4
:10AD5000F8B504460D4616461F4807683246294690
:10AD60002046B847F8BD02460020704770B505463A
:10AD70000E4631462846FEF7D4FE0446002C02D18A
:10AD800000BF00BF0446204670BD02460020704749
:10AD900070B505460E4631462846FEF721FF0446AB
:10ADA000002C02D100BF00BF0446204670BD014602
:10ADB0000020704770B505462846FEF733FF04466D
:10ADC000002C02D100BF00BF0446204670BD000029
:10ADD000882E0020B02D0020942E00201C38020068
:10ADE00041800000A8200020002314214143F94A9B
:10ADF00053541421414389184B802023142141438B
:10AE000089188B600023142141438918CB601421D9
:10AE1000414389180B611421414389188B80704785
:10AE200010B50020EC490880EC490870E949091F79
:10AE3000087048708870002403E02046FFF7D4FFB4
:10AE4000641C1E2CF9D310BDFFB583B004460F4619
:10AE500015460326E148007800280BD1002D06D1C5
:10AE60000698002803D10220DC49087002E0012086
:10AE7000DA490870D9480078030008F061FA07FC45
:10AE800005304D82B7D4FC00D5484069401C08D03D
:10AE900001221207126991B2D14A506907F0CAFB28
:10AEA00002E0012000074069401E012109070969ED
:10AEB00089B2484302900120000700690004820C17
:10AEC00001200007006980B278430146029821DF23
:10AED0000646002E02D10220C0490870CCE0384658
:10AEE00020DF0646002E16D1002D11D1069800282D
:10AEF0000AD12078042803D10720B84908700AE055
:10AF00000520B649087006E00420B449087002E044
:10AF10000320B2490870AFE0B1484069401C08D036
:10AF200001221207126991B2AD4A506907F082FB03
:10AF300002E0012000074069401E0121090709695C
:10AF400089B24843012109070290096989B279430E
:10AF500008462A46029921DF0646002E10D106989F
:10AF600000280AD12078042803D106209B490870C4
:10AF700006E005209949087002E00420974908700E
:10AF80007AE097484069401C08D0012212071269F4
:10AF900091B2934A506907F04DFB02E0012000078F
:10AFA0004069401E01210907096989B24843A90087
:10AFB000401861884018012109070290096989B287
:10AFC0007943AA00891862888818069A029921DFB5
:10AFD0000646002E09D12078042803D106207F4997
:10AFE000087002E005207D49087045E00120000757
:10AFF000006980B27843AB00C01802906088820874
:10B000002169029821DF0646002E0BD1002D06D1C2
:10B010000698002803D107207049087002E0062036
:10B020006E49087028E06E484069401C08D0012233
:10B030001207126991B26A4A506907F0FBFA02E0FE
:10B04000012000074069401E01210907096989B2F2
:10B050004843019001200007006981B2019807F080
:10B06000E9FA029020DF0646002E02D107205B4954
:10B07000087001E0FFE700BF00BF304607B0F0BD39
:10B08000F0B585B00F275348001F007814214843BE
:10B0900050494418E5682078022804D0042823D0B9
:10B0A00005286FD16FE0206903904B480088860225
:10B0B0006088801B0490039880190390A0888019F1
:10B0C0004519012189020498884206D20498820811
:10B0D0002846039921DF074605E0FF220132284672
:10B0E000039921DF074680E0A06800013D49401830
:10B0F00000890490A0680001401840890390A0686E
:10B1000000014018406802900298A84205D10399B6
:10B11000049848436188884202D0A06821280DD154
:10B1200001200007006981B2284607F083FA2A4906
:10B1300009884618304620DF074622E00120000734
:10B14000006981B2284607F075FA0646012000071B
:10B15000006980B27043281A80080190012000071E
:10B16000006980B2711C484361884919401A8008FF
:10B17000009031462046009B019AFFF765FE074686
:10B1800000BF32E030E001200007006981B22846AC
:10B1900007F050FA0646A08841190120000700690F
:10B1A00080B27043081A80080490A0884019618812
:10B1B000421801200007006980B2711C4843801AC0
:10B1C0008008039031462046039B049AFFF73CFE1B
:10B1D00007460AE0A42E0020BC200020BE2000204C
:10B1E00000100010FC30002000BF00BF002F02D173
:10B1F0000120FE498870384605B0F0BDFFB581B02A
:10B20000064617460024F94840781E2837D0F748EC
:10B210000078F64949784018C4B21E2C02DB20465B
:10B220001E38C4B214206043F049091D0E54142086
:10B23000604340180761142060434118029805C814
:10B24000CA60886014206043E84A121D801804997F
:10B2500041801420604380180A9981800025101FC6
:10B260008078002805D1FFF70BFF0546112D00D18E
:10B270000025DE484078401CDC49487000E0042589
:10B28000284605B0F0BDF8B50446D848007814212A
:10B290004843D649091D0E5C081F00781421484315
:10B2A000D249091D401880680001D1490D58CF4886
:10B2B000007814214843CD49091D40184088091FD2
:10B2C0000090097814225143C84A121D89180B694D
:10B2D000111F097814225143C44A121D89180846C7
:10B2E000083022463146A847F8BD10B50024BF48B3
:10B2F0004078002809DDFFF7C3FE0446002C04D087
:10B30000112C02D02046FFF7BEFF204610BDFEB52F
:10B3100005460026B548807801287DD10020B34934
:10B320008870B4480078082811D1022D03D100207C
:10B33000B049087002E00020AF490870FFF7D5FF60
:10B340000646002E02D03046FFF79DFFFEBD022DBF
:10B3500002D0032D79D174E0A44800781421484329
:10B36000A249091D4418A5480088401CA34908802B
:10B370002078022807D10846008880026188884228
:10B3800001DB012000E0002007462078052805D1D8
:10B3900098480078072801D1012000E000200290A1
:10B3A0002078042805D193480078072801D101208E
:10B3B00000E000200190207804280BD18F480088FD
:10B3C00080026188884205DB8A480078002801D124
:10B3D000012000E0002000900298002807D1019889
:10B3E000002804D10098002801D1002F1FD0002090
:10B3F000804908703046FFF746FF7C490878FFF720
:10B40000F3FC00207D49088078484078401E774949
:10B4100048700846007800E01AE0401C08700846B2
:10B4200000781E2803DB084600781E380870FFF7F6
:10B430005CFF0646002E02D03046FFF724FF05E0F1
:10B4400003E00D20FFF71FFF00E000BF00BF00BFBB
:10B4500000BF7BE770B5FFF7E3FC00206849088078
:10B4600068484069401C08D001221207126991B255
:10B47000644A506907F0DEF802E0012000074069E5
:10B48000213801210907096989B248435E490860EA
:10B4900000205A49088000BF0DE000210201544BF2
:10B4A00099500201D21811810201D2189181020132
:10B4B000D2185181401C2028EFD308204D49087034
:10B4C00050484069401C08D001221207126991B20D
:10B4D0004C4A506907F0AEF802E0012000074069CD
:10B4E000401E01210907096989B248430646012027
:10B4F0000007006981B2304607F09CF8054620DF5E
:10B500000446002C04D10120384988703A4908705B
:10B51000204670BDF8B504460D4600BF3648007899
:10B52000002801D10820F8BD00BF002C01D10E2059
:10B53000F9E7002D01D10E20F5E72068002801D1A0
:10B540000E20F0E7A08801210907096989B2884225
:10B5500002DCA088102801DA0720E4E7E088002850
:10B560001DD028484069401C08D0012212071269EA
:10B5700091B2244A506907F05DF802E0012000070B
:10B580004069401E01210907096989B24843E188E1
:10B59000A28851431C4A12688918884201D20720A8
:10B5A000C1E720798007800F01D00720BBE714484E
:10B5B0000088202801D10420B5E7114800882860C0
:10B5C0001148006868600E4909880901084A89180D
:10B5D000686848600A490988090120685050A088B5
:10B5E000074909880901891808810FE0A02E002069
:10B5F000FC300020BE200020B4200020BC20002011
:10B60000B620002000100010B8200020E088FE497D
:10B6100009880901891848810027A688E1884E43D6
:10B6200000BF781C87B201200007006980B2B042D9
:10B6300005D201200007006980B2361A00E000261A
:10B6400001200007006980B2F04909684018EF49FD
:10B65000086001200007006980B2B042E1D9EA48E1
:10B6600000880001EA4940188781E7480088401CAB
:10B67000E5490880002056E73CB5034600BFE54891
:10B680000078002801D108203CBD00BF002B01D16B
:10B690000E20F9E7002A01D10E20F5E718682028CE
:10B6A00005D218680001DA4C2058002801D1072083
:10B6B000EAE75C68186801940090019C1868000132
:10B6C000D34D40190089484320180190009800018B
:10B6D0002C4600194089009C240164192489604388
:10B6E000009C2401641964680019019CA04201D8DF
:10B6F0000720C9E7019C0098546010600020C3E750
:10B70000F8B504460E4615461F4600BFC1480078EE
:10B71000002801D10820F8BD00BF002E01D10E2065
:10B72000F9E7002C01D10E20F5E72068202805D28A
:10B7300020680001B6490858002801D10720EAE72F
:10B7400020680001B2494018408921680901B04AC7
:10B7500089180989484321680901891849684018EE
:10B760006168884201D80720D5E7002D06D02068FF
:10B770000001A74940180089A84201DA0720CAE75A
:10B78000E81921680901A24A89180989884201DD5E
:10B790000720C0E7304600F05CF9002804D03846A6
:10B7A00000F057F9002801D11020B4E7606800F0DC
:10B7B00050F9002801D11020ADE72B463246214632
:10B7C00002200097FFF71AFDA5E7F8B504460E46DC
:10B7D00015461F4600BF8F480078002801D1082079
:10B7E000F8BD00BF002E01D10E20F9E7002C01D1D9
:10B7F0000E20F5E72068202805D220680001844942
:10B800000858002801D10720EAE720680001804994
:10B8100040184089216809017D4A891809894843EF
:10B82000216809018918496840186168884201D86F
:10B830000720D5E7002D06D0206800017449401884
:10B840000089A84201DA0720CAE7E819216809013E
:10B850006F4A89180989884201DD0720C0E7304610
:10B8600000F0F7F8002804D0384600F0F2F800287D
:10B8700001D11020B4E7606800F0EBF8002801D196
:10B880001020ADE72B463246214605200097FFF7F2
:10B89000B5FCA5E7FFB581B00C4615461E4600BFB6
:10B8A0005C480078002802D1082005B0F0BD00BF38
:10B8B000002C01D10E20F8E70198002801D10E20BC
:10B8C000F3E72068202805D2206800015049085875
:10B8D000002801D10720E8E7206800014C49401802
:10B8E0004089216809014A4A891809894843216821
:10B8F00009018918496840186168884201D8072001
:10B90000D3E7002D06D02068000141494018008986
:10B91000A84201DA0720C8E7A819216809013C4AB2
:10B9200089180989884201DD0720BEE7019800F0E7
:10B9300090F8002804D0304600F08BF8002801D1A0
:10B940001020B2E7606800F084F8002801D11020D0
:10B95000ABE7606881192A46019806F001FE009560
:10B96000206800012A490F58002203212046019B2C
:10B97000B847002099E7F8B504460D4600BF2548B2
:10B980000078002801D10820F8BD00BF002C01D1AB
:10B990000E20F9E72068202805D2206800011C4904
:10B9A0000858002801D10720EEE720680001184957
:10B9B0004018408921680901154A891809894843B6
:10B9C000216809018918496840186168884201D8CE
:10B9D0000720D9E7606800F03CF8002801D110206A
:10B9E000D2E723681B010A4FDB1962685B68D01A33
:10B9F000226812013B46D218118906F01BFE00296D
:10BA00000AD00720C0E70000B6200020B8200020A0
:10BA1000FC300020B420002000202B4602462146A6
:10BA200000900420FFF7EAFB06463046ACE70146EB
:10BA300000BF0C480078002801D10820704700BFE3
:10BA4000002901D10E20F9E707484078086000205E
:10BA5000F4E701468807800F01D1012070470020DC
:10BA6000FCE70000B4200020A02E002010B5002824
:10BA700019DAF74A03071B0F083B9B089B00D258B3
:10BA80008307DC0EFF23A3409A438B071B0E84071A
:10BA9000E40EA3401A43EE4B0407240F083CA4080D
:10BAA000A4001A5118E0EB4A03231B02D2188308A2
:10BAB0009B00D2588307DC0EFF23A3409A438B07D9
:10BAC0001B0E8407E40EA3401A43E24B0324240216
:10BAD0001B198408A4001A5110BD10B50446DE4895
