:020000040800F2
:10000000E83A002041920008619200085D72000801
:10001000699200086D9200087192000800000000CB
:1000200000000000000000000000000075920008C1
:1000300079920008000000007D92000871720008AB
:1000400085920008899200088D9200087572000858
:1000500095920008999200089D920008A1920008CC
:100060008772000899720008AD920008B1920008EA
:10007000B5920008B9920008D3720008D172000846
:10008000C5920008C9920008CD920008D1920008DC
:10009000D5920008D9920008DD920008B5720008D8
:1000A000E5920008E9920008ED920008F19200083C
:1000B000F5920008BF720008C172000801930008A1
:1000C00005930008099300080D9300081193000898
:1000D00015930008199300081D9300082193000848
:1000E000BD720008299300082D9300083193000881
:1000F00035930008399300083D93000841930008A8
:1001000045930008499300084D9300085193000857
:1001100055930008599300085D9300086193000807
:10012000CD720008699300086D930008C972000839
:1001300075930008799300087D9300088193000867
:1001400085930008899300088D9300089193000817
:1001500095930008999300089D930008C3720008C6
:10016000A5930008A9930008AD930008B193000877
:10017000B5930008B9930008BD930008C193000827
:10018000C5930008C9930008C7720008D1930008FE
:10019000D5930008D9930008DD930008E193000887
:1001A000E5930008E9930008ED930008FFFFFFFFC7
:1001B000FFFFFFFFFFFFFFFFFFFFFFFFFFFFFFFF4F
:1001C000FFFFFFFFFFFFFFFFFFFFFFFFFFFFFFFF3F
:1001D000FFFFFFFFFFFFFFFFFFFFFFFFFFFFFFFF2F
:1001E000FFFFFFFFFFFFFFFFFFFFFFFFFFFFFFFF1F
:1001F000FFFFFFFFFFFFFFFFFFFFFFFFFFFFFFFF0F
:10020000D7290008C929000810B508B9012010BD78
:10021000022180F83510DFF85C3001680A681A4066
:1002200043681A4383681A43C3681A4303691A432D
:1002300043691A4383691A43C3691A43036A1A4319
:10024000436A042B03D1C36A046B23431A430A6035
:1002500001684A69436AD20843EAC202042B04BF18
:10026000836A1A434A610021C164012180F8351074
:10027000002010BD3F8014F038B5044694F83400D7
:10028000012801D1022032BD00F020F82068016869
:1002900041F0100101602068016841F0080101602F
:1002A0002068016841F0040101602068416941F063
:1002B000800141612068016841F00201016020680D
:1002C000016841F001010160002032BD012084F885
:1002D0003400022084F83500206805686D086D0040
:1002E0000560204600F032BD2DE9F84F0446DFF8E6
:1002F00010AA2368DFF80C5ADFF80C6ADFF80C7AD2
:10030000DFF80C8ADFF80C9A4FF000704FF40021F0
:100310004FF4007253450FD3D6F804E04B4508BFA5
:100320004FF0080C51D0434508BF94464DD0BB4216
:1003300014BF84468C4648E0DFF8DCE9734515D3EA
:10034000D6F800E0DFF8D4B95B4508BF4FF0080CE1
:100350003BD0DFF8CCB95B4508BF944635D0DFF819
:10036000C4B95B4514BF84468C462EE0DFF8B8E97B
:10037000734515D3D5F804E0DFF8B0B95B4508BF85
:100380004FF0080C21D0DFF8A8B95B4508BF9446B0
:100390001BD0DFF8A0B95B4514BF84468C4614E03F
:1003A000D5F800E0DFF890B95B4508BF4FF0080CC6
:1003B0000BD0DFF888B95B4508BF944605D0DFF85D
:1003C00080B95B450CBF8C4684461CEA0E0C71D08C
:1003D000D3F800C05FEA4C7C6CD5D3F800C02CF099
:1003E000040CC3F800C0236853450ED34B4508BF27
:1003F000082006D0434508BF104602D0BB4208BFC4
:100400000846F1680843F06045E0DFF80CC9634531
:1004100014D3DFF808C9634508BF08200AD0DFF805
:1004200000C9634508BF104604D0DFF8F82893429E
:1004300008BF0846B1680843B0602CE0DFF8E8C8A0
:10044000634514D3DFF8E4C8634508BF08200AD029
:10045000DFF8DCC8634508BF104604D0DFF8D428B5
:10046000934208BF0846E9680843E86013E0DFF8F4
:10047000C8C8634508BF08200AD0DFF8C0C8634574
:1004800008BF104604D0DFF8B828934208BF0846DA
:10049000A9680843A860E06C40F00100E064042013
:1004A00084F83500002084F83400A16C08001CBFDB
:1004B000204688472368DFF88C284FF480004FF4EB
:1004C000803153450FD3D6F804E04B4508BF94461E
:1004D00052D0434508BF4FF0400C4DD0BB4214BF33
:1004E00084468C4648E0DFF830E8734515D3D6F8EB
:1004F00000E0DFF828B85B4508BF94463CD0DFF841
:1005000020B85B4508BF4FF0400C35D0DFF814B879
:100510005B4514BF84468C462EE0DFF80CE873453B
:1005200015D3D5F804E0DFF804B85B4508BF94465E
:1005300022D0DFF8FCB75B4508BF4FF0400C1BD062
:10054000DFF8F0B75B4514BF84468C4614E0D5F85D
:1005500000E0DFF8E4B75B4508BF94460CD0DFF855
:10056000DCB75B4508BF4FF0400C05D0DFF8D0B7D3
:100570005B450CBF8C4684461CEA0E0C71D0D3F848
:1005800014C05FEA0C6C6CD5D3F814C02CF0800C4E
:10059000C3F814C0236853450ED34B4508BF10461B
:1005A00006D0434508BF402002D0BB4208BF0846E2
:1005B000F1680843F06045E0DFF85CC7634514D399
:1005C000DFF858C7634508BF10460AD0DFF8502748
:1005D000934208BF402004D0DFF84827934208BF69
:1005E0000846B1680843B0602CE0DFF83CC76345BB
:1005F00014D3DFF838C7634508BF10460AD0DFF8C8
:100600003027934208BF402004D0DFF828279342C8
:1006100008BF0846E9680843E86013E0DFF818C738
:10062000634508BF10460AD0DFF81027934208BF81
:10063000402004D0DFF80827934208BF0846A96885
:100640000843A860E06C40F00200E064042084F8F5
:100650003500002084F83400A16C08001CBF20463F
:1006600088472068DFF8E036009084464FF08070BD
:100670004FF480214FF48072D4450ED3D6F804E0B5
:10068000CC4508BF9C464ED0C44508BF94464AD0CE
:10069000BC4514BF84468C4645E0DFF87CE6F44553
:1006A00014D3D6F800E0DFF874B6DC4508BF9C46EA
:1006B00039D0DFF86CB6DC4508BF944633D0DFF89C
:1006C00064B6DC4514BF84468C462CE0DFF858E65F
:1006D000F44514D3D5F804E0DFF850B6DC4508BF84
:1006E0009C4620D0DFF848B6DC4508BF94461AD0B7
:1006F000DFF840B6DC4514BF84468C4613E0D5F8DD
:1007000000E0DFF834B6DC4508BF9C460BD0DFF8CC
:100710002CB6DC4508BF944605D0DFF824B6DC458E
:100720000CBF8C4684461CEA0E0C78D0DDF800C065
:10073000DCF800C05FEA8C7C71D5DDF800C0DCF825
:1007400000C0DDF800E02CF0020CCEF800C0D4F8B8
:1007500000C0D4450ED3CC4508BF184606D0C445CA
:1007600008BF104602D0BC4508BF0846F1680843E0
:10077000F06045E0DFF8A0E5F44514D3DFF89CE530
:10078000F44508BF18460AD0DFF894359C4508BFE9
:10079000104604D0DFF88C25944508BF0846B168A0
:1007A0000843B0602CE0DFF880E5F44514D3DFF8AF
:1007B0007CE5F44508BF18460AD0DFF874359C453F
:1007C00008BF104604D0DFF86C25944508BF0846E2
:1007D000E9680843E86013E0DFF85CE5F44508BF2A
:1007E00018460AD0DFF854359C4508BF104604D09F
:1007F000DFF84C25944508BF0846A9680843A8605F
:10080000E06C40F00400E064042084F8350000202F
:1008100084F83400A16C08001CBF2046884720687B
:10082000009003464FF080604FF480114FF48062D7
:1008300053450FD3D6F804C04B4508BF4FF0100EF8
:1008400051D0434508BF96464DD0BB4214BF8646A3
:100850008E4648E0DFF8C0C4634515D3D6F800C023
:10086000DFF8B8E4734508BF4FF0100E3BD0DFF857
:10087000B0E4734508BF964635D0DFF8A8E4734569
:1008800014BF86468E462EE0DFF89CC4634515D320
:10089000D5F804C0DFF894E4734508BF4FF0100E9C
:1008A00021D0DFF88CE4734508BF96461BD0DFF8F3
:1008B00084E4734514BF86468E4614E0D5F800C024
:1008C000DFF874E4734508BF4FF0100E0BD0DFF86B
:1008D0006CE4734508BF964605D0DFF864E47345C1
:1008E0000CBF8E4686461EEA0C0C00F0D380D3F86F
:1008F00000C05FEA0C7C40F1CD80D3F800C05FEA15
:100900004C3C5FD553450ED34B4508BF102006D055
:10091000434508BF104602D0BB4208BF0846F168F5
:100920000843F06045E0DFF8F0C3634514D3DFF817
:10093000ECC3634508BF10200AD0DFF8E4C3634569
:1009400008BF104604D0DFF8DC23934208BF0846F6
:10095000B1680843B0602CE0DFF8CCC3634514D322
:10096000DFF8C8C3634508BF10200AD0DFF8C0C352
:10097000634508BF104604D0DFF8B823934208BF90
:100980000846E9680843E86013E0DFF8ACC3634554
:1009900008BF10200AD0DFF8A4C3634508BF104683
:1009A00004D0DFF89C23934208BF0846A968084397
:1009B000A86020680168090364D50068000364D555
:1009C000412060E01B68DB0507D4009B1B68DDF855
:1009D00000C023F00803CCF80030236853450ED341
:1009E0004B4508BF102006D0434508BF104602D033
:1009F000BB4208BF0846F1680843F06042E0DFF8F8
:100A000018C3634513D3DFF814C3634508BF102030
:100A100009D0DFF80CC3634508BF104603D0C14AB4
:100A2000934208BF0846B1680843B0602AE0DFF887
:100A3000F8C2634513D3DFF8F4C2634508BF102042
:100A400009D0DFF8ECC2634508BF104603D0B94AAD
:100A5000934208BF0846E9680843E86012E0DFF8FF
:100A6000D8C2634508BF102009D0DFF8D0C2634563
:100A700008BF104603D0B24A934208BF0846A9688F
:100A80000843A860312084F83500216C08001CBFA1
:100A9000204688472068009003464FF000604FF4DE
:100AA00000114FF4006253450FD3D6F804C04B45F4
:100AB00008BF4FF0200E51D0434508BF96464DD099
:100AC000BB4214BF86468E4648E0DFF84CC2634501
:100AD00015D3D6F800C0DFF844E2734508BF4FF0E5
:100AE000200E3BD0DFF838E2734508BF964635D07C
:100AF000DFF830E2734514BF86468E462EE0DFF8FD
:100B000028C2634515D3D5F804C0DFF820E2734549
:100B100008BF4FF0200E21D0DFF814E2734508BF64
:100B200096461BD0DFF80CE2734514BF86468E460E
:100B300014E0D5F800C0DFF800E2734508BF4FF0BD
:100B4000200E0BD0DFF8F4E1734508BF964605D0C0
:100B5000DFF8ECE173450CBF8E4686461EEA0C0CAE
:100B60005BD0D3F800C05FEACC6C5DD5D3F800C091
:100B70005FEA4C3C5AD553450ED34B4508BF202065
:100B800006D0434508BF104602D0BB4208BF084606
:100B9000F1680843F0603AE05F4FBB4211D35F4D0C
:100BA000AB4208BF202008D05D4DAB4208BF1046C5
:100BB00003D05C4A934208BF0846B1680843B0605E
:100BC00025E0594EB34211D3584EB34208BF2020FE
:100BD00008D0574EB34208BF104603D0554A93423F
:100BE00008BF0846E9680843E86010E0524EB34287
:100BF00008BF202008D0514EB34208BF104603D092
:100C00004F4A934208BF0846A9680843A860206875
:100C10000168090306D4616C08006ED02046BDE867
:100C2000F44F08470068000367D55FE01B68DB05E9
:100C300007D4009B1B68DDF800C023F01003CCF83C
:100C40000030236853450ED34B4508BF202006D003
:100C5000434508BF104602D0BB4208BF0846F168B2
:100C60000843F0603AE02C4FBB4211D32B4DAB420E
:100C700008BF202008D02A4DAB4208BF104603D041
:100C8000284A934208BF0846B1680843B06025E08F
:100C9000254EB34211D3254EB34208BF202008D0C1
:100CA000234EB34208BF104603D0224A934208BFE6
:100CB0000846E9680843E86010E01F4EB34208BFE9
:100CC000202008D01D4EB34208BF104603D01C4A56
:100CD000934208BF0846A9680843A860E06CE06436
:100CE000112084F83500002084F83400E16B0800FE
:100CF00003D02046BDE8F44F0847BDE8F18F00005F
:100D0000596402400060024000640240A064024056
:100D10008864024070640240B9600240106402407E
:100D20002864024040640240596002407060024002
:100D300088600240A06002401060024028600240CB
:100D400040600240010080000400800010B504688B
:100D500063608068402807BFA260E160A160E26034
:100D600010BD50F8041B61B150F8042BD30744BFE9
:100D7000A9F101039A18002342F8043B091FFAD194
:100D8000EFE770472DE9F04F80460FF2807095B085
:100D900014461D46D0E90023CDE9132303AE0020FD
:100DA0000391B0610DF1340A00E04C440020ADF82D
:100DB000020013AB4FF0FF3221460DF1020000F0AC
:100DC000B1FB8146B9F1010F08DA2078B0F10109D1
:100DD00069EB09096FEA09004FEAD079BDF8020012
:100DE00025280CBFA9F1010BCB46BBF1010F0EDB8F
:100DF000274617F8011B0398C0470390002800F00E
:100E0000D981B069401CB061BBF1010BF1D1BDF8D3
:100E10000200252804D10020F0603061706105E0F7
:100E20000028C2D1B069C7E140F0010014F8011FE9
:100E30002029F9D023290DD02B2904D02D2906D023
:100E400030290AD00CE040F0020080B2EEE740F01A
:100E50000400FAE740F00800F7E740F01000F4E77C
:100E60002A290DD129680A1D2A60096831620029E2
:100E700004D5494240F00400316280B2641C13E0A2
:100E8000002131620BE0316A6FF00043994205D0D6
:100E900001EB810302EB430130393162641C22789B
:100EA000A2F130010A29EED321782E2903D04FF088
:100EB000FF31F1611EE014F8011F2A2906D12968CB
:100EC0000A1D2A60641C0968F16113E00021F161C8
:100ED0000BE0F1696FF00043994205D001EB81030B
:100EE00002EB43013039F161641C2278A2F1300138
:100EF0000A29EED3B0840FF21C60217800F022FBA7
:100F000008B114F8010B8DF832009DF83200682802
:100F100004BF2078682803D162208DF83200641C59
:100F20000DA8B0602278252A13D0582A3CD0632A15
:100F300000F0AD80642A18BF692A70D06F2A33D0C0
:100F4000702A28D0732A09D0752A18BF782A2BD086
:100F5000BFE0F068411CF1602521A3E09DF832005C
:100F60006C28286813D0011D29600068F269706040
:100F7000002A02D500F0F2FA07E0002100F00AFB97
:100F800000281ABF7168401AF0693061ADE0011D98
:100F90002960026896E02868011D296078210068B0
:100FA00002900DA870606EE09DF832306C2B08BF87
:100FB000286811D0712B08BF286802D028686A2BD6
:100FC0000AD1C01D20F007002860014601F1080089
:100FD0002860D1E9000102E0011D2960006802904B
:100FE000682B02D102A8008803E0622B02D102A87C
:100FF0000078029096F8240000073FD50298002858
:101000003CD042F02000782838D1F068302100F838
:101010000A10401C411CF16000F80A202EE09DF8E7
:101020003200622802D0682806D00BE02868011D33
:10103000296090F9000009E02868011D2960B0F9D5
:10104000000003E02868011D296000680290002864
:1010500004D5F068411CF1602D210DE0B08C8107B2
:1010600004D5F068411CF1602B2105E0C00705D5CF
:10107000F068411CF160202100F80A10F0680DA909
:1010800040187060114602A800F0C1F92DE09DF8EB
:1010900032006C2809D0F068411CF16029680A1DF3
:1010A0002A60096800F80A101FE02868011D2960FD
:1010B00001AA0068ADF804000020ADF806004FF06A
:1010C000FF30F06102A9404600F079F800280CD505
:1010D00070E0F068411CF160252100F80A1022B18F
:1010E000F068411CF16000F80A20306AF168401A8B
:1010F0007169401A3169A0EB010996F82400641C5B
:1011000040070FD420208DF80000002708E00123BD
:1011100000AA02A9404600F0E1F900284AD17F1C4C
:101120004F45F4DBF7680DF1340B0AE01BF8011BA7
:101130000398C047039000283CD0B069401CB061C0
:101140007F1E002FF2D130208DF800004FF0000BF1
:10115000776908E0012300AA02A9404600F0BEF921
:1011600040BB0BF1010BBB45F4DB3769D6F804B08B
:1011700009E01BF8011B0398C0470390D0B1B06988
:10118000401CB0617F1E002FF3D196F82400400769
:101190007FF50CAE20208DF8000000E07F1C4F454D
:1011A000BFF604AE012300AA02A9404600F096F95A
:1011B0000028F3D04FF0FF3015B0BDE8F08F2DE9D7
:1011C000F44F0F4694B0D7F820808346B8F1000F53
:1011D00048BF6FF0004800F009FA796A40180190A2
:1011E0000FF23830D0E90023CDE9022397F8280028
:1011F000400702D40198412805D240200DF1100A81
:101200000190002507E000F0F7F95FEA000AF8D145
:10121000D0E7A8EB0908B8F1010FC0F28380149859
:10122000018802AA0DF1010000F03EFA8146002873
:1012300000F189801498008818B9B9F1010900F10A
:101240008280C8456EDB3869019909EB0002914242
:1012500056D27D624042B969401A7969451A97F8B9
:10126000280040070FD420208DF80000002408E05B
:10127000012300AA3946584600F030F9002862D10F
:10128000641CAC42F4DB3B6952463946584600F0D8
:1012900025F9002857D130208DF800000026BC69C0
:1012A00008E0012300AA3946584600F017F9002843
:1012B00049D1761CA642F4DB7C69BE680AE016F8C8
:1012C000011B7868D847786000283CD0F869401C3A
:1012D000F861641E002CF2D197F8280040070DD564
:1012E00020208DF8000007E0012300AA3946584667
:1012F00000F0F4F838BB641CAC42F5DB00253D611E
:101300004A4638690DF10101504400F0DBF93869B3
:10131000484438611498801C1490801E008800286E
:101320007FF477AF786A3969401AB969401A7969E8
:10133000A0EB010897F82800400719D420208DF869
:101340000000A94612E04FF0FF3558E0012400AE3E
:1013500016F8011B7868D84778600028F3D0F86940
:10136000401CF861641EF3D109F10109C145EDDBB0
:101370003B6952463946584600F0B0F80028E2D1A1
:1013800030208DF80000A946B86901900FE00124D3
:1013900000AE16F8011B7868D84778600028D2D0D4
:1013A000F869401CF861641EF3D109F10109019844
:1013B0008145ECDB7B69BA683946584600F08EF807
:1013C0000028C0D197F82800400716D520208DF8B6
:1013D0000000A9460FE0012400AE16F8011B786852
:1013E000D84778600028AED0F869401CF861641EC8
:1013F000F3D109F10109C145EDDB3D617D6204A82E
:1014000082451CBF504600F099F92846D4E6F0B456
:10141000C2686F2908BF082405D041F02003782B4B
:1014200014BF0A241024066818233746642918BFFD
:10143000692902D1002E48BF7F425FB9056A4DB9C4
:10144000082C27D190F82810090723D5302117231D
:10145000D1751FE0B7FBF4F604FB167730375D1E3D
:10146000FFB22B463A2FA4BFA1F1510C6744AF54F1
:10147000370003D085689E18B542EBD3082C09D1FC
:1014800090F82810090705D5995C302902D05B1E19
:1014900030219954C3F1180141619A188260026A9F
:1014A000914208DA511A81614FF6EF72018D1140B5
:1014B0000185F0BC7047002A0ED590F8282002F074
:1014C0001402102A08D1426A0369D21A8369D21A17
:1014D000531A012BA8BF8361F0BC7047F8B50446CE
:1014E0000D4616461F46002004E0E869401CE861EE
:1014F0007F1E002047B116F8011B6868A04768608E
:101500000028F2D14FF0FF30F2BD000000000000D3
:1015100000000000686C747A4C00000000000000BD
:1015200000000000F8B504460D4616461F4600F0C0
:1015300045F93B4632462946204601B0BDE8F04019
:1015400000F053B90278C9B28A421AB11CBF10F830
:10155000012FF9E718BF00207047000000F10103D8
:10156000810704D010F8011B89B18107FAD1026804
:10157000B2F10131914311F0803F04BF50F8042FC4
:10158000F6E710F8011B11B110F8011BFBE7C01AB8
:1015900070470000C9B2830706D0521E22D310F84C
:1015A000013B9942F7D11FE0083A13D302F104023C
:1015B00041EA012141EA014150F8043B121F21BFD9
:1015C0004B40A3F1013C2CEA030C1CF0803FF3D00C
:1015D000C9B2001F083210F8013B521E28BF91EA21
:1015E000030FF8D818BF0120401E704780B500F0E7
:1015F000E5F8012002BD000070B5054605F10F00B9
:10160000C408E400C046C046A54232D2082C04D229
:10161000082402E0083000F091F822480268110026
:101620000CD1011D0A6802B31368A34238BF111D13
:10163000F8D310E01D68A5420DD2191D0B68002BD0
:10164000F8D11268011D00E0191D0B6893420CD0FF
:101650001D68A542F8D361B10D682A68A2F108039C
:10166000A3420AD26A680A600FE000F0E1F800289D
:10167000D0D1C046C046002070BD63190B60121B5C
:101680006E685E600B681A602C60096800291DBFD7
:101690004A68002A091D00210160C046C04605F1C4
:1016A000080070BDC42E002070B504460D461646D5
:1016B00000F084F8324629462046BDE8704000F02C
:1016C00087B8000062B38B0708D0521E11F8013BA7
:1016D00000F8013B00F024808B07F6D1830740F02F
:1016E000208000BF103A07D330B4B1E83810103A68
:1016F000A0E83810F9D230BC530724BFB1E8081075
:10170000A0E8081044BF51F8043B40F8043BD2075E
:1017100024BF31F8022B20F8022B44BF0B78037052
:101720007047083A07D3B1E80810083A40F8043B7C
:1017300040F804CBF7D25307E4E7000000B9704744
:1017400010B5A0F108042068082833D310F0070F63
:1017500030D1C046C0461848416809B18C4203D216
:101760006160446017E019464B680BB1A342FAD39D
:101770000A6853189C421BD3A34204D123689A18C9
:101780000A600C4607E04A681AB123681B199A429E
:101790000ED362604C60616851B1226813198B42AC
:1017A00006D10023036008688018206048686060E4
:1017B000C046C04610BD0000C42E002080B5DFF832
:1017C0000C0000F04BF8806902BD000018230020D7
:1017D00030B430B90FF24800D0E90045C2E9004505
:1017E0001BE00170012030BC704730B431B90FF2FA
:1017F0003800D0E90045C3E900450EE01AB930BC15
:101800006FF00100704708B10A7802800978481E1D
:10181000804130BCC043C00F7047002030BC7047CF
:1018200000000000000000000000000000000000B8
:101830000749086808B1002070470648C008C00082
:1018400008600549C908C900091A0160704700BF4E
:10185000DC2E0020EF3A0020E83C0020704700001A
:101860000870000A4870022070470178407841EA09
:10187000002070470178427841EA02218278C078DE
:1018800041EA024141EA006070472DE9F041054616
:1018900000262878DFF85445202809D072D3222862
:1018A00022D008D3242852D038D3252866D069E026
:1018B00000F03FFB64E00929B8BF042607DB681C81
:1018C000FFF7D8FF0746681DFFF7D4FF8046424662
:1018D00039460FF24C5000F005FC002E53D1414622
:1018E000384600F036FB4BE0072932DB681CFFF777
:1018F000C1FF0746681DFFF7B8FF0546384600F0F0
:101900000DFB28B117FA85F0401E00F007FB08B95F
:10191000032638E0E7626662268534E0032918DB97
:10192000681CFFF7A2FF0546A68C66BBE28C04F597
:101930001A763146002000F0E7FB854205D1E28CA3
:10194000E06A314600F038FB1AE008261BE00B295C
:1019500001DA042617E0681CFFF78CFF0646681DB5
:10196000FFF788FF074605F10900FFF77EFF0346F2
:1019700000223946304600F043FB01E000F067FBEF
:10198000064600E0062604F5B4713046FFF768FF0E
:10199000608400202084BDE8F04170B5DFF84C443D
:1019A000218C608C451A86B00026ADB219B900A909
:1019B000FFF756FF0646208C001900F5B47100A809
:1019C00030187219152A05DBC6F1140200F0B0FBBD
:1019D000142204E02A4600F0ABFBAA19D2B200A9F7
:1019E00004F1380000F09EFC18B100F05BF800F044
:1019F0008FFC06B070BD2DE9F0410178DFF8EC43B3
:101A000011B1012931D046E08588D0F80880A68B35
:101A1000002726B94046FFF728FFE0830227EA1B8C
:101A2000C6F58070904209D200F037F804F5B47121
:101A30000C20FFF715FF6084002022E0301907EB2F
:101A40000801683000F074FBA819C01BA08380B2A5
:101A5000E18B88421FD30020A08300F01EF8E18BA9
:101A600004F16800BDE8F0410FE7218C002001B9C6
:101A70000220638CC0F114025B1A9A4205DA143119
:101A8000081A2084BDE8F04187E700F00BF8BDE8B4
:101A9000F04100F03DBCBDE8F081012104F13800C7
:101AA00000F036BC00202062002104F138007047AD
:101AB000017801B170472DE9F0418588D0F80880A0
:101AC000CA4CA08CE8B9278D002627B94046FFF7FD
:101AD000CCFEE0840226E08CB0F5005F04D8AA1B9F
:101AE000C7F50050904202D20520A08409E03819C1
:101AF00006EB080100F51A7000F01AFBE819801BCC
:101B00002085BDE8F0810078401E012807D8B7483D
:101B100000210162C161C184018500F0A0BA704753
:101B200010B5B24C608B4FF6FF71884218D1182265
:101B30000021204600F025FC002121706160217207
:101B40004FF4487121820021618200F041FC38B1DC
:101B500040F26221BDE810400FF2EC2200F0C2BD5D
:101B600010BD38B50446A14D214605F1300000F006
:101B70001DFE2088102816D011280AD0192802BF6F
:101B8000688BA188884213D1A07948B103280FD16E
:101B900006E0688BA18888420AD14FF6FF706883FF
:101BA000BDE83140BCE7207D012804BFA0886883E0
:101BB00031BD70478E4801780029FCD000210170AA
:101BC00070478B48012101707047884801210176D8
:101BD000704770B5B6B08749874800F092FD874AD4
:101BE0008749884800F07FFD00F014F99DF8041043
:101BF00001F0FE018DF8041000F090FE01460FF296
:101C0000D42000F06FFA072200210AA800F0B9FBE7
:101C100000F0D9FC044621460FF2D42000F062FA0D
:101C200054B90FF2F0250AA820184178284600F090
:101C300059FA641C062CF6DB11208DF80C000222E8
:101C400069A103A800F037FC0FF2FC1420B1224672
:101C50004FF4037100F046FD00F0DCF82821ADF8E8
:101C600004104FF44871ADF806100321ADF80810C8
:101C70004FF4C871ADF80A1000F03CFC20B12246C8
:101C800040F2162100F02EFD06208DF8000000F035
:101C90009BFE054629460FF2F01000F023FA8DF85E
:101CA0003C500FA8290A4170290C8170290EC1707F
:101CB0001121017100208DF841000CA80FF2DC11F8
:101CC0002CC92CC00620ADF8340038220FA80E9085
:101CD000002118A800F055FB02218DF860100021AA
:101CE0008DF862100121ADF8641000A91A9100214D
:101CF000ADF878100CA92391002101F058F820B11B
:101D0000224640F2492100F0EDFC14A80FF2981190
:101D10001022FFF7E7FC00A914A800F0B6FD20B1DF
:101D200022464FF41D7100F0DDFC9DF800002F4DA0
:101D30008DF8120004A949F20300ADF810003248F2
:101D400005903248079011208DF81A008DF8180080
:101D50002F48099011208DF822008DF8200005F100
:101D6000300000F0E5FC064631460FF24C1000F062
:101D7000B9F92EB122464FF42171304600F0B2FC81
:101D80004022002126A800F0FCFA0FF2401126A8FC
:101D900001F03EF811208DF8D40000208DF8D50018
:101DA00026A801F09BF820B1224640F28E2100F0D7
:101DB00099FCFFF7B5FEEFF3108408E080F310887C
:101DC00072B6287E08B901F0A7F984F31088EFF302
:101DD000108072B6297E0029F0D00021297680F388
:101DE000108800F0A3FCEBE74D5400000000002039
:101DF000E02E0020B31B0008631B0008CB1B00086B
:101E0000C31B0008B51B0008071B0008F7190008D2
:101E1000B11A00080822002101A800F0B2BA00009F
:101E20000D0A5B465755205452414E53505D657222
:101E30006173653A30782530386C782C20307825FD
:101E400030386C7800000000463A5C776F726B7334
:101E5000706163655C666D3031315C626F6F745CBC
:101E6000626F6F745C50726F6A656374735C5372F7
:101E7000635C6677755F7472616E73706F72745FA6
:101E8000626C652E630000000D0A5B424F4F545D8B
:101E90006C6F63616C2069643A25640081470000BF
:101EA0000000000000000000B3585540506011E3EE
:101EB0008F96080000109A660D0A5B424F4F545DE2
:101EC00074637320696E69743A2564004D656474A7
:101ED00072756D000D0A5B424F4F545D7364206252
:101EE0006C6520656E61626C653A256C7800000057
:101EF0000D0A5B424F4F545D736420626C6520672E
:101F000061702061646472206765742D256C783A75
:101F1000000000002530327800000000534988425C
:101F200005D3534981428041C043C00F7047002010
:101F3000704710B54F4C0FF24010616800F0D2F8B6
:101F4000606808B1012010BD2060012060600020A1
:101F500010BD7CB5474C054660680E46012801D08F
:101F6000012076BD2846FFF7D9FF18B13046FFF7AC
:101F7000D5FF08B9032076BD01A9284601F00AF96A
:101F800020B100A9304601F005F908B9022076BD5C
:101F9000019D0CE02068E840C00707D4284601F006
:101FA000D1F920680121A940084320606D1C0098E8
:101FB000A842EFD2002076BD7CB504462D4840688B
:101FC0000D461646012801D0012076BD2046FFF7B8
:101FD000A5FF20B13019401EFFF7A0FF08B902206D
:101FE00076BD324621460FF2A40000F07BF833465E
:101FF0002A462146002001F0BEF900B1072076BD37
:10200000F8B504461B4840680D4616461F46012891
:1020100001D00120F2BD2A4621460FF28C0000F0CB
:1020200061F82046FFF77AFF18B12846FFF776FFE0
:1020300008B90220F2BD281B421C2146304600F0A0
:1020400063F8874201D00820F2BD0020F2BD0948A4
:102050004068012801D1002070470120704700BF6F
:102060000448002141600020704700000000010882
:10207000FFFF1F08BC2E00200D0A5B4657555D73FD
:1020800065742075703A2564000000000D0A5B46F7
:1020900057555D70726F6772616D3A3078256C7854
:1020A0002C202564000000000D0A5B4657555D7624
:1020B00065726966793A626567696E203D2030789D
:1020C0002530386C782C20656E64203D20307825D2
:1020D00030386C782C20636865636B73756D203DB8
:1020E000202564000EB400B582B003A90091024619
:1020F00000AB0121034878440A30FEF743FE06BCDA
:102100005DF810FB1B71000030B5084B08E011F8BA
:10211000015B85EA202433F8144084EA002080B271
:102120001446621E002CF2D130BD00BF6C76000850
:1021300010B50446FFF7C6FA204610BD30B58BB087
:10214000044602208DF818000D460020ADF81C0052
:1021500001AA0220ADF804000020ADF8060000A896
:1021600002902189208801F009FA18B161690A00FA
:1021700018BF88479DF80000800706D5207BC00760
:102180004CBF4FF4C070002001E040F28110ADF868
:102190001C0006A9208801F0BDF918B161690A0088
:1021A00018BF8847BDF81C0068B98DF80C00A088DE
:1021B000ADF80E0005F21A000590288BADF810005E
:1021C00003A8216988470BB030BDE0B502460888F6
:1021D000102806D0112809D0512811D053281DD01D
:1021E00007BD087D01282BD1888805E010888988E3
:1021F000884225D14FF6FF7010800020D06007BDC7
:1022000001F206000178022902BF418893889942B1
:1022100016D1811C1046FFF791FF07BD9088C98831
:1022200081420DD1D16821F00201D160ADF80200E8
:1022300001218DF800100020019000A81169884745
:1022400007BD30B504468FB04FF6FF7020800D46B5
:102250000020E0600322688860800021A868206177
:10226000E868606101A800F08CF811208DF8040086
:102270001C2228798DF8050000219DF8060000F049
:10228000F90040F002008DF8060008A800F079F887
:102290009DF8200040F028008DF820000322002047
:1022A00009900B900C90002101A80D9000200E9039
:1022B00028788DF80A0049F20110ADF8080000A84E
:1022C00000F05FF800208DF800001422A8798DF846
:1022D000010000219DF8020000F0F10040F0130021
:1022E0008DF8020003A800F04CF8024602A8039003
:1022F000231D00A8049008A9002005901420ADF823
:10230000180000200790608801F0B5F80FB030BDCC
:10231000C268002912BF42F0010151084900C160A2
:102320000020704730B5044685B00D4620884FF632
:10233000FF71884208BF072021D0207B800748BF5B
:1023400011201CD4ADF800200021102201A800F0BB
:1023500018F80146A088ADF80400049502208DF815
:1023600006000020ADF8080000A80390208801F0C6
:1023700034F820B9E06840F00200E060002005B0C9
:1023800030BD10B5044610460A460146204601F00D
:1023900041F9204610BD000038B504460D462946D7
:1023A000204601F0CAF90028F9D120680021017007
:1023B0002888401E288031BD80B500AA01F0B7FAF8
:1023C00020B10FF2B0224F2100F08CF9009802BD2D
:1023D0001CB500F0E3F800F036F901F039FA20B14D
:1023E0000FF290225F2100F07DF90098DFF8602263
:1023F00046E000B583B001ABDFF858220093536884
:10240000126801F0C0FA20B10FF268227C2100F0BE
:1024100069F901980EBD30B583B000F0E8F8DFF837
:1024200034020460456000F0F8F801F084FA20B14D
:102430000FF24022902100F055F90098DFF81822A1
:102440008AE080B5DFF80C22126800AB01F0D5FA03
:1024500020B10FF22022AD2100F044F9009802BD16
:102460001CB500F09BF800F012F801F0B2FA20B1B0
:102470000FF20022BF2100F035F90098DFF8DC21CF
:10248000411C009189B2019801F062F916BDDFF894
:10249000C401046000AA0198411C2046704780B521
:1024A00000AA01F00EFB20B10FF2C812D72100F0F4
:1024B00019F9009802BD70B584B000F0BCF800F0C6
:1024C000B2F801F0C3FA20B10FF2A812EB2100F02C
:1024D00009F90198DFF8882190E080B500AA01F0A1
:1024E0002DFB28B10FF28C1240F22B1100F0FAF8FC
:1024F000009802BD1CB500F051F800F0A4F801F0FE
:10250000E9FA28B10FF26C124FF49E7100F0EAF86C
:102510000098DFF85021B3E780B500AA01F042FB34
:1025200028B10FF250124FF4AA7100F0DBF80098B6
:1025300002BDF0B585B000F028F800F01CF801F0FD
:1025400001FB28B10FF22C1240F2691100F0CAF819
:102550000298DFF8142106E0411C009189B201982D
:1025600001F0F6F83EBD411C029189B2039801F0DA
:10257000EFF805B0F0BD02A801903B460398401C5F
:1025800000903246294620467047044600200290BB
:102590000D4616461F4602A903A8FDE60446002084
:1025A000009000A901A8F7E680B500F02FF81268A6
:1025B00001F010FB28B10FF2BC024FF4187100F0CB
:1025C00091F8009802BD1CB5FFF7E8FFDFF89C000A
:1025D000FFF75FFF01F0EAFA28B10FF298024FF41B
:1025E0001D7100F07FF80098DFF8842048E704466A
:1025F000002000900D4600A901A8CDE6411C0191E4
:1026000089B2029801F0A4F804B070BD00220092D3
:1026100000AB164A70471548056000AB0198421C94
:1026200029462046704701A8009032460298431C74
:102630002946204670470446002001900D46164664
:1026400001A902A8A8E60198411C00AA20467047EB
:10265000B9230008B42E0020F32300084324000807
:102660009F240008DB24000819250008CC2E002038
:10267000A9250008463A5C776F726B7370616365D9
:102680005C666D3031315C73746D20626F6F745CA9
:10269000626F6F745C50726F6A656374735C5372BF
:1026A000635C426C655C636F646563735C73313358
:1026B000305C6D6964646C65776172655C617070D3
:1026C0005F6D775F626C655F6761702E630000000D
:1026D0007047144840680047124800680047114896
:1026E000806800477047030003D00B0001D013003F
:1026F00001D10E2070470B4B186059609A60002082
:10270000704738B504460D46002348220649082084
:1027100001F0CBFA204601F0DCFA284601F0E1FA9C
:10272000002032BD5C240020C02D002001F083BABF
:1027300030B50D4689B0044668686060A21C4FF64B
:10274000FF70208000A928680090012000F06CFE36
:1027500050BB06A805F108010322FEF7B3FFA878D5
:102760008DF8140005A900200890E868079060889B
:10277000ADF8160004F10800FFF763FDA0B902A848
:1027800005F110010322FEF79DFFA8788DF80400E3
:1027900001A900200490686903906088ADF80600E4
:1027A00004F1200001F00EFB09B030BD30B5044645
:1027B00083B00D4604F10800FFF707FD294604F138
:1027C000200001F0C5FA2888102802D011280AD06C
:1027D00037BD287D012813D1A888208001208DF8DD
:1027E000000000A80AE02088A988884208D14FF696
:1027F000FF70208002208DF8040001A861688847DE
:1028000037BD000038B504460D4600A9204600F04B
:1028100094FF0028F9D1206800210170BDF8000064
:10282000401E286031BD00B583B001AB4B4A009318
:102830005368126801F05FFB20B10FF2341251218E
:10284000FFF750FF01980EBD70B584B000F045F859
:1028500042480560466000F038F801F01AFB20B1EC
:102860000FF20C126821FFF73DFF01983C4A24E06B
:1028700080B500AB3B4A01F0A4FB20B10FF2F0029F
:10288000B021FFF72FFF009802BD30B583B000F0F4
:102890000FF83448056000F05AF801F063FB20B1EE
:1028A0000FF2CC02C021FFF71DFF00982E4A47E02F
:1028B00004460D4600A901A8A4E7411C019189B274
:1028C000029800F045FF04B070BD01A800903246A8
:1028D0000298431C29462046704704460D4616467A
:1028E00001A902A88EE7411C009189B2019800F06D
:1028F0002FFF16BD1B48046000AA0198411C20460A
:10290000704780B500AA01F0A9FB28B10FF2600260
:102910004FF49A71FFF7E6FE009802BD1CB504461D
:10292000FFF7C8FFFFF7E6FF01F078FB28B10FF2D1
:1029300040024FF4A271FFF7D5FE00980B4AD2E790
:10294000411C009189B2019800F002FF3EBD00AB2E
:102950000198421C2946204670470000AC2E0020FA
:1029600027280008802E002071280008032900086D
:10297000463A5C776F726B73706163655C666D304D
:1029800031315C73746D20626F6F745C626F6F7451
:102990005C50726F6A656374735C5372635C426C03
:1029A000655C636F646563735C733133305C6D6960
:1029B00064646C65776172655C6170705F6D775F90
:1029C000626C652E63000000174881B000680090BB
:1029D000009801B0704780B500F02AF8009810F117
:1029E000010F03D00421002001F03CFB0F480090B0
:1029F0000022042100A801F077FB01F0A9FB01BD32
:102A000080B500F015F8009810F1010F09D00421ED
:102A1000002001F027FB00980449884201D10120E1
:102A200002BD002002BD0000FCBF00087856341231
:102A3000002000900022042100A801F070BB087063
:102A4000000A4870022070472DE9F04F83B000253E
:102A50000C9E37780446884691469A46AB4606E077
:102A600030789DF80010081830700BF1010B2088A9
:102A700083452EDA606850F82B000190002200A9EF
:102A800001A8FFF7E1FE58BB9DF800004845ECD1D6
:102A9000002D14BF0020022031789DF8002052FA4A
:102AA00081F252FA80F0202801DB0C2018E035B9C1
:102AB000481C411CC0B2317000F80A8001253078F2
:102AC00000EB0A0200A901A8FFF7BEFE0028C7D04C
:102AD00006E025B13078C01B401E07F80A00002030
:102AE000BDE8FE8FF8B5069F0097154604461E46C2
:102AF0000222FFF7A9FF30B900973346102229467A
:102B00002046FFF7A1FFF2BDF8B514460546207830
:102B10000E46811D202901D30C20F2BD29880629EB
:102B200010DB40F681474FF6FF73B94201DB994253
:102B300008D16A889646BEF1060F03DBBE4503DB6B
:102B40009E4505D00720F2BD994201D08A42F9D3B3
:102B500005218155401C411CC0B2217012228255B2
:102B6000C9B228888919FFF76AFF217840182070B8
:102B7000C0B281196888FFF762FF21784018207081
:102B80000020F2BD2DE9F041164682B00446002730
:102B900037700D46207810B36078801C202824DA26
:102BA0001D20ADF8000000A9A81CFFF734FC10BBE5
:102BB0002078022805D1BDF800001E2838BF092062
:102BC00004D36178082009B11E2901D3BDF8001093
:102BD0004A1C2A706870891C307808183070A078F8
:102BE000D0B13078001D202801DB0C27CCE000A8F4
:102BF000FFF736FC08B10746C6E03078032100F045
:102C0000CAF81921415530784119BDF80000FFF785
:102C100016FF317840183070A08800B3271D7868FF
:102C200008B90727B0E030783A88014611FA82F2F5
:102C3000921C202AD9DA401C30703888401C485534
:102C40003078411C31700121415530783A887968DB
:102C500000F09EF830783988081830700027E06856
:102C600078B13178C057CB1C202BBEDA02234B55EC
:102C7000491CC9B20A224A55491C4A1CC9B23270C1
:102C80004855208A48B100962B460622022104F1BD
:102C90001000FFF727FF070076D1208B48B1009680
:102CA0002B460722032104F11800FFF71BFF070042
:102CB0006AD1208C48B100962B461522142104F1CC
:102CC0002000FFF70FFF07005ED1A06A28B132464F
:102CD0002946FFF719FF070056D1D4F82C80B8F128
:102CE000000F23D0B8F804003178801C51FA80F32B
:102CF0009B1C202BB9DA401C4855481C411C3170E4
:102D0000C0B2FF2100F04DF8317840183070B8F8AB
:102D1000042052B1D8F80810002925D000F037F867
:102D20003078B8F8041008183070002794F8340090
:102D300050B3206B002817D000271FE0216B0C2018
:102D400010FB07183078B8F80410C91C00F023F8FD
:102D5000162100F026F8317840183070B8F80420B9
:102D60005AB1D8F8081000293FF45BAF00F00FF813
:102D70003078B8F80410081830707F1CFFB294F84F
:102D800034008742DAD300273846BDE8F681C0B266
:102D90004019FFF7CDB94155401C411C3170C0B2FC
:102DA0007047415530784119B8F8000047E630B512
:102DB00091B00C460021ADF8001090B18188002937
:102DC0001CBF816800290AD00978490707D50DF191
:102DD000010209A9FFF7D6FEC0B909AD02E007203C
:102DE00014E0002554B1A0880028F8D100AA01A958
:102DF0002046FFF7C7FE48B901AA00E000229DF86F
:102E000000309DF801102846FFF793FB11B030BD4C
:102E100038B504460D462846FEF7A0FB20806560C5
:102E200031BD00000870000A4870022070472DE98B
:102E3000F0418EB004460D0016461F460FF2602882
:102E400003D142466D2100F023F91EB942466E219E
:102E500000F01EF91C22002107A8FFF792FA9DF846
:102E60001C00ADF8044040F002008DF81C00032265
:102E7000002008900A900B900C900D9000210120EA
:102E80008DF8060000A8FFF77CFA38788DF800006E
:102E9000142278788DF8010000219DF8020000F0DE
:102EA000E20040F002008DF8020002A8FFF769FA84
:102EB00001A90291024600A90391ADF8106000211A
:102EC0007248149B0088ADF81210ADF81460069596
:102ED00007A900F0D0FA0EB0BDE8F0812DE9FF415E
:102EE000044601208DF8060041F60A00ADF8040002
:102EF00001A9664D2A46012000F096FA00284BD120
:102F000022884AB1281D00F0C6F8616842F62920DF
:102F1000FFF78DFF00283FD1228952B105F10C0047
:102F200000F0B9F8E16842F62420FFF780FF00289E
:102F300032D1228A52B105F1140000F0ACF8616977
:102F400042F62520FFF773FF002825D1228B52B1CE
:102F500005F11C0000F09FF8E16942F62720FFF719
:102F600066FF002818D1228C52B105F1240000F030
:102F700092F8616A42F62620FFF759FF00280BD12C
:102F8000228D52B105F12C0000F085F8E16A42F67D
:102F90002820FFF74CFF002875D1276B0FF200188F
:102FA000002F30D003D14246332100F071F8D7E929
:102FB00000018DF8080002AAD7E900010004000E04
:102FC000507004F13C03D7E90001000C9070D7E980
:102FD0000001000E8DF80B00D7E90001117102A964
:102FE000B8688DF80D00B868000A9071B868000CD8
:102FF000D071082205F13400009042F62320FFF73B
:1030000016FF00283FD1606B58B105F13C010091DB
:1030100004F13C030279016842F62A20FFF707FF1A
:1030200088BBA76B002F2DD003D142464B2100F067
:103030002FF838788DF808000DF109017888FFF72E
:10304000F1FE401CC6B202A9B8887118FFF7EAFE6B
:103050008019C6B202A83118F888FFF7E3FE80197C
:10306000C0B2072803D04246542100F011F805F100
:10307000440000F010F8072202A942F65020FFF7A2
:10308000D6FE00B9002004B0BDE8F081742D002008
:103090000020FFF727BB009004F13C0370470000BD
:1030A000463A5C776F726B73706163655C666D3016
:1030B00031315C73746D20626F6F745C626F6F741A
:1030C0005C50726F6A656374735C5372635C426CCC
:1030D000655C626C655F6C69625C626C655F7365A0
:1030E0007276696365735C626C655F6469732E6395
:1030F00000000000EFF3108172B6234A13681843F2
:1031000006E0EFF3108172B61F4A136823EA00004D
:10311000106081F3108870471B48006800B1704749
:1031200010B51A4C92B0206840F460602060012114
:10313000206840F440202060012001F029F8144864
:10314000016841F080510160206840F440402060F7
:103150000020009006A801F06FFA01200690079069
:1031600002200C9006A801F02BF800A901A801F09C
:10317000AAFA012001900220029001A8009901F012
:1031800059F912B010BD0000D42E0020007000408C
:103190004038024010B500230122A0F10064B4F5CC
:1031A000804F21D3514C2418B4F5804F38BF0123F0
:1031B0001AD34F4C2418B4F5804F38BF022313D3D1
:1031C0004C4C2418B4F5804F38BF03230CD34A4C21
:1031D0002418B4F5803F38BF042305D3474C241886
:1031E000B4F5003F38BF05237DD3454C2418B4F512
:1031F000003F38BF062376D3424C2418B4F5003F75
:1032000038BF07236FD3404C2418B4F5003F38BFB4
:10321000082368D33D4C2418B4F5003F38BF092378
:1032200061D33B4C2418B4F5003F38BF0A235AD36E
:10323000384C2418B4F5003F38BF0B2353D3A0F10A
:103240000164B4F5804F38BF0C234CD3324C2418A2
:10325000B4F5804F38BF0D2345D3304C2418B4F556
:10326000804F38BF0E233ED32D4C2418B4F5804F29
:1032700038BF0F2337D32B4C2418B4F5803F38BF09
:10328000102330D3284C2418B4F5003F38BF112345
:1032900029D3264C2418B4F5003F38BF122322D37B
:1032A000234C2418B4F5003F38BF13231BD3214C03
:1032B0002418B4F5003F38BF142314D31E4C24182F
:1032C000B4F5003F38BF15230DD31C4C2418B4F5BA
:1032D000003F38BF162306D3194C2018B0F5003F25
:1032E00034BF172300220B60104610BD00C0FFF74B
:1032F0000080FFF70040FFF70000FFF70000FEF737
:103300000000FCF70000FAF70000F8F70000F6F7FD
:103310000000F4F70000F2F700C0EFF70080EFF7CD
:103320000040EFF70000EFF70000EEF70000ECF7C9
:103330000000EAF70000E8F70000E6F70000E4F715
:103340000000E2F710B586B0044601F078FA78B9CB
:10335000019003940220059000A90120049002200E
:10336000029001A801F0D0FA10B901F072FA00B190
:10337000012006B010BDF8B504460D4616461F469E
:1033800001F05DFA48B93B4632462946204601F035
:10339000E2F910B901F05DFA00B10120F2BD0000C0
:1033A00038B504460D462946204600F0C6F90028E7
:1033B000F9D12068002101702888401E288031BD85
:1033C00080B5774B00AA01F0AFFB20B10FF2E812F5
:1033D0006321FFF787F9009802BD30B583B000F094
:1033E000B4F8002D14BFA86800206D49086000AB38
:1033F0000198421C2946204601F023FB20B10FF220
:10340000B8127521FFF76EF90098664A96E080B50C
:1034100000F0B0F801F0E2FB20B10FF29C12912114
:10342000FFF760F9009802BD70B584B000F05BF85A
:1034300000F04FF801F0A2FB20B10FF27C12A8219E
:10344000FFF750F90198584AFFE7411C019189B2F2
:10345000029800F07DF904B070BD80B500AB504A11
:1034600001F022FC28B10FF2501240F22311FFF7B5
:1034700039F9009802BDF0B585B000F021F8484850
:10348000076000F013F801F0CFFB28B10FF228120B
:103490004FF49D71FFF726F90298444A411C0291AE
:1034A00089B2039800F054F905B0F0BD02A801906C
:1034B0003B460398401C0090324629462046704700
:1034C0000446002002900D4616461F4602A903A896
:1034D00066E73348066001A8009032460298431C14
:1034E0002946204670470446002001900D461646A6
:1034F00001A902A854E780B50022009200AA01F0B9
:103500002FFC28B10FF2B00240F28511FFF7EAF864
:10351000009802BD30B583B000F017F80198421C46
:1035200000AB2946204601F0EDFB28B10FF28802DE
:103530004FF4CE71FFF7D6F800981D4A411C009158
:1035400089B2019800F004F93EBD044600200090C5
:103550000D4600A901A823E780B500F00BF801F0A3
:1035600045FC28B10FF250024FF4DC71FFF7BAF8B6
:10357000009802BD0A4A126800AB704770B584B06B
:10358000FFF7B1FFFFF7A5FF01F0F3FB28B10FF242
:10359000280240F2CF11FFF7A5F80198054A54E739
:1035A000A02E0020C13300080F3400085B3400084F
:1035B000F734000859350008463A5C776F726B7330
:1035C000706163655C666D3031315C73746D20626F
:1035D0006F6F745C626F6F745C50726F6A65637456
:1035E000735C5372635C426C655C636F64656373A8
:1035F0005C733133305C6D6964646C6577617265EE
:103600005C6170705F6D775F626C655F6761747439
:10361000732E630062F30F2262F31F42401810F012
:10362000030308D0C91A1FD3DB0748BF00F8012DD8
:1036300028BF20F8022D130030B414461546103967
:1036400028BF20E93C00FAD8490728BF20E90C0030
:1036500048BF40F8042D890028BF20F8022D48BF3C
:1036600000F8012D30BC7047C91818BF00F8012DB3
:10367000CB0728BF00F8012D70470000F7B59DF873
:103680000000434C02283CD1019DBDF80810002DDC
:1036900018BF00293DD015F8016B0FF2FC07491E39
:1036A000012E0BD0022E02D0042E07D01EE062683D
:1036B000284603B0BDE8F04089B21047207878B1C1
:1036C000A26989B228469047E061284600F03DF89B
:1036D00000202070206901001BD0BDE8FE4000479B
:1036E000284600F032F83A46592104E0284600F016
:1036F0002CF83A466421304603B0BDE8F040FEF7AE
:10370000F1BF012805D1606901001CBFBDE8FE4082
:103710000047F7BD10B51E4CE160226100216361D6
:10372000A160606008B9072010BDBDE810401948CD
:1037300001F050BC164800787047154A1278002AEC
:1037400008BF01F08DBC11207047401E01F060BC25
:1037500070B515460E4C01222270A56101F099FC4E
:10376000060008D0D2210FF23002FEF7BBFF002086
:103770002070304670BD002DF9D0A068010002D045
:1037800080470020A060E0688047E669F1E700001C
:10379000442E00207D360008463A5C776F726B73CA
:1037A000706163655C666D3031315C73746D20628D
:1037B0006F6F745C626F6F745C50726F6A65637474
:1037C000735C5372635C426C655C7365725F736FAC
:1037D00066746465766963655C7365725F73645F64
:1037E0007472616E73706F72742E63000870000AD9
:1037F000487002207047F8B50D46044628792070BD
:10380000002601200EE0296851F82610097801559C
:103810000622286850F82600411C3819FEF788FC5B
:10382000B81D761C2979471C8E42ECD3297B0155A3
:10383000002608E0A86850F8261010223819FEF774
:1038400077FC1037761C287B8642F3D33846F2BDCE
:10385000F8B504460D00164618BF002E01D10E2003
:10386000F2BD3068022848D3732002272870002C4C
:103870000CBF002001206870002C55D0306804284F
:103880003BD32078A8700427606800B10120E8705D
:10389000606858B131680B292FD30078287106224F
:1038A0006068411C681DFEF743FC0B273068B91C9B
:1038B000884222D3207A7855781CE168471C01B1F0
:1038C00001214155E168A1B108790928BCBF0A7BF3
:1038D000092A01DB0720F2BDC0EBC00000EB02109B
:1038E0003368801CC019834207D37819FFF783FF20
:1038F000C7193068791D884201D20920F2BD208A9B
:103900007919FFF773FF57FA80F7608A7919FFF783
:103910006DFF217D01F0010157FA80F041EA41027B
:1039200042EA81014155471C37600020F2BD134631
:10393000732201F04EBC30B5002A18BF002B01D114
:103940000E2030BD1C68022C15D37D241470022477
:10395000002914BF01250025557041B11C68042CB5
:1039600009D3941C09882170090A617004241D6818
:10397000611C8D4201D2092030BD00B10120A0544C
:103980001960002030BDF7B505000C461E461CBF6F
:10399000089F002F0CD00020019000977D23224625
:1039A00001A9284601F0F9FB90B9386850B90EB961
:1039B0000E20FEBD009602AB01AA2146284601F06A
:1039C000A4FC28B90198A04201D00920FEBD002026
:1039D000FEBD002918BF002A01D10E2070471368D0
:1039E000022B01D20920704779230B7000B101200E
:1039F00048700220106000207047F0B583B00500C9
:103A00000C4616461F4618BF002F01D10E20FEBDE2
:103A10000020019000977923224601A9284601F051
:103A2000BCFB90B938680028019809D1801C8442F9
:103A300008D3334601AA2146284601F001FC01982B
:103A4000A04201D00920FEBD0020FEBD70B5002BB4
:103A50001CBF049C002C01D10E2070BD2568022DD6
:103A600026D37C251D700225002814BF01260026C0
:103A70005E7028B12568032D1AD30078987003254D
:103A8000202A01DB072070BD2068EE1CB0420FD356
:103A9000E818160A02704670A81C451C002914BFBD
:103AA00001260026C65449B120685619B04201D2F9
:103AB000092070BDE818FDF705FE35462560002099
:103AC00070BD13467C2201F084BB0870000A487068
:103AD00002207047F8B504460D00164618BF002EA8
:103AE00001D10E20F2BD306802280BD37A20287055
:103AF0000220002C14BF012100216970DCB1306864
:103B00000A2801D20920F2BD2088A91CFFF7DDFF99
:103B1000871C60887919FFF7D8FF57FA80F7A088CB
:103B20007919FFF7D2FF57FA80F7E0887919FFF784
:103B3000CCFF57FA80F030600020F2BD13467A22A5
:103B400001F047BB2DE9FE430A9E04460D46904610
:103B50009946002E1ABF0B9F002F0E2020D0002068
:103B6000029002AB72208DF8040031463A6801A839
:103B700001F075FBA0B902A8009032463B682946C7
:103B8000204601F09CFB58B902A8009032463B68E1
:103B90004946404601F093FB10B902983860002076
:103BA000BDE8FE831346722201F013BB002918BF43
:103BB000002A01D10E2070471368022B01D2092080
:103BC000704771230B7000B1012048700220106013
:103BD00000207047F0B583B005000C4616461F461E
:103BE00018BF002F11D000200190009771232246AA
:103BF00001A9284601F0D1FAD8B9386800280198FF
:103C000012D1C01D844211D30EB90E20FEBD019801
:103C1000405D307006220198401C01904119701CD3
:103C2000FDF750FD0198801DA04201D00920FEBD86
:103C30000020FEBD7047F0B52E4C83B0207898B3BD
:103C4000E06800280CBF01250025A06800280CBFF3
:103C5000012600260FF2A4077DB900A801F0F7FBAA
:103C6000052808BF012508D020B13A466B21FEF790
:103C700039FD02E00098E16888479EB96088ADF898
:103C8000040001A9606801F0E4FB052808BF0126D3
:103C900008D020B13A468221FEF724FD02E0606898
:103CA000A16888473542D5D0F7BD10B579B111F07C
:103CB00003030CD10F4C616062800F4901F0DCFB03
:103CC00020B90120207001F05DFC002010BD07200C
:103CD00010BD010001D10E20704706498860002008
:103CE0007047010001D10E2070470249C8600020D2
:103CF00070470000902E0020353C0008463A5C7763
:103D00006F726B73706163655C666D3031315C73CB
:103D1000746D20626F6F745C626F6F745C50726F51
:103D20006A656374735C5372635C426C655C736454
:103D30005F636F6D6D6F6E5C736F667464657669DB
:103D400063655F68616E646C65722E6300000000DD
:103D5000E0B502460888012827D0102804D0112891
:103D600007D050280FD007BD087D012829D18888A9
:103D700005E010888988884223D14FF6FF701080B3
:103D80000020D06007BD01F20600918803888B42B5
:103D900017D1ADF80210002300F21A018DF800309F
:103DA0000291008BADF8040008E0107BC00708D535
:103DB00001208DF800009088ADF8020000A811697C
:103DC000884707BD30B504468FB04FF6FF7020809E
:103DD0000D460020E0600322688860800021A8680A
:103DE0002061E868606101A8FEF7CBFA11208DF828
:103DF00004001C2228798DF8050000219DF806009A
:103E000000F0F90040F002008DF8060008A8FEF767
:103E1000B8FA9DF8200040F014008DF8200003222D
:103E2000002009900B900C90002101A80D9000201B
:103E30000E9028788DF80A0049F20210ADF80800BB
:103E400000A8FEF79EFA00208DF800001422A87941
:103E50008DF8010000219DF8020000F0E30040F021
:103E600003008DF8020003A8FEF78BFA024602A8B1
:103E70000390231D00A8049008A900200590142099
:103E8000ADF81800002007906088FFF7F4FA0FB033
:103E900030BD70B5002B1CBF049C002C01D10E203E
:103EA00070BD2568022D17D365251D7002250028D9
:103EB00014BF012600265E7050B12568052D0BD376
:103EC0009D1C06882E70360A6E7005258078187144
:103ED000AE1C2068B04201D2092070BD681C01B13F
:103EE0000121E954451C002A0CBF00210121C154C5
:103EF0002560002070BD2DE9FC41064600200190A0
:103F00008846089C15461F4600946523424601A931
:103F1000304601F042F918BB2068002801981AD1F8
:103F2000401C804519D301998C5D019095B187B1F2
:103F30002018804511D32878A042B8BF0C200FDB91
:103F40000198811922463846FDF7BCFB01982018DC
:103F500001902C700198404501D0092000E000201C
:103F6000BDE8F6812DE9F04184B00446884616008C
:103F70001F4614BF002F0E2020D000200290632087
:103F80003D688DF8040002AB2A46314601A801F0D5
:103F900066F998B91F48009002AB2A463146204680
:103FA00001F0F1FA50B9009002AB2A463146404682
:103FB00001F0E9FA10B902983860002004B0BDE8B9
:103FC000F081F0B583B005000C4616461F4618BFB9
:103FD000002F00D00EB90E20FEBD002001900097EA
:103FE0006323224601A9284601F0D7F880B9386832
:103FF00040B909480090334601AA2146284601F0FD
:10400000D9FA28B90198A04201D00920FEBD0020AC
:10401000FEBD00001B6E0008795200081CB5144656
:1040200000220192002918BF002C01D10E2016BDDC
:1040300022680AB9092016BD60220A7001AB01226C
:104040000192054A0092226801F09DFA10B9019888
:104050002060002016BD0000F96E000813466022A3
:1040600001F0B7B82DE9F04704460D4604F0010011
:1040700005F00101084331D12E19B6F5806F88BFD4
:1040800002202BD8164F24B1224616493846FEF797
:104090004FF8C4F58060DFF84C90451B06EB07082D
:1040A00009EB060AB6F5806F04D22A46514640460F
:1040B000FEF73EF80320FFF745F92CB123463A46B8
:1040C00049460120FFF757F9B6F5806F05D22B4618
:1040D000424651460120FFF74EF90020BDE8F08727
:1040E0006824002000C0000810B5144604F0010246
:1040F00001F001031A4301D0012010BD0A19B2F5E5
:10410000806F01D9022010BD0B46024604F1006108
:1041100001F540410120FFF72EF9002010BD10B538
:10412000134603F0010201F00104224301D00120F3
:1041300010BDCA18B2F5806F01D9022010BD0A4621
:1041400003F1006101F54041FDF7F2FF002010BDD1
:1041500010B50D480D4C86B0016841F0200101609A
:104160000120019000A900200290022003904FF44A
:1041700080600090204601F04BFA01224FF48061EC
:10418000204601F02AFBF8E73038024000140240D4
:10419000094A13689B0840EA830010600129074818
:1041A000026842F0040202600CBF30BF20BF016809
:1041B00021F00401016070470070004010ED00E044
:1041C0002DE9F0470446DFF83455207841F288386D
:1041D000C00712D5A86800F00C00042807D0A86812
:1041E00000F00C00082838D16868400235D52868EE
:1041F000800302D56068012815D12078DFF80065BA
:10420000800712D5A86810F00C0F07D0A86800F03E
:104210000C0008284CD16868400249D428688007FF
:1042200003D5E068012840F0FC802078DFF8D474E2
:1042300000076FD56169DFF8D00400295DD0012146
:10424000016001F003FB00F164097868800761D424
:1042500001F0FCFA4845F8D3E1E00020A87001F035
:10426000F5FA08EB00062868800304D501F0EEFAA1
:10427000B042F8D3D3E06068A870606801280BD121
:1042800001F0E4FA08EB000628688003B5D401F0D9
:10429000DDFAB042F8D3C2E001F0D8FA08EB00062C
:1042A00028688003A9D501F0D1FAB042F8D3B6E06E
:1042B000E068A8B10120306001F0C8FA00F164079D
:1042C0002868800704D401F0C1FAB842F8D3A6E008
:1042D0002868216920F0F80040EAC1002860A4E7BE
:1042E000306001F0B3FA00F16407286880079CD5BC
:1042F00001F0ACFAB842F8D391E0016001F0A6FAFF
:1043000000F164097868800704D501F09FFA4845F8
:10431000F8D384E02078400741D5286CDFF8ECA37F
:1043200040F080502864DAF8000040F48070CAF849
:10433000000001F08BFA00F16409DAF80000C00512
:1043400004D401F083FA4845F7D368E000203870C0
:1043500001F07CFA08EB00093868800704D501F009
:1043600075FA4845F8D35AE0A0683870A06801286B
:104370000AD101F06BFA8044386880070FD401F04D
:1043800065FA4045F8D34AE001F060FA80443868A5
:10439000800704D501F05AFA4045F8D33FE0A06900
:1043A000002840D0A96801F00C01082939D0022862
:1043B0002AD100F03BF800F164072868800104D599
:1043C00001F044FAB842F8D329E0206A616A40EA71
:1043D0008110A16A891EC903090C40EA0140E16904
:1043E0000843E16A40EA016040F000506860012043
:1043F00000F01DF800F164042868800113D401F076
:1044000025FAA042F8D30AE000F010F800F16404A5
:104410002868800107D501F019FAA042F8D30320DB
:1044200002E0012000E00020BDE8F08700203066B7
:1044300001F00CBA2DE9F041DFF8D472AF4D04461B
:1044400038680E4600F00F0041F28838B0423BD287
:104450003E70386800F00F00B04272D12078C0077B
:1044600071D56068012802D12968890303E02968B1
:10447000022802D1890102D463E0890761D500F0E6
:1044800094F880446068012809D1A86800F00C0005
:10449000042858D001F0DAF94045F6D349E0022863
:1044A00009D1A86800F00C0008284CD001F0CEF922
:1044B0004045F6D33DE0A86810F00C0F43D001F062
:1044C000C5F94045F7D334E02078C00733D560689C
:1044D000012802D12968890303E02968022802D152
:1044E000890102D42DE089072BD500F05EF88044C5
:1044F0006068012809D1A86800F00C0004281AD0CF
:1045000001F0A4F94045F6D313E0022809D1A868C8
:1045100000F00C0008280ED001F098F94045F6D3C1
:1045200007E0A86810F00C0F05D001F08FF94045A6
:10453000F7D3032037E03E70386800F00F00B04238
:1045400001D001202FE02078800705D5A868A16858
:1045500020F0F0000843A8602078400705D5A8683F
:10456000E16820F4E0500843A8602078000706D5F1
:10457000A868216920F4604040EAC100A86000F00A
:1045800036F84FF47A71B0FBF1F0401EB0F1807F45
:1045900008D260494860F0225F48027000208860BD
:1045A000072008600020BDE8F081A968890840EA7A
:1045B0008100A86001F04AB95948416801F00C0136
:1045C000082912D10168574A01F03F01B2FBF1F10D
:1045D000026802680068C0F30140C2F38812401C00
:1045E00051434000B1FBF0F070474E48704780B532
:1045F000FFF7E2FF494A0FF2341312684A49C2F347
:104600000312D25CD0400860086802BD80B5FFF795
:10461000EEFF42490FF214120968C1F3822108E04B
:1046200080B5FFF7E4FF3D490FF200120968C1F3BE
:104630004231895CC84002BD0F2101602F490A68E0
:10464000520348BF052204D40A6812F4803218BF0E
:10465000012242600A6812F0010218BF0122C26002
:104660000A68C2F3C40202610A6F520748BF0522FA
:1046700004D40A6F12F0010218BF012282604A6F4F
:1046800012F0010218BF012242610A68D2014CBF38
:104690000222012282614A6802F48002C2614A68F1
:1046A00002F03F0202624A68C2F3881242624A681C
:1046B00002F4403202F58032D20B82624968C1F3C3
:1046C0000361C16270470F220260144A136803F04D
:1046D00003034360136803F0F0038360136803F47B
:1046E000E053C3601268D20802F4E0520261084845
:1046F000006800F00F0008607047000000380240BA
:104700000000474270380240800E4742007000406F
:10471000003C024010E000E023ED00E008380240D9
:10472000043802400024F400582400200000000057
:10473000010203040102030406070809DFF8B001BF
:104740000168C903FCD4006810F4F97F01D001208E
:104750007047002070472DE9F047DFF898718246D6
:10476000387E00260C4691469846012808BF022054
:1047700057D0012038764FF4F970DFF87451286073
:10478000FFF7DCFF00284AD1BAF1000F0ED100F08C
:104790004AF800F04EF819F8010B3055761CFFF777
:1047A000CDFF002837D14645F5D334E0BAF1010FEB
:1047B0000FD100F038F840F4807000F03AF839F882
:1047C000020B3053B61CFFF7B9FF20BB4645F6D3AA
:1047D00021E0BAF1020F00F026F80DD140F400708C
:1047E00000F027F859F8040B3051361DFFF7A6FFEB
:1047F00088B94645F6D30EE040F4407000F019F851
:10480000F9E8020132190836C2E90001FFF796FF04
:1048100008B94645F4D36968490849006960002130
:104820003976BDE8F087686820F440706860686891
:1048300070476860686840F00100686070472E4803
:10484000C168002903D52D4901602D4905E00120EB
:1048500070472C48016841F000410160002070471A
:1048600070B5044600F0F2FF2518214E3068C003F1
:1048700008D514F1010FF9D000F0E8FFA842F5D3F4
:10488000032070BD306810F4F97F03D000F004F805
:10489000012070BD002070BD154916480A68D20677
:1048A00044BF102242760A68920603D5427E42F047
:1048B000080242760A68520603D5427E42F004029C
:1048C00042760A68120603D5427E42F00202427620
:1048D0000A68D20503D5427E42F001024276096899
:1048E000890703D5417E41F02001417670470000E1
:1048F0000C3C0240642E0020043C0240230167452A
:10490000AB89EFCD103C02402DE9F843DFF8186188
:104910000446307E8946012808BF02203CD0012091
:1049200030764FF4F970DFF8047138604CF250388B
:1049300000F034F870BB4FF0FF31C9F80010216867
:1049400001290CD120696168C0B200F02AF800F09A
:1049500025F87968DFF8D820114079601AE0A56859
:1049600000E06D1CE168A26851188D4212D22169E5
:10497000C9B2284600F031F800F010F8796821F04B
:10498000020179600028796821F0F8017960E8D0A7
:10499000C9F8005000213176BDE8F2834046FFF7A8
:1049A0005FBF2448026822F4407202600329026853
:1049B000026005D1016841F4004141F0040106E0C4
:1049C000012901680CBF41F0040141F4004101607C
:1049D000016841F4803101607047002251B1012922
:1049E00008BF4FF4807205D002290CBF4FF400724B
:1049F0004FF440720C2828BF001D0E490B6823F4A9
:104A000040730B60C0000B681A430A6040F002005C
:104A10000A6822F0F8020A600A6810430860086811
:104A200040F4803008607047642E00200C3C024047
:104A3000FB7FFFFF103C02400870000A4870022014
:104A400070472DE9F0410C4615001E4618BF002E98
:104A500004D02CB1A16819B9E16809B10E2061E058
:104A60003168052944D3A6212970691CFFF7E4FFAA
:104A7000401C471C002C14BF012100214155002C73
:104A80004ED03068F91D884232D320887919FFF75B
:104A9000D3FF57FA80F0A1784155471CA0887919B7
:104AA000FFF7CAFF57FA80F7A06807F1010890B333
:104AB00031683A1D91421BD30088B0F5007FC8BF12
:104AC00007202FDC0120785508EB0501A06800883D
:104AD000FFF7B2FF58FA80F7E06807F10108B8B1B4
:104AE000A1683068098817FA81F1491C884201D20F
:104AF000092017E001207855A0680288E16808EBDA
:104B00000500FCF7DFFDA068008818FA80F707E0D1
:104B10007855474604E0785508F8050008F1010784
:104B200037600020BDE8F081F0B583B005000C4689
:104B300017461E4618BF002F01D10E20FEBD0020D3
:104B400001900097A623224601A9284600F025FBE4
:104B500080B9386840B908480090334601AA214618
:104B6000284600F027FD28B90198A04201D009206D
:104B7000FEBD0020FEBD00002152000830B5002B14
:104B80001CBF039C002C01D10E2030BD2568042DD4
:104B900018D3A0251D7058700320002914BF0125CB
:104BA00000259D7051B1206806280BD3D81C0D88B4
:104BB00005702D0A45708878587106202568411CBB
:104BC0008D4201D2092030BD05460846002A14BF97
:104BD00001210021E9542060002030BDF0B583B0F0
:104BE0000546002001900C4616461F460097A0235C
:104BF000224601A9284600F0D0FAA0B9386860B969
:104C00000EB90E20FEBD0198801C844208D33346A5
:104C100001AA2146284600F013FB0198A04201D0CA
:104C20000920FEBD0020FEBD2DE9F14384B00C46F5
:104C30000C9F90469946002F1ABF0D9D002D0E2007
:104C40002AD00020029002ABA2208DF80400394641
:104C50002E68324601A800F002FBE8B902AB3246EA
:104C6000394604A800F0CAFAB0B9234800F017F892
:104C7000204600F088FC78B9204800F010F8404643
:104C800000F081FC40B900F00AF8484600F07BFCD7
:104C900010B902982860002005B0BDE8F0830090AC
:104CA00002AB324639467047F0B583B005000C467A
:104CB00016461F4618BF002F01D10E20FEBD002052
:104CC00001900097A223224601A9284600F065FA28
:104CD00080B9386840B90A480090334601AA214695
:104CE000284600F067FC28B90198A04201D00920AD
:104CF000FEBD0020FEBD0000B96800085B69000829
:104D0000D9690008F1B584B00C4615001E4614BFE1
:104D1000002E0E201FD000200290A82037688DF8AA
:104D2000040002AB3A46294601A800F098FA90B96F
:104D300002AB3A46294604A800F060FA58B9074881
:104D4000009002AB3A462946204600F01CFC10B900
:104D500002983060002005B0F0BD0000B96C00087A
:104D60001346A82200F035BA0870000A48700220E5
:104D700070472DE9F0410F4614461D001ABF069EEC
:104D8000002E0E2030D03168062918D3A5212970B5
:104D9000691CFFF7E9FF00F1010808EB050138463F
:104DA000FFF7E2FF58FA80F0471C002C0CBF0021EF
:104DB00001214155B4B13068791D884201D20920E2
:104DC00012E060887919FFF7CFFF57FA80F7208843
:104DD0007919FFF7C9FF57FA80F06168471C01B1E4
:104DE0000121415537600020BDE8F081FEB5040087
:104DF0000D4616461F4618BF002F01D10E20FEBDDE
:104E0000002002900097A5232A4602A9204600F020
:104E1000C4F930BB3868F0B9EEB10298401C854245
:104E20001CD30299095D0290012912D137883346BB
:104E300002AA2946204600F0F3F990B93088019083
:104E40000097331D02AA2946204600F09DFA10B1B2
:104E5000FEBD0320FEBD0298A84201D00920FEBD80
:104E60000020FEBD37B584B000A8002100220B460B
:104E70000EC005208DF80000A64C9DF8101020787B
:104E800063680FF29825062900F29880DFE801F0A8
:104E9000041C5B6C7D838A006078032811D1042098
:104EA000607004F1080000F020F918B12A465E2174
:104EB000FDF718FC00208DF8000000A807C8636803
:104EC0007AE02A4666217BE001218DF80010BDF8CA
:104ED0001410B1F5807F17D801280CD100F077F8B5
:104EE00004F5847000F055FE18B12A467721FDF7CD
:104EF000F9FB022044E0042803D100F068F8052003
:104F00003EE02A4684215BE001280BD100F05FF8E7
:104F1000002000F03EFE18B12A468E21FDF7E2FB8C
:104F200003202DE004280BD100F051F8002000F000
:104F300030FE18B12A469521FDF7D4FB06201FE06C
:104F40002A469B213CE002280BD10420207002203D
:104F50008DF8000005980190BDF81800ADF8080024
:104F600028E02A46B4212BE0032803D100F02DF8D5
:104F7000012005E0062805D1032000F026F80420D2
:104F8000207020E02A46CC211AE004208DF8000091
:104F90008DF804200EE004208DF8000001208DF82B
:104FA000040007E004208DF8000002208DF80400C2
:104FB0000598029000A807C8984704E02A46F32104
:104FC0000020FDF78FFB07B030BD8DF8000000A872
:104FD00007C8184710B54F4C2178002904BF6178E5
:104FE000002901D0082010BD010001D10E2010BD04
:104FF0006060012121706170474800F0DEFD30B132
:105000000021217061706160072818BF032010BD66
:1050100070B50446002500F033FE0CB90E251BE0E8
:105020003C4E06F58470844218BF102514D13178A7
:10503000042908BF01200AD0062908BF032006D092
:10504000052908D100F0A5FD050002D1022030702D
:1050500002E0032500E0082500F00FFE284670BDA1
:1050600010B50022002814BF00290E220FD0294BB2
:105070005C780CB908220AE0012C07D102245C708C
:10508000083303604FF48070088000E0042210466B
:1050900010BD70B504000D4608BF0E2423D00DB915
:1050A000072420E01B4E06F10800844218BF10249C
:1050B00019D1B5F5807F88BF0C2414D870780228E8
:1050C00010D100F0DDFD2946204600F04CFD040023
:1050D00002D10320707002E0112C18BF032400F0ED
:1050E000CCFD00E00824204670BD002108B90E2147
:1050F0000DE0084A02F10803984218BF102106D1BA
:105100005078022813BF0428012050700821084657
:105110007047000068280020654E0008463A5C771A
:105120006F726B73706163655C666D3031315C7397
:10513000746D20626F6F745C626F6F745C50726F1D
:105140006A656374735C5372635C426C655C73651F
:10515000725F7472616E73706F72745C7365725F8C
:1051600068616C5F7472616E73706F72742E63002D
:105170000870000A4870022070470178407841EAC0
:10518000002070470178427841EA02218278C07895
:1051900041EA024141EA0060704738B50C460028F8
:1051A00018BF002C01D0049D0DB90E2032BD052A78
:1051B00001D20C2032BD21680A5C9A4201D00B203A
:1051C00032BD0818401CFFF7DDFF28602068401D35
:1051D00011E01CB50C4600210093019113462246B4
:1051E00001A9FFF7DAFF28B90198A04201D00C20ED
:1051F00016BD002016BD2060002032BD10B51C4633
:105200002368D21A022A01D2092010BD0088591839
:10521000FFF7AEFF216851FA80F02060002010BD3A
:1052200038B514461D462268891A022901D2092080
:1052300032BD1018FFF7A1FF28802068801CDAE734
:1052400038B514461D462268931C994206D310189F
:10525000FFF793FF28802068801C206031BD10B5C7
:105260001C68121B01D1092010BD00786054186819
:10527000401C1860002010BD10B51468091B01D136
:10528000092010BD205C18701068401C10600020C0
:1052900010BD30B51468651CA94204D3205C187099
:1052A0001068401C106030BD30B51468651CA94200
:1052B00004D3205618701068401C106030BDF2B541
:1052C00082B000F019F8FFF7CAFF18B99DF808106E
:1052D00000F00DF8FEBDF2B582B000F00DF8FFF75A
:1052E0008DFF18B9BDF8081000F001F8FEBD009759
:1052F00033462A46204621E00446089F15461E46AE
:105300003B463246294602A870472DE9F04383B058
:1053100099460A9E378804460D4690463346FFF765
:105320007FFF10B9308800F002F8BDE8FE830190DD
:1053300000974B4642462946204625E02DE9F84392
:105340000400884615461E4618BF01208DF800004F
:105350003246089F3B46294600A8FFF780FF5FEAD8
:1053600000090ED16CB13868311A414538BF0920A7
:1053700008D3424621464019FCF7DAFE386840441B
:1053800038604846BDE8F283F8B505460020174668
:105390008DF800000E4638681C46301A17D000AB56
:1053A0002846FFF776FF9DF80000012819D1002C50
:1053B0001CBF2068002801D10E20F2BD079C069971
:1053C000A4B2A14222BF3968721AA24201D20920B6
:1053D000F2BD22464919FCF7ABFE38682018386048
:1053E00002E00CB1002020600020F2BD30B593B087
:1053F00004464820009000AB01AA204600F0B8FC0B
:105400000FF2C00518B12A463E21FDF76BF9204680
:10541000FEF79BF918B12A464121FDF763F92548AB
:10542000006801A900F07BFD18B12A464421FDF770
:1054300059F9FDF754F913B030BD80B5FDF74CF9BB
:10544000FEF778F90028F9D101BDFDF742B9052032
:10545000704738B50446174800680D46214600F0ED
:1054600083FD38B961882A888A4201D20C2032BD76
:10547000298032BD052032BD80B500F057F8C0B993
:1054800000F074F8322000F06FF800F071F84FF47B
:10549000FA7000F069F807490FF2840000F028FD67
:1054A00038B9054A05490648BDE800500023FEF713
:1054B00031B902BDD02E00204B5400083B540008E7
:1054C000ED530008463A5C776F726B7370616365E9
:1054D0005C666D3031315C73746D20626F6F745C2B
:1054E000626F6F745C50726F6A656374735C537241
:1054F000635C426C655C7365725F736F6674646550
:10550000766963655C7365725F736F6674646576F4
:105510006963655F68616E646C65722E630000008C
:105520000500000048000000702A002010B586B079
:105530000120019000200290022003904FF40060AF
:1055400000900E4C0E48016841F0010101602046B8
:1055500000A900F05DF801224FF40061204600F040
:105560003CF9002006B010BD00F03DBD002200E077
:1055700001224FF40061014800F02FB90000024001
:1055800030380240704770B504461D680020561B35
:1055900001D1092070BD002C0CBF002601266E54DD
:1055A0001D686D1C1D6024B1049D2E001CBF20468B
:1055B000A84770BD2DE9F041164682B0804630689C
:1055C0000D4600271C46281A08BF09201ED000AB34
:1055D0004046FFF75EFE9DF80000012810D1002C28
:1055E0001ABF2368002B0E2010D0DDF820C0BCF1BC
:1055F000000F0AD0324629464046E047074604E0FD
:1056000010B914B1206000E00B273846BDE8F681E0
:105610002DE9F04F0022734CDFF8CC81DFF8CC91FC
:105620004FF00F0A01230D68934003EA050E9E45D3
:1056300040F0C7804D68022D18BF122D11D102F025
:105640000705AF00D6080D6900EB8606BD40D6F809
:1056500020B00AFA07F72BEA07073762376A3D439B
:10566000356255000326AE400768F64337400760B1
:10567000076891F804B00BF0030B0BFA05FB4BEA3B
:10568000070707604F68012F18BF022F03D0112FA3
:1056900018BF122F15D18768374087608768D1F807
:1056A0000CB00BFA05FB4BEA07078760476827EA4F
:1056B0000303436043684F68C7F3001797403B43B9
:1056C0004360C3683340C360C3688E6806FA05F55B
:1056D0002B43C3604B68DB0073D5D9F8003043F42B
:1056E0008043C9F80030950802F003039B0058F886
:1056F00025600AFA03F7BE4348F825603C4EB042E5
:1057000008BF00262CD03B4EB04208BF012627D050
:10571000394EB04208BF022622D0384EB04208BFF0
:1057200003261DD0364EB04208BF042618D0354E91
:10573000B04208BF052613D0334EB04208BF06263C
:105740000ED0324EB04208BF072609D0304EB042CC
:1057500008BF082604D02F4EB0420CBF09260A26E7
:1057600058F8257006FA03F33B4348F825306FEAF2
:105770000E0325681D40256065681D4065604D6805
:10578000ED0303D525684EEA050525604D68AD0398
:1057900003D565684EEA05056560A5681D40A560EE
:1057A000E5682B40E3604B68DB0203D5A3684EEA53
:1057B0000303A3604B689B0203D5E3684EEA03032F
:1057C000E360521C102AFFF42DAFBDE8F08F006992
:1057D000084018BF0120C0B270470AB1018370476A
:1057E00041837047003C0140083801404438024082
:1057F000000002400004024000080240000C024089
:10580000001002400014024000180240001C024038
:10581000002002400024024080B50E48016841F497
:1058200000710160016841F480610160016841F428
:1058300080710160032000F0F5FB00F03FFC0020C8
:1058400002BD05480168491C0160704702480068B4
:1058500070470000003C0240D82E0020082100E0E4
:105860000421DFF87404FFF7B2BFF8B504460D4613
:1058700016461F460120FDF73DFC3B4632462946B1
:10588000204601B0BDE8F04000F071BE1346DFF8DD
:105890004C24EAE713460A460FF25441E5E710B5F7
:1058A000DFF83C44A07820B10020A070012000F077
:1058B00081F8E07818B10020E07000F07BF82079E2
:1058C00020B100202071022000F074F8607920B12E
:1058D00000206071042000F06DF8A07928B100204C
:1058E000A0710320BDE8104064E010BD10B5DFF8E2
:1058F000F043FFF7B5FF18B90120E071E0700FE049
:105900000020E07110BD10B5DFF8D443FFF7A6FF0B
:1059100018B901202072A07002E00020207210BD92
:105920004720BDE8104000F0B8BB002202600A80AA
:105930007047401A80B28028A8BF7F207047DFF8E8
:10594000A01308700222000A4870DFF898039DE750
:1059500038B5DFF88C43658A208A2946FFF7E9FFCE
:105960000246E069A2822918DFF87803FFF78EFF6C
:10597000618AA28A5118618232BD0222DFF8601367
:10598000DFF8600386E738B5DFF85443258BE08AFB
:105990002946FFF7CEFF216ADFF8483360830029EC
:1059A000024614BF691804F128011846BDE83840C2
:1059B00070E7000050B5DFF82843A27A667A636A80
:1059C0000146A08985B0082E58D8DFE806F0051CEE
:1059D000142E195062778700012905D10020A0728A
:1059E000E07900280ED1B1E0032947D10021A1724E
:1059F000E17911B99DE0002940D101216172A1E056
:105A000000293BD19BE0022906D120820020608240
:105A1000E07900286FD005E000292FD1002A2FD08F
:105A20000020A072032060721DE0022915D1608A57
:105A3000218A884203D2E07900285CD013E004F187
:105A40000C0104F11C00FFF770FF00208DF800002E
:105A500000A807C8636A98476DE000290ED1002AA4
:105A60000ED00020A07205B0BDE8504070E70229BA
:105A700003D1E07900283ED005E0002971D1002A49
:105A80006FD00020A0720620607205B0BDE85040C3
:105A900073E7022965D1072060726178207840EAB7
:105AA0000120E081E0820121ADF804008DF80010B2
:105AB00000A807C805B0BDE850401847042904D124
:105AC00000202083E079B0B105E0002949D1002A07
:105AD00047D00020A072082060723EE0022938D131
