:020000040801F1
:10000000009D0010D5570D0805580D0865100C0807
:1000100011580D0819580D0821580D08000000004E
:1000200000000000000000000000000029580D083A
:1000300031580D080000000039580D0879100C08DF
:1000400045580D084D580D0855580D087D100C08E1
:1000500061580D0869580D0871580D0879580D0838
:1000600081100C0893100C0889580D0891580D0840
:1000700099580D08A1580D08A9580D08C5100C086D
:10008000B5580D08BD580D08C5580D08CD580D08B8
:10009000D5580D08DD580D08E5580D08AD100C08B1
:1000A000F1580D08F9580D0801590D0809590D08A6
:1000B00011590D08B1100C081D590D0825590D08CE
:1000C0002D590D0835590D083D590D0845590D0894
:1000D0004D590D08B9100C0859590D0861590D08F2
:1000E00069590D0871590D0879590D0881590D0884
:1000F00089590D0891590D0899590D08A1590D08F4
:10010000A9590D08B1590D08B9590D08C1590D0863
:10011000C9590D08D1590D08D9590D08E1590D08D3
:10012000C1100C08ED590D08F5590D08BD100C084B
:10013000015A0D08095A0D08115A0D08195A0D08CF
:10014000215A0D08295A0D08315A0D08395A0D083F
:10015000415A0D08495A0D08515A0D08B5100C089E
:100160005D5A0D08655A0D086D5A0D08755A0D082F
:100170007D5A0D08855A0D088D5A0D08955A0D089F
:100180009D5A0D08A55A0D08AD5A0D08B55A0D080F
:10019000BD5A0D08C55A0D08CD5A0D08D55A0D087F
:0C01A000DD5A0D08E55A0D08ED5A0D0857
:10020000009D0010D5570D0805580D08B9970B082B
:10021000CF970B08CF970B08CF970B080000000073
:1002200000000000000000000000000041980B08E2
:1002300031580D080000000041980B0879100C0897
:1002400045580D084D580D0855580D08E1960B08F6
:1002500061580D0869580D0871580D0805970B086D
:1002600017970B0829970B0889580D0891580D0806
:1002700099580D08A1580D08A9580D08A7970B0803
:10028000B5580D08BD580D08C5580D08CD580D08B6
:10029000D5580D08DD580D08E5580D0871970B0865
:1002A000F1580D08F9580D0801590D0809590D08A4
:1002B00011590D0883970B081D590D0825590D0874
:1002C0002D590D0835590D083D590D0845590D0892
:1002D0004D590D0895970B0859590D0861590D088E
:1002E00069590D08F3960B0879590D0881590D08C5
:1002F00089590D0891590D0899590D08A1590D08F2
:10030000A9590D08B1590D08B9590D08C1590D0861
:10031000C9590D08D1590D08D9590D08E1590D08D1
:100320004D970B08ED590D08F5590D083B970B0833
:10033000015A0D08095A0D08115A0D08195A0D08CD
:10034000215A0D08295A0D08315A0D08395A0D083D
:10035000415A0D08495A0D08515A0D085F970B086C
:100360005D5A0D08655A0D086D5A0D08755A0D082D
:100370007D5A0D08855A0D088D5A0D08955A0D089D
:100380009D5A0D08A55A0D08AD5A0D08B55A0D080D
:10039000BD5A0D08C55A0D08CD5A0D08D55A0D087D
:1003A000DD5A0D08E55A0D08ED5A0D08005FCB59CE
:1003B000000000004A54668B8653F253B08B555FA1
:1003C000000000009F53E0563A000000E065B08B4B
:1003D000555F00006D006D006F006C002F004C0039
:1003E000000000006D0067002F0064004C0000005A
:1003F0005B005D000F5CF665000000005B005D00C7
:1004000055000000CD910D594A54668BF495949691
:10041000000000007B7C8B5700000000B67201607A
:1004200000000000F495949600000000D89A0000A7
:100430004E4F00007351ED9500000000005F2F54F7
:10044000000000004A54668B938FFA51EA81C0681D
:100450000000000009634F004B002E95005FCB5950
:100460004A54668B938FFA51EA81C0682C001F674B
:10047000F4954B6201633A67065CCD543300216BFF
:100480002C002F63A8523300216B0000FB7CDF7E21
:100490004A54668B938FFA51EA81C0682D4E2C0026
:1004A000F78B497B855F2E002E002E000000000098
:1004B0004A54668B938FFA51EA81C0688C5BD56B86
:1004C000000000004088D67C4A54668BE895509620
:1004D000000000002800680068003A006D006D0010
:1004E0002900000028006D006D006F006C002F00D7
:1004F0004C0029000000000028006D0067002F005C
:1005000064004C00290000004E4F5096000000008F
:10051000D89A509600000000636B2857BE8B6E7F00
:100520004088D67C4A54668BE89550962C00F78B11
:10053000497B855F2E002E002E000000F78B065CA5
:100540004B6201633A676097D18FD153045C685660
:10055000000000004088D67C4A54668BE89550968F
:10056000BE8B6E7F8C5B10622E00200009634F00F3
:100570004B001662450053004300DE5630523B4E9E
:100580004F5C555E000000001A90E14F858DF665C6
:100590002C00F78B62632A4E3057B9702C00096328
:1005A0004F004B002E95CD91D58B0000F058F3975E
:1005B0002F002F63A852099079980000F058F39704
:1005C000000000002F63A85200000000F058F397CD
:1005D0008C542F63A85200004D515362706200008A
:1005E000EA81A85282665C50938FE86C4A54668B0D
:1005F00000000000E065CD645C4FF665F495858DE4
:10060000C78F000048000000EA81A85282665C5053
:10061000938FE86C4A54668B167F918F8C5B1062C7
:100620002C00636B2857F466B0652D4E2C00F78BB9
:10063000497B855F2E002E002E000000F78B065CA4
:100640004B6201633A676097D18F348D4772F56CC6
:1006500000000000EA81A85282665C50938FE86C2B
:100660004A54668BBE8B6E7FF25D1F754865000035
:100670001A90E14F858DF6652C0062632A4E305743
:10068000B970CD91D58B1662C87E626BA8506F830E
:10069000348D0000CD91D58B00000000C87E626BC8
:1006A000A8506F83348D0000A8506F83348DC06FC5
:1006B0003B6D00004E4F4088D67C82665C50000047
:1006C00084984B6D4E4F82665C500000EA81A852C0
:1006D00082665C500000000031000F5CF6658266A7
:1006E0005C500000CF6BE565CF9182665C500000E6
:1006F0004B62A85282665C5000000000A8506F83D5
:10070000348D35585E580000A8506F83348DC78FE4
:100710001F670000A8506F83348D7A7A00000000B4
:10072000A8506F83348D45659C960000A7633652B0
:10073000685645659C9600004B62A852C87E626B65
:1007400000000000167F918F82665C500000000060
:10075000A8506F83348DA16C35750000A8506F834D
:10076000348D35754E4F0000A8506F83348D224E66
:10077000035F0000FA574078CF918653F253B08B55
:10078000555F0000E5651F6700000000938FE86C6F
:1007900082665C500000000009670000E065000010
:1007A000344EF665FA574078CF910000F4666263E4
:1007B0002F00B065A8506F83348D0000938FE86CD4
:1007C000C87E626B00000000F25D938FE86CFA5700
:1007D0004078CF91000000002A00000055002F0053
:1007E00048000000FA574078CF910B7A8F5E0000E6
:1007F000535F4D520D4E2F660768C651FA57407829
:10080000CF910B7A8F5E2C00FA574078CF910B7AFC
:100810008F5E7351ED958179287500000768C65188
:10082000000000003B95BC70000000004750E565EB
:10083000000000000B7A8F5E410000000B7A8F5E93
:1008400042000000F058F3977351ED95D0639291F8
:10085000000000004088D67C4A54668B00000000EF
:10086000636B2857BE8B6E7F4088D67C4A54668B5C
:10087000005F73512C00F78B497B855F2E002E00A3
:100880002E0000004088D67C4A54668B005F73516E
:10089000BE8B6E7F8C5B10622E0009634F004B0095
:1008A0001662450053004300DE5630523B4E4F5C0B
:1008B000555E00004088D67C025F385E84984B6DA0
:1008C0004A54668B000000008498668BF665F495A8
:1008D00000000000636B2857BE8B6E7F4088D67C7B
:1008E000025F385E84984B6D4A54668BF665F495CA
:1008F0002C00F78B497B855F2E002E002E00000018
:100900004088D67C025F385E84984B6D4A54668B73
:10091000F665F495BE8B6E7F8C5B10622E000963CA
:100920004F004B001662450053004300DE56305224
:100930003B4E4F5C555E00004088D67C8B8DBF528D
:10094000FE563E663A7900004088D67CD85316534E
:10095000025F385E4A54668B00000000D85316537D
:100960001F908773000000000A4E475300000000EC
:100970000B4E4D960000000028006D006D006F00CA
:100980006C002F004C002F006D0069006E002900E4
:100990000000000028006D0067002F0064004C007C
:1009A0002F006D0069006E0029000000636B28575E
:1009B000BE8B6E7F4088D67CD8531653025F385E5C
:1009C0004A54668BE89550962C00F78B497B855FDF
:1009D0002E002E002E0000004088D67CD8531653DF
:1009E000025F385E4A54668BE8955096BE8B6E7FE8
:1009F0008C5B10622E00200009634F004B001662D2
:100A0000450053004300DE5630523B4E4F5C555E6E
:100A1000000000000763165C4088D67CD06392918A
:100A2000000000002A67DE8FA563A263345900002E
:100A3000224E3159000000003F003F003F000000FF
:100A40002168C65100000000199500000A4E50961A
:100A5000000000000B4E5096000000001D52CB59C4
:100A6000165300004088D67CA263345970656E63CB
:100A700062600D592D4E2E002E002E000000000049
:100A80004088D67C55534D4F00000000C47E08546A
:100A90002F006962555C27594252CF910000000037
:100AA000636B2857938FE86CC47E085427594252D1
:100AB000CF9116626962555C27594252CF912C0042
:100AC000C47E08542F006962555C27594252CF9169
:100AD000BE8B6E7F81792875000000002759425235
:100AE000CF918653F253B08B555F0000636B385E35
:100AF00027594252CF913A0000000000F25D938FD7
:100B0000E86C3A0000000000F25D8C5B10620000AF
:100B1000F25DD653886D00006962555C27594252D8
:100B2000CF913A0000000000938FE86C2D4E00003A
:100B3000C47E085427594252CF913A000000000069
:100B4000C47E636B3A000000C47E69623A00000014
:100B50002168636B27594252CF911154FC5B00000E
:100B60004088D67C3A000000DF98697227594252CB
:100B7000CF911154FC5B0000DF9869723A000000CD
:100B80006700000027594252CF918653F253B08B31
:100B9000555FE68BC5600000F665F4950000000027
:100BA000BE8B6E7F3A0000000163ED7EF665F49522
:100BB0003A0000006952594FF665F4953A0000007A
:100BC0007B7C8B573A000000C47E08540000000074
:100BD0003B600097426CCF913A0000002759425287
:100BE000CF911154FC5B0000304F977B3B60CF915D
:100BF0003A0000000763165C4088D67C3A0000008B
:100C00002168636B27594252CF913A0000000000DF
:100C10003B6D2760F0809B5C207D3A000000000067
:100C2000DB8FDF98CF913A0000000000DF986972F7
:100C300027594252CF913A000000000027594252F2
:100C4000CF91006727593C5000000000550000007C
:100C50009E58A052D063929100000000D37E5F673F
:100C6000000000004F004B006E78A48B2C00450064
:100C700053004300D653886D000000002052649654
:100C8000D063929100000000DE567E98D06392916E
:100C90000000000027594252CF91656B7F950000FC
:100CA00027594252CF911154FC5BDE567E980000CA
:100CB0003B6D2760F0809B5C207DF665F49500001D
:100CC00068000000F0809B5C207DDF986972D46B27
:100CD00000000000F0809B5C207D75704F65A65E73
:100CE00000000000EE7607684088D67C0000000017
:100CF000D653886D344EF665FA574078CF91000090
:100D0000265400002F660000636B2857D653886D69
:100D1000344EF665FA574078CF910B7A8F5E2C00EF
:100D2000F78B497B855F2E002E002E00000000000F
:100D3000344EF665FA574078CF91F25DAB88D653C2
:100D4000886D0000535F4D52C06F3B6D8476FA573B
:100D50004078CF910B7A8F5E3A4E0768C6510000FB
:100D6000535F4D52C06F3B6D8476FA574078CF91F8
:100D70000B7A8F5E3A4E3B95BC700000535F4D522C
:100D8000C06F3B6D8476FA574078CF910B7A8F5EB7
:100D90003A4E4750E5650000535F4D52C06F3B6DC2
:100DA0008476FA574078CF910B7A8F5E3A4E0B7A61
:100DB0008F5E410000000000535F4D52C06F3B6DDD
:100DC0008476FA574078CF910B7A8F5E3A4E0B7A41
:100DD0008F5E420000000000348D4772F56C2A6778
:100DE000366530522875376284767D54E44E2C0087
:100DF00009634500530043002E950090FA5100000E
:100E0000938F65510763165C4088D67C3C50000088
:100E10004F004B00E77EED7E2C0045005300430061
:100E20000090FA5100000000938F6551B378346C44
:100E3000165308546972CF9100000000FA5EAE8B21
:100E400027594252CF913A0000000000B378346C29
:100E50001653085469723A000000000027594252A4
:100E6000CF911154FC5B304F977B3C503A4E5B0066
:100E70005D002C000D4EFA5EAE8B938FE86C000087
:100E8000858DFA51006727593C500000FA5EAE8B01
:100E90003A000000006727593C503A00000000006B
:100EA000BE8B9A5B27594252CF913A000000000056
:100EB000636B385E27594252CF910000C47E0854BC
:100EC00027594252CF9100006962555C275942521E
:100ED000CF910000636B385E3A0000006962555C98
:100EE0003A000000005FCB5927594252CF913F0092
:100EF000000000003B60A18B3A0000000763165C15
:100F00004088D67CD0639291F495949600000000BE
:100F1000938F6551F4959496F665F4950000000062
:100F2000636B28572F54A85227594252CF912C0057
:100F3000F78B497B855F2E002E002E0000000000FD
:100F4000636B2857D653886D27594252CF912C0096
:100F5000F78B497B855F2E002E002E0000000000DD
:100F6000636B2857C068E567348D4772F56CB672BD
:100F700001602E002E002E0000000000636B285739
:100F8000938FE86C27594252CF910000D653886D59
:100F90000000000027594252CF91F25DD653886D70
:100FA00000000000636B385E27594252CF91938F47
:100FB000E86C8C5B10620000F25D938FE86C0000BF
:100FC000E065C06F3B6D8476A8506F83348D2C0034
:100FD000B0732857C06F3B6D004E2A4EA8506F83E8
:100FE000348D3F0000000000A8506F83CF914E4F1A
:100FF000D653886D27594252CF910000A8506F8375
:10100000348D84766952594F6F83CF914E4F8E4EF7
:10101000BE8B9A5B847627594252CF912C00D653CF
:10102000886D2C67216B938FE86C2E00F78B3D5CED
:10103000EB5FF4666263A8506F83348D2E0000006E
:10104000FA5EAE8B2C67216B27594252CF910D4E21
:10105000858DC78F5B005D0055002E0000000000ED
:101060004A530F5CF6658551F25D938FE86C858D70
:10107000C78F310030005500636B385E27594252EC
:10108000CF912C002F662654CD4E36718189BE8BB0
:101090006E7F27594252CF912E00F78B28573B5332
:1010A0001F750763FC5B0B4E7F4F28752E0009638D
:1010B0004F004B002E95E77EED7E2C00450053003F
:1010C00043002E950090FA51000000002F66265430
:1010D000D653886D2A67938FE86C847627594252DD
:1010E000CF913F0000000000E065C06F3B6DA8504D
:1010F0006F83348D0000000009634F004B002E9574
:10110000DB8F6551C06F3B6DC78F0B7A000000000D
:10111000DE8FA5630CFFE86C6F830000A763365277
:101120006856DE8FA563B065A8506F83348D2C00A0
:10113000F0809B5C207D4C70E86C3052B065A8500C
:101140006F83348D0000000009634F004B00E77E81
:10115000ED7E00004551C8760000000009630B4E8B
:10116000DD4FA462D6760963AE94000009634F0098
:101170004B002E95005FCB594551C876000000000A
:10118000F78B6E78A48B2F662654224E035FA850EF
:101190006F83348D00000000E77EED7EC06F3B6DF5
:1011A000FA574078CF910000224E035F535F4D52B3
:1011B000A8506F83348D0000DB8F889400000000FE
:1011C00009630B4EDB8F88942E9500004551C8763D
:1011D0002D4E0000F78B497B855F2E002E002E00E0
:1011E00000000000348D085400000000FB79FA5123
:1011F000DD4FA462D6760000065CF56C348D30526B
:10120000BA4E534F0A4E00004F004B00E77EED7E72
:1012100000000000C06F3B6D0000000009634F003C
:101220004B002E95C06F3B6DFA574078CF91000070
:101230000963450053004300224E035FA8506F83AB
:10124000348D00004C70E86CF381115C3700300085
:101250002A4E55534D4FF0809B5C207D0E542C0040
:101260004D62FD80005FCB59A8506F83348DC06FF5
:101270003B6DC78F0B7A0000A8506F83348D1D52D1
:10128000CB5916532A678C5B10622C00F78B497B75
:10129000855F5B005D0006529F940000F78BF4664B
:1012A0006263A8506F83348D00000000646BF56C9E
:1012B000534FA76336526856F25DDE8FA5633052F6
:1012C0007651D64E4B6201633A672C00F78BC068AB
:1012D000E567A763365268568F5E1752F7530000D2
:1012E000C87E626B348D4772F56C3159258D2C00A8
:1012F00009634F004B002E953E65035FA8506F8336
:10130000348D2C003E65035F0E54F78BCB7A7353FC
:10131000FB796496A8506F83348D0000636B285767
:10132000C06F3B6DB065A8506F83348D2C0000906A
:10133000FA51065C7F4F535F4D528476A8506F83FD
:10134000348D5C4F9F5E2C002F662654E77EED7E29
:10135000C06F3B6D416D0B7A3F000000E77EED7E74
:10136000000000000090FA5100000000F78B0963B4
:101370004F004B002E95E77EED7EA8506F83348D95
:10138000C06F3B6D416D0B7A2C00265419525B00E7
:101390005D0006529F940E54A8506F83348D065CF6
:1013A000EA81A8525C50626BE0654865000000006D
:1013B000F46662632F00B065A8506F83348D858D0D
:1013C000F6652C00A8506F83348DF25DEA81A85237
:1013D0005C50626BE065486500000000F25DC06F24
:1013E0003B6D0000A8506F83348DC6510759315CA6
:1013F000EA7E2C00EF53E54EDB8F4C88938FE86C30
:1014000000000000636B2857C06F3B6D00000000B8
:10141000636B2857C06F3B6DFA574078CF910B7ABA
:101420008F5E2C00F78B497B855F2E002E002E00EF
:1014300000000000A763365268568F5E1752F753BC
:101440000000000009634F004B002E95C87E626BC0
:10145000535F4D52A8506F83348D0000F78B485175
:101460000D4E81898A62F56C348D2857AB8E0A4EF9
:101470002C0009634F004B002E95005FCB5945515E
:10148000C87600002875C78F8476A8506F83348D86
:1014900000000000F78BCB7A7353FB796496A85059
:1014A0006F83348D2C0009630B4E4F004B002E953B
:1014B000F4666263B0658476A8506F83348D2C0027
:1014C0004500530043002E95D48FDE563B4E4F5CB3
:1014D000555E0000FB796496348D4772F56C2C00E4
:1014E000E8625362A25B37620D67A1523575DD8BEE
:1014F0002C0009630B4E4F004B002E9516624500E1
:10150000530043002E95D48FDE563B4E4F5C555E04
:1015100000000000A8506F83348DF4666263C78FAB
:101520000B7AFA51B073025F385E2C0009630B4EE0
:101530004F004B002E9516624500530043002E9538
:10154000D48FDE563B4E4F5C555E00000D594D4F1B
:101550003052FA518253BE8B6E7F0000F78B099098
:10156000E962A8608189056E649684768653F25399
:10157000B08B555F00000000F0809B5C207DF56C17
:101580008653F253B08B555F00000000A8520160F3
:101590004088D67C8653F253B08B555F0000000024
:1015A0006851E8908653F253B08B555F00000000FD
:1015B0004B6201633A67F25DDE8FA563348D47723B
:1015C000F56C2C000D594D4F3052FA518253BE8BA1
:1015D0006E7F9F52FD80817928752E00F78B2857EA
:1015E000C87E626BA8506F83348D4B4E0E542F54BF
:1015F00028750D594D4F3052FA518253BE8B6E7F74
:10160000000000004B6201633A67F25DDE8FA56364
:101610004088D67CA26334592C000D594D4F30526E
:10162000FA518253BE8B6E7F9F52FD80817928755F
:101630002E00F78B2857AD65005F4088D67CA263EB
:1016400034594B4E0E542F5428750D594D4F30526E
:10165000FA518253BE8B6E7F0000000009634F0079
:101660004B002E950E544B6201633A67065C0D5990
:101670004D4F3052FA518253BE8B6E7F2C000D5964
:101680004D4F0E54F78BCD91B065167F0B7ABE8B04
:101690006E7F00004500530043002E95D653886DA1
:1016A000000000009E58A052F9959F940000000091
:1016B000216A0F5F00000000004E216B0000000057
:1016C000CF6B29590000000020526496F9959F9431
:1016D00000000000DE567E98F9959F9400000000FF
:1016E000BE8B9A5B27594252CF910000DE8FA563D3
:1016F0004088D67CA263345900000000F78B6E78D6
:10170000A48BD153045C6856F25DDE8FA563F38130
:101710004088D67CA263345900000000DE8FA563A8
:101720002D4E2E002E002E00000000004088D67C9A
:10173000A2633459DE8FA563858DF6652C00CD91AB
:10174000D58B16620090FA5100000000D153045C62
:101750006856F25D10629F52DE8FA56330524B6275
:1017600001633A672E00D153045C68568C5440885C
:10177000D67CA26334592A67DE8FA5632E000963E5
:101780004F004B001662450053004300DE563052B6
:101790003B4E4F5C555E00004088D67CA2633459B6
:1017A000F25D10629F52DE8FA56330524B6201637F
:1017B0003A672C0009634F004B0016624500530046
:1017C0004300DE5630523B4E4F5C555E0000000039
:1017D00027594252CF91F25D8C5B106200000000ED
:1017E00068512959938FE86C3B60CF91B08B555F5E
:1017F00000000000FA574078CF910000275942526C
:10180000CF910000685129593B60CF910000000042
:10181000DF986972B378346C16530854697200000B
:101820003B60F0809B5C207DCF910000DF98697267
:1018300027594252CF9100002168636B27594252C9
:10184000CF910000DF9869722B002168636B000064
:101850004B62A85227594252CF9100006851295932
:1018600027594252CF910000636B0000696200006B
:10187000C47E0000287537620D54000009634F00D4
:101880004B002E956E78A48B287537620D54636BD0
:101890006E780000C068E567348D4772F56CB672EB
:1018A00001602E002E002E0000000000348D4772D3
:1018B000F56CB67201600D4EEF5328750000000004
:1018C0000067D18F27594252CF9100006962555C61
:1018D00000000000C47E696200000000A8506F8311
:1018E000348D6952594FF665F49500004E4F40888B
:1018F000D67C82665C50938FE86C0000EA81A85227
:1019000082665C50938FE86C00000000858DC78F65
:10191000CF6B0F5CF66500672759938FE86CCF910A
:1019200000000000858DC78FCF6B295900672759AC
:10193000938FE86C3B60CF910000000084984B6D62
:101940004E4F4088D67C82665C50938FE86C0000D6
:1019500006520000F665000029590000A860F360F7
:10196000B0732857DE8FA563004E2A4EB06584768B
:101970004088D67CA263345917543F000000000011
:1019800009634F004B00DB8F65513B4EDC835553A1
:101990002C000990E962A85201604088D67C2C0096
:1019A000DB8F6551DE8FA5634088D67CA2633459F6
:1019B000416D0B7A000000003100300006529F9408
:1019C000A16C096736653052D153045C6856E14F0B
:1019D000F7532C00F78B065C4B6201633A67609704
:1019E000D18FD153045C6856000000004088D67C3B
:1019F000A26334591D52CB5916532D4E00000000DE
:101A0000A2633459FB8B70651995EF8B00000000C1
:101A1000F78B938F65510763165C4088D67C000076
:101A2000A26334592168C6511995EF8B000000005C
:101A30003100350006529F940E54CD91B065938FBE
:101A400065514088D67C2168C65100004088D67C0C
:101A5000A26334592168C6512D4E00000067D18F12
:101A60004088D67CD89A8E4E0A00320032002E0072
:101A700032006D006D006F006C002F004C00000004
:101A80000067D18F4088D67C4E4F8E4E0A003200C0
:101A90002E0032006D006D006F006C002F004C00B6
:101AA000000000000067D18F4088D67C3C500000C9
:101AB0004088D67C8B8DBF5200000000A263345951
:101AC0006952594FF665F49500000000A860F36074
:101AD000B07328572F542875004E2A4EB06584766F
:101AE000A8506F83348D17543F00000009634F00E6
:101AF0004B00DB8F65513B4EDC8355532C00099026
:101B0000E962A8506F83348D2C00DB8F6551F46639
:101B100062632F00B065A8506F83348D416D0B7ADE
:101B200000000000F78BCB7A7353F4666263A85011
:101B30006F83348D00000000938FE86CF25D5C5081
:101B4000626B0000AD65005F4088D67CA2633459AB
:101B5000000000004088D67CA2633459F25DAD6578
:101B6000005F2C0009634F004B00166245005300D4
:101B70004300DE5630523B4E4F5C555E0000000085
:101B8000D153045C68563575CF914E4F000000006C
:101B90003D5CEB5FF95BD153045C6856DB8F4C888E
:101BA000455135752C0009634F004B002E95E77E9B
:101BB000ED7E00003E663A79BE8B6E7F000000002D
:101BC0004F5C555E858DF66500000000CC80495164
:101BD000858DF6650000000036003000D2792000C7
:101BE00036003000D279000033003000D279200076
:101BF00033003000D279000031003500D279200066
:101C000031003500D279000011620967D67C3F5C53
:101C1000C5752C00F4813575277D2560F463A952C4
:101C20000000000021002100000000002100000051
:101C3000C068E5670763165C4088D67C000000003A
:101C4000FA574078CF91167F918F0000FA5740786D
:101C5000CF910B7A8F5E167F918F8C5B10622C0078
:101C6000636B285762600D59FA574078CF91938F74
:101C7000E86C2C00F78B497B855F2E002E002E0030
:101C800000000000FA574078CF910B7A8F5E0990E0
:101C9000E96210629F520000167F918FC06F3B6D0A
:101CA0008476FA574078CF910B7A8F5E2C00636B65
:101CB000285782665C50FA574078CF91938FE86C32
:101CC0002C00F78B497B855F2E002E002E00000034
:101CD000FA574078CF910B7A8F5E167F918FD6534B
:101CE000886D2C00636B285762600D59FA57407855
:101CF000CF91938FE86C2C00F78B497B855F2E008A
:101D00002E002E0000000000FA574078CF91938FEC
:101D1000E86C82665C502D4E2C00F78B09634F00F7
:101D20004B00E77EED7E167F918FFA574078CF917A
:101D30002E000000938F6551DF986972CF910000EB
:101D4000DD4F585BE58BDF986972CF913F00000053
:101D5000DF98697200000000DD4F585B0000000052
:101D6000DD4F585BE58B0763165C4088D67C3C50A2
:101D70003F0000000763165C4088D67C000000002E
:101D8000534FB2803B95BC703A5FA65E00000000E6
:101D90007B8FA65E000000002D4EA65E00000000B6
:101DA0006752C870000000000163ED7EF665F4958F
:101DB00000000000DD4F585BE58B534FB2803B9530
:101DC000BC703F00000000007B8FA65E534FB280C6
:101DD0003B95BC70000000002D4EA65E534FB280B4
:101DE0003B95BC70000000006752C870534FB28032
:101DF0003B95BC70000000006550B75EB672B551EF
:101E0000000000001F75C575000000002671518696
:101E100000000000D89A4088D67CC775B6720000D2
:101E20004E4F4088D67CC775B67200001F75067489
:101E300068541F67000000006E9952910000000076
:101E4000DD4F585BE58B6550B75EB672B5513F000C
:101E5000000000008B4EF64E8653F253B08B555F58
:101E600000000000F0809B5C207D00008B539B52A3
:101E700000000000938F6551F0809B5C207D4252F2
:101E8000CF910000DD4F585BE58BF0809B5C207D9F
:101E90004252CF913F0000007651D64E8B4EF64E07
:101EA00000000000A860F360938F65517651D64E14
:101EB0008B4EF64E17543F0000000000DD4F585B7C
:101EC0007651D64E8B4EF64E3F000000280055004E
:101ED0002900000028006700290000004088D67C07
:101EE00000000000938F6551599709814088D67C86
:101EF00000000000C7914088F665F49500000000DE
:101F0000599709814088D67C000000002F6626542E
:101F10006E78A48B2875646B599709814088D67CAC
:101F20002168C6514088D67CA26334593F00000026
:101F3000636B28572168C6514088D67CA263345908
:101F40002C00F78B497B855F2E002E002E000000B1
:101F50004088D67CA26334592168C6513159258DF9
:101F60002C00F78B0D7A0E54CD91D58B2E00096382
:101F70004F004B001662450053004300DE563052BE
:101F80003B4E4F5C555E00004088D67CA2633459BE
:101F90002168C6518C5B10622C0009634F004B0016
:101FA0001662450053004300DE5630523B4E4F5CF4
:101FB000555E00004088D67CA26334598266F6657F
:101FC000E065D56C2168C6512C00F78B0D7A0E5454
:101FD000CD91D58B2C0009634F004B001662450054
:101FE00053004300DE5630523B4E4F5C555E2E0090
:101FF00000000000ED8B008A000000002D4E876578
:10200000807B534F0000000009634F004B002E956A
:1020100001952E95D87600002E95D876F25D019523
:1020200000000000096342002F0053002B00550000
:1020300050002E95E3890195000000004E4FA850F6
:102040006F83CF914A54668B00000000F0809B5C48
:10205000207DCF91000000006952594F0000000020
:10206000FA574078CF91006727593C500000000094
:10207000938FE86C0067275950963C504A54668B02
:1020800000000000CF6B0F5CF66500672759938F47
:10209000E86CCF9100000000CF6B295900672759E9
:1020A000938FE86C3B60CF9100000000938FE86C49
:1020B0000067275950963C50167F918F8C5B1062B9
:1020C0002C00636B2857F466B0652D4E2C00F78BFF
:1020D000497B855F2E002E002E000000D89A2F002D
:1020E0004E4F00006851E890000000002D000000F5
:1020F000BE8B6E7F00000000895B68510195000077
:10210000895B68510195C65B01780000938F65512A
:10211000C65B017800000000895B68510195BE8BA9
:102120006E7F1F7548652C0009634F004B001662D7
:102130004500530043002E950090FA510000000026
:10214000938F65518476C65B01781995EF8B2C00CF
:1021500009634F004B0016624500530043002E9563
:102160000090FA5100000000938F6551B065C65B86
:10217000017800008D51216B938F6551B065C65B6E
:1021800001780000938F6551E765C65B0178000018
:10219000B065C65B0178F25D1F7548652C00096368
:1021A0004F004B0016624500530043002E950090EF
:1021B000FA510000244E216B938F65518476C65BE3
:1021C00001780D4E39534D912C0009634F004B009F
:1021D00016624500530043002E950090FA5100000E
:1021E000A2633459C78F1F674A54668B00000000F2
:1021F000A8506F83348DC78F1F674A54668B0000C9
:102200006851E8907351ED95000000006851E89026
:10221000005F2F5400000000D0634D528498668BFD
:10222000F665F49500000000A8506F83348DC78FC9
:102230001F674A54668B167F918F8C5B10622C004F
:10224000636B2857F466B0652D4E2C00F78B497BE5
:10225000855F2E002E002E000000000084984B6D3C
:1022600082665C50D0634D52F665F4950000000024
:102270008498BE8B27594252CF910000E96510998E
:102280000000000048531099000000005A661099A1
:1022900000000000F696DF98000000002759425227
:1022A000CF9131000000000027594252CF913200F7
:1022B0000000000027594252CF9133000000000077
:1022C000E0658498BE8B00008498BE8B27594252EB
:1022D000CF91167F918F00008498BE8B344EF665A7
:1022E000FA574078CF91167F918F0000D89A3A5FC5
:1022F000A65E00002D4E3A5FA65E00004E4F3A5F8C
:10230000A65E0000344EF66531000000344EF665DE
:1023100032000000344EF665330000002500000056
:102320008498BE8B344EF665FA574078CF91000002
:102330001F908773280055002F00480029000000D7
:102340007E760652D46B00004B6201633A674565A6
:102350009C960000FB796496BE8B07592000E862CA
:102360005362A25B37620D67A1523575DD8B200089
:102370004500530043002C004F004B00056E64964F
:10238000000000008551585B199500004B62016305
:102390003A67FA51B07345659C962C000097CB7A4A
:1023A0007353FB796496BE8B0759765EE86253627D
:1023B000A25B0D673575DD8B00000000C068E56726
:1023C000BE8B6E7F00000000C068E5674062096751
:1023D000BE8B6E7F20004500530043002C004F0051
:1023E0004B00056E6496000009632E951995EF8BDE
:1023F0000000000009632E950163ED7E09630B4E1A
:10240000858DC78F330006529F94200045005300EE
:1024100043002C004F004B00056E64960000000046
:1024200009632E951995000009632E950163ED7ED1
:1024300009630B4E858DC78F330006529F940000B1
:10244000F9959F9400000000F9959F9420004500A5
:10245000530043002C004F004B00056E64960000B3
:1024600027594252CF91D06392910000BE8B9A5B64
:10247000F665F49585512A67938FE86C2759425287
:10248000CF9120004500530043002C004F004B002B
:10249000056E6496000000000763165C4088D67CD9
:1024A000D89A00004088D67CD89A8E4E31003300EE
:1024B0002E0039006D006D006F006C002F004C0085
:1024C0002000BB6C9775D89A4088D67C2000D176C6
:1024D0004B6D0763165C4088D67C20004500530096
:1024E00043002C004F004B00056E64960000000076
:1024F0000763165C4088D67C4E4F00004088D67C2F
:102500004E4F8E4E33002E0039006D006D006F006F
:102510006C002F004C000A00D1764B6D0763165CEF
:102520004088D67C20004500530043002C004F001B
:102530004B00056E64960000F058F3977351ED95CB
:1025400000000000F058F3977351ED95D06392911D
:1025500020004500530043002C0020004F004B009A
:10256000056E649600000000C068E5674088D67C70
:1025700000000000F78BC068E567535F4D5284761A
:102580000763165C4088D67C3C5020002000450044
:10259000530043002C004F004B00056E6496000072
:1025A0004B6201633A673575CF914E4F00000000D2
:1025B0004B6201633A673575CF914E4F2000F78B20
:1025C0003D5CEB5FF46662633575606C200045002E
:1025D000530043002C004F004B00056E6496000032
:1025E0003575CF914E4F00004B6201633A673575E8
:1025F000CF914E4F2C0000973D5CEB5FF466626319
:10260000B06584763575606C00000000CB7A73533A
:10261000F46662633575606C000000003575606CAF
:10262000F25D17803D5C2000CB7A7353F4666263E1
:10263000B06584763575606C20004500530043001A
:102640002C004F004B00056E6496000062633575E8
:10265000606C00004B6201633A673575606C3575DC
:10266000CF914E4F2C000097CB7A7353F466626380
:10267000B06584763575606C00000000FB7CDF7E01
:10268000EA81A852CD912F542C00FB796496348DA9
:102690004772F56C2C004500530043002C004F009E
:1026A0004B00056E64960000CD912F540000000091
:1026B0004B6201633A67FA51B073EE959898CD91E9
:1026C0002F542C00FB796496348D4772F56C2C00E6
:1026D000BE8B6E7F0D4E3965D8530000F058F397CE
:1026E0007351ED95200020004500530043002C005D
:1026F0004F004B00056E649600000000F0809B5C6C
:10270000207D938FE86C7353065C5C50626B2000F5
:10271000CB7A7353F4666263A8506F83348D2000C4
:102720004500530043002C004F004B00056E64969B
:1027300000000000348DC78F1F670000A8506F8312
:10274000348DF25D858DC78F7F4F2875FF5B7D547B
:102750002C00F0809B5C207D938FE86C7353065CAB
:102760005C50626B2C000097CB7A7353F466626303
:10277000A8506F83348D0000938FE86C5C50626BBF
:102780002000CB7A7353F4666263A8506F83348D54
:1027900020004500530043002C004F004B00056E05
:1027A00064960000A8506F837A7A0000A8506F8367
:1027B000348D8551F25DE065F0809B5C207D2C00BE
:1027C000938FE86CF25D5C50626B2C000097CB7AC3
:1027D0007353F4666263A8506F83348D0000000069
:1027E000348D35585E580000C0684B6D30523558F6
:1027F0005E582C00938FE86CF25D5C50626B2C008D
:102800000097CB7A7353F4666263A8506F83348D5C
:1028100000000000F0809B5C207D938FE86C5C5092
:10282000626B2000CB7A7353F4666263A8506F83A7
:10283000348D20004500530043002C004F004B0016
:10284000056E649600000000348D45659C9600007E
:10285000A8506F83348DFA51B07345659C962C0057
:102860000097CB7A7353F4666263A8506F83348DFC
:1028700000000000A8506F83348D45659C962E00A3
:1028800000000000348D45659C962E00000000007D
:10289000A8506F83348D3575CF914E4F00000000E6
:1028A000F25DE065D56C938FE86C27594252CF9169
:1028B0002C00F78B3D5CEB5FF4666263A8506F837E
:1028C000348D2E0020004500530043002C004F00A3
:1028D0004B00056E64960000348D35754E4F000038
:1028E000A8506F83348D3575CF914E4F2C000097D3
:1028F0003D5CEB5FF4666263A8506F83348D00002B
:10290000348DA16C35750000A8506F83348DA16C97
:1029100035752C000097CB7A7353F4666263A85028
:102920006F83348D00000000F56C534FA76336525F
:10293000685645659C960000FB796496348D477215
:10294000F56C2000E8625362A25B37620D67A1520A
:102950003575DD8B20004500530043002C004F00EF
:102960004B00056E64960000A76345659C960000C9
:10297000F56C534FA76336526856FA51B0734565EC
:102980009C962C000097CB7A7353FB796496348D18
:102990004772F56C765EE8625362A25B0D6735752F
:1029A000DD8B0000A8506F83CF914E4F00000000D8
:1029B0006952594F5B005D0020003D5CEB5FF4669F
:1029C0006263A8506F83348D20004500530043009C
:1029D0002C004F004B00056E64960000A8506F83DA
:1029E0004E4F0000A8506F83348D85516952594F66
:1029F0006F83CF914E4F2C0000973D5CEB5FF466E8
:102A00006263A8506F83348D00000000A8506F836C
:102A1000348DC78F1F678498668B0000A8506F8322
:102A2000348D28575B005D000F5CF6650E54C78F30
:102A30001F6720003D5CEB5FF4666263A8506F8304
:102A4000348D20004500530043002C004F004B0004
:102A5000056E649600000000348D8498668B00003B
:102A6000A8506F83348D7353065CC78F1F672C008B
:102A700000973D5CEB5FF4666263A8506F83348D12
:102A800000000000A8506F83348D31000F5CF665A4
:102A90008551C78F1F670000A8506F83348D735313
:102AA000065CC78F1F6720003D5CEB5FF4666263C6
:102AB000A8506F83348D20004500530043002C0044
:102AC0004F004B00056E649600000000348D849822
:102AD0003000310000000000D37E5F67938FE86C08
:102AE00082665C500000000028575B005D005C506F
:102AF000626B938FE86C20004500530043002C006C
:102B00004F004B00056E649600000000D37E826685
:102B10005C500000A8506F83348D04598E4E82663D
:102B20005C50938FE86CB6720160858DC78F310061
:102B3000350006529F940000858DC78FCF6B0F5CC8
:102B4000F66500672759938FE86CCF9150963C50FB
:102B50002000938FE86CF25D5C50626B20004500B2
:102B6000530043002C004F004B00056E649600009C
:102B70003100F665CF910000858DC78FCF6B0F5C5C
:102B8000F66500672759938FE86CCF9150963C50BB
:102B90002C00938FE86CF25D5C50626B00000000CB
:102BA000858DC78FCF6B295900672759938FE86CA4
:102BB0003B60CF9150963C502000938FE86CF25DC3
:102BC0005C50626B20004500530043002C004F0016
:102BD0004B00056E64960000CF6BE565CF91000059
:102BE000858DC78FCF6B295900672759938FE86C64
:102BF0003B60CF9150963C502C00938FE86CF25D77
:102C00005C50626B00000000EA81A85282665C5052
:102C1000938FE86C8498668B000000008259310025
:102C2000350006529F9485512A67056E64964A5472
:102C3000668B2C00065C4753A77E1062EA81A8527F
:102C400082665C50938FE86C20004500530043007F
:102C50002C004F004B00056E64960000EA815C502A
:102C6000849800002857BE8B9A5B8476F665F495AD
:102C700085512A6736653052348D4772F56C8476FB
:102C8000B6720160F466B065A5624A5400000000A7
:102C900082665C50938FE86C2C002857C78FBB531B
:102CA00084765B005D000F5CF66585512A67A5633D
:102CB00036653052348D4772F56CB6720160200073
:102CC0004500530043002C004F004B00056E6496F6
:102CD00000000000EA815C50938F0000858DC78F53
:102CE000BE8B9A5B8476F665F4952A67366530521A
:102CF000348D4772F56CB67201602C00938FE86CCE
:102D0000F25D82665C500000C06F3B6D8476FA57BE
:102D10004078CF910B7A8F5E3A4E7A7A00000000AD
:102D2000535F4D52C06F3B6D8476FA574078CF9118
:102D30003A4E30002E003000300055002F00480081
:102D400020004500530043002C004F004B00056E4F
:102D5000649600008498A18B5B005D0006529F94EE
:102D60000E544088D67C065C4E4F8E4E4E4F4088A7
:102D7000D67C82665C50938FE86CE8955096200074
:102D8000F25D82665C50938FE86C20004500530032
:102D900043002C004F004B00056E649600000000BD
:102DA00084984E4F5C50000082665C50938FE86CB4
:102DB0002C008498A18B4088D67C065CBE8F305254
:102DC00016624E4F8E4E4E4F4088D67C82665C50C7
:102DD000938FE86CE8955096000000004088D67C00
:102DE0004E4F8E4E4E4F4088D67C82665C50938FFD
:102DF000E86C50963C502000938FE86CF25D5C507C
:102E0000626B20004500530043002C004F004B0034
:102E1000056E6496000000004E4F82665C50000014
:102E20004088D67CBE8F305216624E4F8E4E4E4F2B
:102E30004088D67C82665C50938FE86C50963C50FC
:102E40002C00938FE86CF25D5C50626B0000000018
:102E50004E4F4088D67C82665C503159258D0000EB
:102E6000CB7A7353FB796496A8506F83348D20001E
:102E7000C068E5670763165C4088D67C2000450083
:102E8000530043002C004F004B00056E6496000079
:102E90004E4F4088D67C82665C50938FE86C2A67E0
:102EA000DE56945E2C00FA574078CF91EA81A85202
:102EB00062600D5920004500530043002C004F0074
:102EC0004B00056E6496000084984B6D4E4F408811
:102ED000D67C82665C50938FE86C2A67DE56945EDF
:102EE0002C00FA574078CF91EA81A85262600D59C0
:102EF00020004500530043002C004F004B00056E9E
:102F000064960000FA574078CF91F25D62600D59E7
:102F100000000000F78BC068E5674088D67C200081
:102F2000535F4D52C06F3B6D8476FA574078CF9116
:102F30000B7A8F5E3A4E5B005D0020004500530027
:102F400043002C004F004B00056E6496000000000B
:102F5000F56C1A90E14F858DC78F0383F4560000FE
:102F60004E4F4088D67C938FE86C82665C50315916
:102F7000258D0CFFF78B065C4B6201633A67609707
:102F8000D18F348D4772F56C20004500530043000B
:102F90002C004F004B00056E6496000084984B6D2A
:102FA0004E4F4088D67C82665C503159258D0CFF8F
:102FB000F78B065C4B6201633A676097D18F348D63
:102FC0004772F56C20004500530043002C004F0071
:102FD0004B00056E64960000858D0383F456000057
:102FE0004E4F4088D67C938FE86C82665C50315996
:102FF000258D0CFFF78B065C4B6201633A67609787
:10300000D18F348D4772F56C0000000084984B6DB1
:103010004E4F4088D67C82665C503159258D0CFF1E
:10302000F78B065C4B6201633A676097D18F348DF2
:103030004772F56C00000000348D4772F56CCD913D
:103040002F540000F78BC068E5672F662654F4669E
:103050006263864EA8506F83348D2C0082590967B5
:10306000EE9598982C00E8625362A25B37620D6778
:10307000A1523575DD8B2C004500530043002C0018
:1030800020004F004B00056E64960000F56CCD915A
:103090002F540000E765A8506F83348D2A67C87EDF
:1030A000626B2C00348D4772F56CCD912F542E003D
:1030B000000000001A599F52FD80216A0F5F09909D
:1030C000E9626856025F385E000000001A599F529C
:1030D000FD80216A0F5F0990E9626856025F385EE1
:1030E0002C00F25D82665C50938FE86C2C004500EA
:1030F000530043002C0020004F004B00056E6496E7
:1031000000000000216A0F5F199500001A599F52B4
:10311000FD80216A0F5F0990E9626856025F385EA0
:103120002C00F25D82665C50938FE86C2C00009757
:103130008189D2636551636B6E7884761A599F5288
:10314000FD80216A0F5F0990E96268560000000067
:1031500084981F674088D67CD89A00008498A18BF9
:103160005B005D0006529F944B4E0E544088D67C07
:10317000065CBE8F30521662D89A8E4E4088D67C3E
:10318000D89A509620004500530043002C004F0071
:103190004B00056E6496000084981F67D89A000063
:1031A0008498A18B4088D67C065CBE8F3052166214
:1031B000D89A8E4E4088D67CD89A5096000000004F
:1031C00084981F674088D67C4E4F00008498A18B5E
:1031D0005B005D0006529F944B4E0E544088D67C97
:1031E000065CBE8F305216624E4F8E4E4088D67CA3
:1031F0004E4F509620004500530043002C004F00D6
:103200004B00056E6496000084981F674E4F0000C7
:103210008498A18B4088D67C065CBE8F30521662A3
:103220004E4F8E4E4088D67C4E4F50960000000088
:103230004088D67CD89A00005B005D004088D67C30
:10324000D89A8E4E28753762BE8B6E7F8476408802
:10325000D67CD89A509620004500530043002C009D
:103260004F004B00056E6496000000004088D67C3D
:10327000D89A8E4E28753762BE8B6E7F84764088D2
:10328000D67CD89A509600004088D67C4E4F0000DD
:103290005B005D004088D67C4E4F8E4E28753762AD
:1032A000BE8B6E7F84764088D67C4E4F5096200031
:1032B0004500530043002C004F004B00056E649600
:1032C000000000004088D67C4E4F8E4E2875376235
:1032D000BE8B6E7F84764088D67C4E4F5096000021
:1032E000A263345936000F5CF6658551C78F1F679E
:1032F00000000000285736000F5CF6658551F46623
:103300006263A2633459765EDE8FA563B065A26303
:10331000345920004500530043002C004F004B005F
:10332000056E6496000000003600F665C78F000049
:103330004088D67CA263345936000F5CF66585510F
:10334000C78F1F672C000097F4666263B0658476B0
:10335000A263345900000000A263345932000F5CAC
:10336000F6658551C78F1F6700000000285732009F
:103370000F5CF6658551F4666263A2633459765E2C
:10338000DE8FA563B065A263345920004500530069
:1033900043002C004F004B00056E649600000000B7
:1033A0003200F665C78F00004088D67CA26334598E
:1033B00032000F5CF6658551C78F1F672C000097A0
:1033C000F4666263B0658476A2633459000000003D
:1033D000A26334593300300006529F948551C78F41
:1033E0001F67000028573300300006529F94855114
:1033F000F4666263A2633459765EDE8FA563B065BE
:10340000A263345920004500530043002C004F00B4
:103410004B00056E64960000330030000652C78FE3
:10342000000000004088D67CA2633459330030008D
:1034300006529F948551C78F1F672C000097F46632
:103440006263B0658476A263345900004088D67CFC
:10345000A2633459C78F1F67000000004088D67CE4
:10346000A2633459DB8F0B7AD37E5F672000F4664A
:103470006263A263345920004500530043002C00CE
:103480004F004B00056E649600000000A263C78FDA
:103490001F6700004088D67CA2633459F25DBE8F5E
:1034A0003052370029597F4F2875FF5B7D542C001F
:1034B000A2633459DB8F0B7AD37E5F672C000097B1
:1034C000F4666263A2633459000000000A4E475359
:1034D000EB5F00004088D67C0A4E47531F908773ED
:1034E0002A59EB5F858DC78FBE8B9A5B3C502000BD
:1034F0004500530043002C004F004B00056E6496BE
:10350000000000004088D67C0A4E47531F90877306
:103510002A59EB5F858DC78FBE8B9A5B3C500000AC
:103520000B4E4D96EB5F00004088D67C0B4E4D96BF
:103530001F9087732A59EB5F858DC78FBE8B9A5B6F
:103540003C5020004500530043002C004F004B002E
:10355000056E6496000000004088D67C0B4E4D96A8
:103560001F9087732A59EB5F858DC78FBE8B9A5B3F
:103570003C5000004088D67CA2633459224E315919
:1035800000000000F78B065C4B6201633A676097AE
:10359000D18FD153045C68562000200045005300B1
:1035A00043002C004F004B00056E649600000000A5
:1035B000A263224E315900003100300006529F9420
:1035C000A16C096736653052A263345909674865B2
:1035D00070656E632C000097DE8FA563A26334597B
:1035E0008C544B6201633A67000000003D5CEB5F66
:1035F000F95BD153045C6856DB8F4C8845513575B7
:1036000020004500530043002C004F004B00056E86
:1036100064960000D153045C4E4F0000D153045C0B
:1036200068563575CF914E4F2C0000973D5CEB5F8F
:10363000F95BD153045C6856DB8F4C884551357576
:1036400000000000D153045C685600974551357561
:1036500000000000CB7A7353F95BD153045C6856C9
:10366000DB8F4C88455135752000450053004300E1
:103670002C004F004B00056E6496000000974551EA
:1036800035750000D153045C68563575CF914E4FA7
:103690002C000097CB7A7353F95BD153045C6856C6
:1036A000DB8F4C884551357500000000D153045C18
:1036B000685645659C960000D153045C6856456584
:1036C0009C962000E8625362A25B37620D67A152AC
:1036D0003575DD8B20004500530043002C004F0062
:1036E0004B00056E64960000D153045C19950000F0
:1036F000D153045C6856FA51B07345659C962C0012
:103700000097CB7A7353FB796496BE8B0759765E2C
:10371000E8625362A25B0D673575DD8B0000000027
:10372000A85201604088D67C4A54668B5997F3971B
:103730000000000028575997F3971F67F495096711
:103740004A54668BD1531F752000E5670B77A8524A
:1037500001604088D67C4A54668BB08B555F864E9C
:10376000E389E68BC56020004500530043002C0030
:103770004F004B00056E649600000000668B599761
:10378000F39700002857A85201604088D67C4A541D
:10379000668B5997F3971F67F49509674A54668BB0
:1037A000D1531F75000000004088D67CA2633459B5
:1037B0001995EF8B000000004088D67CA263345935
:1037C00070656E63025F385E0CFFF78B6E78A48BBA
:1037D0004088D67CA2633459895BC5886F827D5945
:1037E00002304500530043002C004F004B00056E93
:1037F00064960000A2631995EF8B00004088D67C88
:10380000A263345970656E63025F385E0CFFF78BFC
:103810006E78A48B4088D67CA2633459895BC588B6
:103820006F827D59000000004088D67CA263345925
:103830003159258D00000000A2633159258D00000B
:103840004088D67CA26334593159258D2C00A2635F
:103850003459DB8F0B7AF25DD37E5F670000000086
:103860003100350006529F940E54938F65510763C3
:10387000165C4088D67C2168C65120004500530064
:1038800043002C004F004B00056E649600000000C2
:103890002168199500000000A26334592168C651BF
:1038A0001995EF8B2C0020003100350006529F94B3
:1038B0000E54CD91B0652168C65100004088D67C79
:1038C0004E4F8E4E33002E0031006D006D006F00A4
:1038D0006C002F004C0000004088D67C4E4F8E4E6E
:1038E00033002E0031006D006D006F006C002F0062
:1038F0004C0020004500530043002C004F004B00BB
:10390000056E6496000000004E4F8E4E330031006D
:10391000000000000067D18F004E2A4E4088D67C00
:10392000FB8B70654E4F8E4E33002E0031006D00C4
:103930006D006F006C002F004C0000004088D67CAA
:103940004E4F8E4E350036006D0067002F0064002C
:103950004C0000004088D67C4E4F8E4E350036001D
:103960006D0067002F0064004C00200045005300EC
:1039700043002C004F004B00056E649600000000D1
:103980004E4F8E4E35003600000000000067D18F8C
:10399000004E2A4E4088D67CFB8B70654E4F8E4E73
:1039A000350036006D0067002F0064004C000000F9
:1039B000A26334592168C651D0639291000000007F
:1039C00028575B005D004D52938F65510763165C6D
:1039D0004088D67C3C5028758E4E2168C651F466CE
:1039E000B06520004500530043002C004F004B0001
:1039F000056E64960000000007634088849800000C
:103A0000D0639291287537623D5CEB5F938F65516F
:103A10000763165C4088D67C2168C651A26334597E
:103A200000000000CB7A7353938F65510763165CD7
:103A30004088D67C00000000938F6551B065847685
:103A40000763165C4088D67C3C5028758E4E2168F2
:103A5000C651F466B06520004500530043002C00B9
:103A60004F004B00056E6496000000004B6D07632D
:103A7000408800000097CB7A7353938F655107639A
:103A8000165C4088D67C3C502168C6514088D67C64
:103A9000A26334590000000062600D593159258D30
:103AA00000000000EA81A85262600D59224E31598F
:103AB00084764088D67CA263345970656E63315930
:103AC000258D20004500530043002C004F004B0083
:103AD000056E6496000000004088D67CA2633459CD
:103AE000DE8FA563858DF665000000004088D67CDA
:103AF000A2633459DE8FA563858DF6652000F78BB0
:103B00008D51216BDE8FA5632000450053004300DB
:103B10002C004F004B00056E649600000763E44ED6
:103B2000CD54945ED0633A79000000004A54668B0D
:103B300000000000F0809B5C207DF56C0000000020
:103B4000A85201604088D67CD1764B6DFB7CDF7E2D
:103B500000000000BE8B0759099079980000000012
:103B6000F9959F94BE8B6E7F00000000005F2F547C
:103B70002F00BE8B6E7F0000FB7CDF7ECA8BAD65A5
:103B800000000000BE8B6E7F8653F253B08B555FF2
:103B90000000000062600D59BE8B6E7F00000000C7
:103BA000DD4F585BBE8B6E7F0000000028753762CA
:103BB000BE8B6E7F0000000027594252CF911154F6
:103BC000FC5BBE8B6E7F000027594252CF91D063C1
:103BD0009291BE8B6E7F000027594252CF91BE8BCF
:103BE0006E7F00002168C651D063929100000000F2
:103BF0002168C651CD910D594A54668B00000000D2
:103C0000938F65510763165C4088D67C00000000E6
:103C10004088D67CA26334592168C6510000000058
:103C2000A85201604088D67CBE8B6E7F00000000E9
:103C30004A54668BB08B555F000000002168C65166
:103C4000B08B555F0000000070656E63B08B555FF0
:103C500000000000FA574078CF91DE567E980000B1
:103C6000FA574078CF91BE8B6E7F0000A85201605A
:103C70004088D67CBE8B6E7FDE567E9800000000AA
:103C80004088D67C4A54668B5997F3970000000011
:103C9000A85201604088D67C000000004B6201639E
:103CA0003A674A54668B8653F253B08B555F0000D7
:103CB0008653F253B08B555F00000000FA574078EE
:103CC000CF910B7A8F5E0990E9620000A8506F8354
:103CD000348D00000A4E204F70656E6300000000B6
:103CE0003E663A79000000002E95D87601950000D6
:103CF000F665F4952F00E5651F67000082665C504D
:103D0000938FE86C000000003B4EDC8355530000AD
:103D1000534FB2803B95BC7000000000DB8FDF98F2
:103D2000B08B555F00000000F0809B5C207DE86C4C
:103D3000045C00008B4EF64E000000004B620163F5
:103D40003A67F25DDE8FA563348D4772F56C2C0007
:103D500062600D59BE8B6E7F9F52FD808179287500
:103D60002E00F78B2857C87E626BA8506F83348D66
:103D70004B4E0E542F54287562600D59BE8B6E7FCA
:103D8000000000004B6201633A67F25DDE8FA563BD
:103D90004088D67CA26334592C0062600D59BE8BDA
:103DA0006E7F9F52FD80817928752E00F78B2857F2
:103DB000AD65005F4088D67CA26334594B4E0E54EB
:103DC0002F54287562600D59BE8B6E7F0000000075
:103DD000E065DD4F585B847628753762BE8B6E7F59
:103DE0002C0009634F004B0016624500530043004E
:103DF0002E950090FA51000009634F004B002E955C
:103E000062600D59DD4F585B8E4E00008476287538
:103E10003762BE8B6E7F000028753762BE8B6E7F67
:103E2000F25DAB8862600D5900000000F78BC0683E
:103E3000E567BE8B6E7F000062600D59938FE86C62
:103E400000000000F78BC068E5670763165C4088D8
:103E5000D67C2C0009630B4E4F004B002E95626000
:103E60000D59FA574078CF91938FE86C2C0045009C
:103E7000530043002E95D48FDE563B4E4F5C555E6B
:103E800000000000636B285762600D59938FE86C47
:103E90002C00F78B497B855F2E002E002E00000042
:103EA000FA574078CF91F25D62600D592C0009639A
:103EB0004F004B0016624500530043002E95D48FEF
:103EC000DE563B4E4F5C555E2E000000636B28575C
:103ED000DE8FA563348D4772F56C2C00F78B497B20
:103EE000855F2E002E002E0000000000224E035F92
:103EF000A8506F83348D0000A8506F83348DF25D1D
:103F0000224E035F2C00F78BCB7A7353FB796496B8
:103F1000A8506F83348D000009634F004B002E952D
:103F20006E78A48B00000000A8506F83348DF25D82
:103F3000C87E626B2C00056ECB7A7353FB79649656
:103F4000A8506F83348D0000636B285762600D5951
:103F5000FB7CDF7EB67201602E002E002E0000007A
:103F6000636B2857DE8FA5634088D67CA2633459E3
:103F70002C00F78B497B855F2E002E002E00000061
:103F80004088D67CA2633459DE8FA5633159258DD4
:103F90002C00CD91D58BDE8FA5631662AD65005FD9
:103FA0004088D67CA263345900000000AD65005FF4
:103FB000000000004088D67CA2633459F25DDE8F99
:103FC000A56310629F5200004B62A852938F655107
:103FD000000000001C64227D00000000A763365230
:103FE00068563A00000000000D4EFD800C54F66546
:103FF0007351ED95F0809B5C207DF56C8C54A8523C
:1040000001604088D67CD1764B6DFB7CDF7E000062
:10401000F78B6E78A48BA76336526856F25DDE8FFD
:10402000A563F381B065A8506F83348D0A00636B7C
:1040300028571C64227DA763365268562C00F78BE4
:10404000497B855F2E002E002E0000001C64227D1F
:1040500030521A592A4EA763365268562C00F78BF5
:104060004B62A852938F65518F5E1752F753000031
:104070002A671C64227D3052FB4E554FA76336528F
:1040800068560000CD91B0651C64227D00000000E0
:104090006E789A5B00000000D153045C68568F5E16
:1040A0001752F75300000000D153045C68563A00E1
:1040B00000000000636B28571C64227DD153045C10
:1040C00068568F5E1752F7532C00F78B497B855F3C
:1040D0002E002E002E0000001C64227D30521A5942
:1040E0002A4ED153045C68562C00F78B4B62A852C1
:1040F000938F65518F5E1752F75300002A671C6437
:10410000227D3052FB4E554FD153045C685600005F
:1041100009634F004B002E95DD4F585B535F4D52A6
:10412000BE8B6E7F0000000009634F004B002E9590
:104130008689D676DD4F585B8E4E5B005D008476B7
:1041400028753762BE8B6E7F0000000028753762CD
:10415000BE8B6E7FF25DDD4F585B000009632E95CC
:10416000EA81C068000000004F5C555ECC80495178
:10417000EA81C0682C004F004B002E95005FCB59A0
:10418000C0684B6D00000000CC8049515362005F55
:104190002C0042002F0053002E95E77EED7E00009C
:1041A0004F5C555E4F57B970C0684B6D2C004F0087
:1041B0004B002E95E77EED7E000000000287239ED7
:1041C0006856EA81C0682C004F004B002E95005FB6
:1041D000CB59EA81C06800000287239E6856239E5F
:1041E000EB532C004500530043002E95D37E5F67B0
:1041F000000000006C9ABE8FEA81C0682C00550058
:1042000050002E95005FCB59EA81C0680000000085
:104210006C9ABE8F2F63A8522C0044004F005700A9
:104220004E002E95D37E5F6700000000C6510759EF
:104230004951D5962C00F78B8A624B6201633A672D
:104240003E6565514F5C3D85B17B0000F78B938FD8
:104250006551C65B017800004088D67C4A54668B65
:10426000B08B555F000000007B7C2B5200000000EB
:104270004088D67CD89A2F004E4F00006851E890B5
:104280004A54668B00000000A26334592168C6516D
:10429000B08B555F00000000D0634D52D063929107
:1042A000F665F495000000007651D64EBE8B075996
:1042B000F25DF4663965A85201604088D67CBE8BF9
:1042C0006E7F2E004088D67CA26334598C544B629A
:1042D00001633A674A54668BBE8B6E7F0D4EF8764B
:1042E0000C542C00F78B0990E9620000E54E4B62FC
:1042F00001633A673A4EC65100000000E54E40881F
:10430000D67CA26334593A4EC65100002F6626541B
:104310006E78A48B2875646B0763165C4088D67C26
:104320002168C6514088D67CA26334593F00000002
:104330004088D67CA26334598266F665E065D56C08
:104340002168C6512C00F78B28574A54668B2200EF
:10435000CB7A7353938F65510763165C4088D67C84
:1043600022000E542168C651A26334590000000097
:104370003A0000004088D67C70656E63B08B555F54
:10438000000000004088D67C8B8DBF52FE56B08B5B
:10439000555F0000A16C0967EF53287570656E6367
:1043A000000000004B6201633A67F25DDE8FA56397
:1043B000348D4772F56C2C00A763365268568F5EB9
:1043C0001752F7538179626BF46639652E00F78BCB
:1043D0002857C87E626BA8506F83348D4B4E0E54A5
:1043E000F4663965A763365268568F5E1752F753E5
:1043F000000000004B6201633A67F25DDE8FA56347
:104400004088D67CA26334592C00D153045C685692
:104410008F5E1752F7538179626BF46639652E000F
:10442000F78B2857AD65005FA26334594B4E0E548D
:10443000F4663965D153045C68568F5E1752F753A2
:1044400000000000F665F4952F00E5651F67BE8B40
:104450006E7F0000310032000F5CF66536520000BE
:10446000320034000F5CF6653652000009634F00DD
:104470004B002E95F4663965BE8B6E7F0000000000
:10448000BE8B6E7F0F5CF66500000000BE8B6E7FFA
:1044900006529F940000000050004D0000000000F4
:1044A00041004D0000000000BE8B6E7F745E000076
:1044B000BE8B6E7F08670000BE8B6E7FE5650000D7
:1044C000F665F495E5651F67BE8B6E7F3A4E00007A
:1044D0004B6201633A67F25DDE8FA563348D4772EC
:1044E000F56C2C00F665F4952F00E5651F67BE8B13
:1044F0006E7F8179626BF46639652E00F78B2857E1
:10450000C87E626BA8506F83348D4B4E0E54F46698
:104510003965F665F4952F00E5651F67BE8B6E7FE4
:104520002E0000004B6201633A67F25DDE8FA563E7
:104530004088D67CA26334592C00F665F4952F0090
:10454000E5651F67BE8B6E7F8179626BF4663965A6
:104550002E00F78B2857AD65005F4088D67CA2639C
:1045600034594B4E0E54F4663965F665F4952F00B8
:10457000E5651F67BE8B6E7F2E000000B67201607E
:1045800020002D0020004A54668B2F00D0639291AA
:10459000000000001F661F67004E00001F661F67B7
:1045A0008C4E00001F661F67094E00001F661F67C4
:1045B000DB5600001F661F67944E00001F661F67D2
:1045C0006D5100001F661F67E56500000067D18F11
:1045D0004A54668B3A000000D0633A79B9650F5FA0
:1045E0003A000000F058F3972B002F63A852000008
:1045F0004088D67C5997F397216A0F5F3A000000F4
:10460000F9959F943A00000027594252CF91D06308
:1046100092913A0000000000B672016020002D0067
:104620002000FA574078CF9100000000FA574078F8
:10463000CF910B7A8F5E3A00000000003200340008
:104640000F5CF6653B60CF913A000000FA57407866
:10465000CF913A0000000000344EF665FA574078DA
:10466000CF913A00000000002A67C06F3B6D000048
:10467000D853165300000000B672016020002D00D0
:10468000200027594252CF91000000000067D18FCF
:1046900027594252CF913A0000000000B6720160E3
:1046A00020002D002000CA4EE565938FE86CCF9165
:1046B00000000000F0809B5C207D7B7C8B573A00E3
:1046C0000000000082665C50938FE86C3A000000A6
:1046D00027594252CF913A00000000003B60CF9131
:1046E0003A0000006952594FF0809B5C207D3A00EF
:1046F00000000000B672016020002D0020007651FD
:10470000D64EE14F6F600000A2633459E14FF7537A
:104710003A000000D153045C68563575606C3A006D
:1047200000000000636B385E000000004B62016314
:104730003A678F5EF7533A0000000000A7633652D5
:1047400068568F5EF7533A0000000000D153045CB6
:1047500068568F5EF7533A0000000000B6720160A1
:1047600020002D00200048722C67E14F6F60000090
:104770004B6201633A673A0000000000D153045CC9
:1047800068560000A763365268560000C87E626B08
:1047900000000000636B2857C87E626BA8506F83CF
:1047A000348D2C00F78B497B855F2E002E002E0068
:1047B00000000000F25DC87E626B0000FB79649629
:1047C000A8506F83348D0000C87E626BA8506F8341
:1047D000348D3159258D2C00CD91D58BC87E626BDF
:1047E0001662224E035FA8506F83348D00000000D4
:1047F000F25D224E035F0000F78BCB7A7353FB7997
:104800006496A8506F83348D2C0009634F004B00D1
:104810002E95E77EED7E0000BE8B9A5BF665F495E3
:104820000000000009634F004B002E956E78A48BAA
:1048300082665C50938FE86C2C00C06F3B6D847671
:104840006962555C27594252CF918C54344EF665BB
:10485000FA574078CF91065CAB88D653886D20001C
:104860004500530043002E95D48FDE563B4EDC832B
:1048700055530000636B285782665C50938FE86C39
:104880002C00F78B497B855F2E002E002E00000048
:10489000F25D82665C50938FE86C00004088D67CA5
:1048A0000383F45600000000344EF665FA57407852
:1048B000CF91250000000000344EF665FA5740788D
:1048C000CF9155002F00480000000000636B28576F
:1048D000C06F3B6D344EF665FA574078CF910B7A36
:1048E0008F5E2C00F78B497B855F2E002E002E00FB
:1048F00000000000344EF665FA574078CF91F25D23
:10490000C06F3B6D2C0009634F004B0016624500E1
:10491000530043002E95D48FDE563B4E4F5C555EC0
:1049200000000000344EF665FA574078CF917B7C4A
:104930008B570000636B2857DE8FA5630A4E204F0C
:1049400070656E638476BE8B0759262000000000D8
:10495000636B28570A4E204F70656E632E002E0041
:104960002E000000CD912F542D4E2E002E002E0033
:1049700000000000AC030108B4030108C4030108EF
:10498000CC030108D4030108E4030108F003010883
:10499000FC03010804040108140401081C040108B4
:1049A000240401082C04010830040108340401081F
:1049B0003C04010844040108540401088C04010863
:1049C000B0040108C4040108D4040108E404010887
:1049D000F8040108AC0301080805010810050108E6
:1049E000180501083C05010854050108880501085F
:1049F000AC050108BC050108C4050108CC05010887
:104A0000D8050108E00501081C0401083404010868
:104A10003C040108F4050108040601080806010821
:104A20003C060108540601088805010870060108C3
:104A3000940601089C060108A8060108B4060108AE
:104A4000C0060108CC060108D8060108E4060108E2
:104A5000F0060108FC060108080701081407010810
:104A6000200701082C07010838070108440701083E
:104A7000500701085C07010868070108740701086E
:104A8000840701088C070108980701089C070108A2
:104A9000A0070108AC070108BC070108C807010806
:104AA000D8070108DC070108A007010874070108FE
:104AB000CC030108E40701083C04010834040108A0
:104AC000F00701081C080108240801082C08010847
:104AD000340801083C080108440801081C040108C6
:104AE0003C040108340401082404010854080108A6
:104AF0003C04010834040108600801083C05010871
:104B00008408010888050108B40801081404010894
:104B10001C040108C80801082C040108300401081D
:104B2000340401083C040108D40801083C050108CC
:104B30000009010888050108380901080406010870
:104B400048090108140401081C0401085C09010853
:104B50006809010870090108340401083C040108CF
:104B60007809010894090108AC0901083C0501080D
:104B7000D809010888050108140A01083C04010845
:104B800034040108240A0108300A0108380A01081F
:104B9000400A0108480A0108480A01084C0A0108AD
:104BA000540A0108300A01085C0A0108380A0108A1
:104BB000400A0108480A0108480A01084C0A01088D
:104BC000540A0108640A0108800A0108D403010894
:104BD000E40301088C0A01083C04010834040108BC
:104BE000A00A0108DC0A0108CC030108DC0A01085C
:104BF000EC0A0108FC0A0108080B0108100B010867
:104C0000180B0108FC0A0108280B0108080B010811
:104C1000100B0108300B0108400B0108480B01087C
:104C2000080B0108100B0108500B0108600B01086C
:104C3000D4030108E4030108680B0108780B01089C
:104C4000800B0108840B0108980B0108EC0A01088D
:104C5000180B0108A00B0108FC0A0108A80B0108A9
:104C6000B40B0108C00B0108C80B0108D00B0108E8
:104C7000FC0A0108DC0B0108E80B0108F40B010831
:104C8000000C0108100C0108200C0108800B010821
:104C90002C0C01083C0C01084C0C0108500C0108BC
:104CA000D4040108AC0301085C0C0108640C010881
:104CB0007C0C0108D4040108AC0301085C0C010859
:104CC000640C0108880C0108D4040108AC03010835
:104CD0005C0C0108640C0108940C0108DC0B010851
:104CE0003C04010834040108A00C0108DC0B010895
:104CF000340401083C040108B00C0108C00C010890
:104D0000C40C0108D8070108D40C0108E40C010800
:104D1000F00C0108000D0108040D0108080D010840
:104D20003C060108300D0108440D0108600D010822
:104D30007C0D0108980D0108B80D010888050108CF
:104D400070060108940601089C060108D80D0108A8
:104D5000680B0108000E0108D4030108E4030108F0
:104D6000100E0108280E0108800B01083C0E0108F6
:104D70004C0E0108600B01082C0C0108000C010806
:104D8000100C01085C0E0108800E01088C0E010851
:104D9000940E0108A00E01084C0C0108C00B01087C
:104DA000B00E0108BC0E0108C80E0108D40E01089F
:104DB000DC0E0108180B0108A80B0108E40E01081D
:104DC000F40E0108FC0E0108100F0108200F010865
:104DD0003C060108400F0108600F01087C0F010824
:104DE0008C0F0108940F0108A40F0108B80F0108E7
:104DF0008805010870060108940601089C06010850
:104E0000C00F0108040D0108000D0108E80F01089A
:104E1000FC0F01084010010860100108D80D0108BE
:104E2000CC100108AC070108AC030108E810010828
:104E3000F8100108101101081C110108481101089F
:104E4000541101085C1101086C110108801101085E
:104E500098110108A8110108B8110108C011010832
:104E600048110108CC110108D41101083C060108C1
:104E7000E4110108EC110108F811010808120108F9
:104E8000141201081C120108301201084412010812
:104E900078120108E81001089C120108AC12010800
:104EA000E0120108880501081C1301085C130108C1
:104EB000641301086C130108B0130108DC13010826
:104EC000E4130108440D0108600D01087C0D010880
:104ED000980D0108B80D0108041401081014010808
:104EE000341401089C060108441401085C140108EC
:104EF0008414010894140108D4140108141501083D
:104F00004C1501085C150108781501088C1501087D
:104F1000A01501084C150108B01501080416010878
:104F2000000D0108040D01085C1601089416010823
:104F3000A4160108980B0108B0160108B81601085C
:104F4000C0160108C8160108980B0108B016010820
:104F5000B8160108C0160108D4160108980B0108FC
:104F6000B0160108B8160108C0160108BC0E0108E9
:104F7000E01601084C0C0108100E0108A00E0108F3
:104F8000D40E0108DC0E0108180B0108A80B01085B
:104F9000E40E0108F40E0108FC0E0108100F0108D0
:104FA000200F01083C060108400F0108600F0108AE
:104FB0007C0F01088C0F0108940F0108A40F010851
:104FC000FC0A01088805010870060108940601081A
:104FD0009C060108C00F0108040D0108000D01081E
:104FE000E80F0108FC0F01084010010860100108DB
:104FF000CC100108EC160108040D0108000D010891
:10500000FC160108100E01081C1701082C170108D6
:1050100094060108641301084C1701089817010849
:10502000500B0108000E0108D4030108E403010835
:10503000100E01083C0E0108600B0108000C01086D
:10504000100C01085C0E0108800E01088C0E01088E
:10505000940E0108A00E01084C0C0108E40E010892
:10506000FC0E0108100F0108200F01083C06010882
:10507000400F0108600F01087C0F0108D40E0108E1
:105080008C0F0108940F0108D0170108FC0A0108D1
:105090008805010870060108940601089C060108AD
:1050A000C00F0108040D0108000D0108E80F0108F8
:1050B000FC0F01084010010860100108CC10010825
:1050C000E017010884070108A007010898070108F4
:1050D0009C0701088C070108F4170108FC17010858
:1050E0000418010810180108800B01082018010895
:1050F0002C18010838180108441801085018010834
:105100005C180108681801086C180108701801087B
:10511000CC030108741801087C18010894180108D0
:10512000AC180108E8100108C01801089C07010824
:10513000681801086C18010870180108CC180108DB
:10514000D4180108A0070108F4170108DC070108BA
:10515000DC180108EC180108FC1801080C190108FA
:10516000241901088C0701083C190108240A0108C8
:105170001C170108300A0108380A0108400A010812
:10518000480A0108480A01084C0A0108540A0108A3
:105190005019010854190108581901085C1901082F
:1051A00080190108B8190108EC190108001A010852
:1051B000101A0108201A0108301A0108201A0108E3
:1051C000301A01084C1A01085C1A0108801A0108FB
:1051D000A41A0108B01A0108BC1A0108CC1A010867
:1051E000EC1A0108241B0108381B0108441B0108A4
:1051F000000D0108040D0108541B0108801B010863
:10520000901B0108B41B0108C01B0108CC1B01083E
:10521000D81B0108E81B0108F81B0108081C01083D
:10522000241C01082C1C0108301C0108F003010893
:10523000FC030108401C01081C080108240801089F
:105240002C080108340801083C080108AC030108D7
:10525000DC0701084C1C0108841C0108440D0108EE
:10526000600D01087C0D0108980D0108B80D0108BA
:105270008805010870060108940601089C060108CB
:10528000C00F0108040D0108000D0108981C010859
:10529000D01C0108081D0108341D0108800B0108FD
:1052A000401D0108501D01088C0F0108581D010800
:1052B000000E0108D4030108E4030108601D010881
:1052C000741D01088C0F0108581D0108801D01087C
:1052D000901D0108981D0108A01D0108A81D0108C6
:1052E000B41D0108C81D0108D81D0108E81D0108EA
:1052F0008C0F0108581D0108F81D0108041E010843
:105300000C1E0108141E0108201E01082C1E010895
:10531000381E0108401E01088C0F0108581D0108A5
:10532000541E0108741D0108D4030108E403010898
:10533000641E0108501D0108800B0108C81D0108EA
:10534000D81D0108E81D0108041E01086C1E010893
:10535000141E0108201E01082C1E0108381E010819
:10536000CC030108741E01084C0C0108841E0108BE
:10537000641E01088C0F0108581D0108981E0108C1
:10538000A41E0108000D0108040D0108BC1E01083F
:105390008C0F0108581D0108C80E0108E01601080D
:1053A0004C0C0108100E0108180B0108A80B01088D
:1053B000E40E0108D40E0108DC0E0108F40E010809
:1053C000FC0E0108100F0108200F01083C0601081F
:1053D0007C0F010888050108700601089406010881
:1053E0009C060108C00F0108040D0108000D01080A
:1053F000E80F0108FC0F01084010010860100108C7
:10540000C40C0108AC030108641E0108501D01080A
:10541000D4040108CC1E0108D41E0108D40C0108D4
:10542000AC030108641E0108DC1E0108D404010855
:10543000CC1E0108E4040108F8040108B00C0108BE
:1054400004060108C40C0108AC030108641E01082D
:10545000501D0108D4040108CC1E0108D41E010807
:10546000D40C0108AC030108641E0108DC1E01080D
:10547000D4040108CC1E0108E4040108F804010862
:10548000E41E0108F41E0108001F0108D4030108EE
:10549000E4030108640C01080C1F0108040D010855
:1054A000000D0108301F01083C050108501F0108CC
:1054B000881F0108B41F0108F41F0108FC1F010820
:1054C000082001089416010818200108242001086A
:1054D0003C200108140401084C200108980B010825
:1054E000582001084C0C010860200108DC07010865
:1054F00070200108842001084C0C01089820010844
:10550000AC2001083C060108880501087006010866
:10551000940601089C060108C00F0108040D01084B
:10552000000D01083C04010834040108300401089E
:105530002C040108DC200108E4200108D807010838
:10554000EC200108C00C0108C00F0108040D01087F
:10555000000D0108B00E0108E01601084C0C01080E
:10556000100E0108E40E0108FC0E0108100F0108DE
:10557000200F01083C060108400F0108600F0108D8
:105580007C0F0108D40E01088C0F0108D017010808
:10559000940F0108B80F010888050108700601087A
:1055A000940601089C060108C00F0108040D0108BB
:1055B000000D010840100108E80F0108FC0F010868
:1055C00060100108CC100108F0200108F820010843
:1055D00000210108F82001080C2101081821010808
:1055E00040210108002101086821010874210108F7
:1055F0008421010890210108B42101080C2101082F
:1056000040210108E02101083C040108340401089C
:10561000F02101081C040108002201080C220108E5
:105620001822010804060108282201083C06010886
:105630008805010870060108940601089C06010807
:105640003C1901081C040108340401083C04010849
:105650005C220108702201087C22010884220108D2
:105660008C220108942201089C220108A82201082A
:10567000B42201087C220108842201088C2201083E
:10568000942201089C220108A8220108B4220108E2
:10569000EC0A0108180B0108A80B0108300B0108DF
:1056A000D40E0108DC0E0108100E0108B00E01082E
:1056B000E40E0108FC0E0108100F0108200F01087C
:1056C0003C060108400F0108600F01087C0F01082B
:1056D0004C0C01088C0F0108940F0108A40F01085D
:1056E000FC0A0108880501087006010894060108F3
:1056F0009C06010870220108C0220108E80F010879
:10570000FC0F0108CC100108000D0108040D010870
:10571000C82201087C220108842201088C22010889
:10572000942201089C220108A8220108B422010841
:105730007C220108842201088C220108942201089D
:105740009C220108A8220108B4220108EC0A0108E1
:10575000180B0108A80B0108300B0108D40E010832
:10576000DC0E0108100E0108B00E0108C80E010879
:10577000BC0E01084C0C0108D8220108EC220108DB
:10578000F4220108FC220108041E01080423010878
:105790000C230108142301081C230108DC0701085D
:1057A000C022010820230108EC220108F42201088C
:1057B000FC220108041E0108042301080C2301082F
:1057C0001423010820230108D8220108EC22010833
:1057D000F4220108FC220108041E01080423010828
:1057E0000C23010814230108302301084023010879
:1057F000A81D0108F02001081C230108DC0701088E
:10580000D8220108EC220108F4220108FC22010838
:10581000041E0108042301080C23010814230108B5
:10582000A80B0108F02001081C230108DC0701086F
:10583000100E010820230108482301085423010801
:1058400084230108482301088C230108BC23010894
:10585000C8230108E8230108F423010820240108D3
:10586000E8230108282401084024010848240108ED
:10587000602401086C24010898240108A42401086C
:10588000F0240108FC2401083825010844250108FA
:105890006825010874250108A0250108B025010824
:1058A000E0250108A0250108E82501080C260108CB
:1058B0001C2601084C2601080C2601085426010864
:1058C000482301087C260108A8260108482301086E
:1058D000B026010838250108DC2601080807010860
:1058E000FC26010834270108080701083C270108A5
:1058F0001407010878270108A427010814070108E4
:10590000AC270108FC06010878270108E0270108F8
:10591000FC060108E82701082007010814280108EF
:1059200048280108200701085028010874280108A8
:10593000842801087428010890280108A02801087B
:10594000D828010890280108E0280108500701081C
:1059500078270108002901085007010808290108D3
:10596000282901083829010868290108282901087F
:1059700070290108A4290108B0290108DC290108BF
:10598000A4290108E42901080C2A01081C2A01089D
:10599000582A01080C2A0108602A0108842A0108F3
:1059A000982A0108CC2A0108842A0108602A0108E3
:1059B000D82A0108E82A01080C2B0108D82A010876
:1059C000142B01080C190108382B0108702B010851
:1059D0000C190108782B010824190108A02B0108D3
:1059E000D82B010824190108E02B0108082C010814
:1059F0001C2C01085C2C0108082C0108642C0108EF
:105A0000FC180108902C0108D42C0108FC1801088E
:105A1000DC2C0108082D0108202D01083C19010883
:105A2000542D0108A02D01083C190108A82D0108DA
:105A3000EC180108DC2D0108182E0108EC180108EB
:105A4000202E0108502E0108602E0108081C0108B4
:105A5000902E0108C82E0108042F0108142F0108F8
:105A60001C080108240801082C0801083408010852
:105A70003C080108502F0108602F01089C2F0108E5
:105A8000D82F0108502F0108E02F01080C30010821
:105A900038300108443001088C30010838300108E2
:105AA00094300108B4300108CC300108B43001084A
:105AB000043101080C310108503101085C31010842
:105AC0009831010850310108A0310108C0310108A6
:105AD000CC31010808320108C03101081032010838
:105AE0003032010838320108303201083032010802
:105AF0006C320108883201089032010888320108AE
:105B000088320108C4320108E0320108F432010889
:105B100028330108E0320108303301085833010806
:105B20006C330108A033010858330108A833010879
